:200000000040002041E3000001C9011001C9011001C9011001C9011001C9011001C901103A
:1C00200001C9011001C9011001C9011001C9011001C9011001C901103FC9011089
:20003C002DE9F04FADF14C0D01F074F99E48001D07909D489C499B4C083008909A481038B5
:20005C00099099480C380A90974808380B9096484FF00009C84601F58C710D9104F5A271A1
:20007C00A4390E91001F0C90A068B04A49464FF0FF3300F023FC0028F6D0484605900DF10D
:20009C001A0105AA06A80FF07FF9002840F08980BDF81800012710287ED120789DF81A1021
:2000BC00884279D1059D28884FF6FF71814273D02E78913E5DD01F3E6ED1687816282CD0AB
:2000DC0028797E281DD07F280FD0009048464E4601904A46029640F2F9410392BBA30496E6
:2000FC003A46B6A00AF050FB34E0288900904E4601964A46029240F2F4410396BDA304922F
:20011C00EEE7287A00904E46019640F2EF41029603220396BEA30496E3E728794E4600904F
:20013C0040F2D741019602220296C8A30396A3A0CDF810900AF028FB266C8EB94FF6FD70B2
:20015C009449954A00904B46102006F075FE266CC3B22BB1297905F1080000F0B3FB1BE0F1
:20017C0046F001063846266409F0D6F94F46256112E068780E280FD1CDF8009048464E46DC
:20019C004D46019040F2BA413A460296C5A303958AA004960AF0F8FA059810B10FB110F00C
:2001BC00A4FDE06800F092FB00287FF45DAFE06800F090FB014601F10905097A0F900029C1
:2001DC0000F02F82491E00F07F81491E00F0E680491E00F0C282491E68D0491E43D0491E33
:2001FC0003D00A3900F0B482BAE2206C4008C0F0B7822769002F00F0B382A07807F108064C
:20021C00401CA070C74900967A883B79102006F013FE5FFA80FABAF1160F14D0276CBAF1FE
:20023C00040F10D037F00107276408D14FF6FD705849594A00900123102006F0FDFD5046BC
:20025C0009F06AF98CE2206900790090A0784F464E464D46019002220297C2A3039640F2D4
:20027C004351049574E1C77A00F10905002F0CBFC8A0CBA000904E464F4640F21A3148460F
:20029C00019001220297C8A303964CA004970AF07BFA48460090B0492A884B46102006F07B
:2002BC00CBFD5DE2C0070020EC07002000F10905407A0D2814BFC9A0CBA06F78002F0CBFAB
:2002DC00CCA1D1A14E460122D4A300904F4601914846029040F29A31039738A004960AF01B
:2002FC0053FA2F780D3F23D07F1E40F0398201206A1C014605F004FB6F78002F00F030828D
:20031C00D54948460CF0C4F8079904200CF0C0F8089905200CF0BCF8E06A401CE062206BFC
:20033C00801C2063606BC01C606319E20F0000C06A1C4846012105F0E3FA6F78002F00F040
:20035C000F820999484609F059FB0A99012009F055FB0B99022009F051FB0C98CC4900881A
:20037C000880CD4B0427FF260097CA4D01960A46029590684A460AF063F8E069401CE06182
:20039C00206A801C2062606AC01C6062A06A001DA062E5E135D80000FF0601002F8841F245
:2003BC0010102A463F1A76D0103F40F0D981287969886D1D2A4605F0A3FAD1E170726F6A8E
:2003DC006563745F7A65726F2E6300C052656365766965642047415454204D65737361675E
:2003FC00652E204F70636F64653A2030782530327800C0464D54552053697A6520636861D0
:20041C006E67653A20256420627974657300C046466C6F7720636F6E74726F6C2076696F2F
:20043C006C617465642E204F70636F6465206F66206F6666656E64696E6720415454206D93
:20045C0073673A2030782530327800C04F7574676F696E67205246204649464F2066756C36
:20047C006C2E2052652D7363686564756C65207472616E736D697373696F6E206F66206DA9
:20049C0073672077697468206F70636F6465203078253032780010795188521D07F072FCF3
:2004BC005EE1C04648434920436F6D6D616E6420436F6D706C657465204576656E7420721B
:2004DC0065636569766564002F880FF29C2CABA2B0A1B7F5895719D0103F40F04181B5F8AA
:2004FC00050040B1401E04D0401E08BFCDF840C002E0109200E010912879012840F030811E
:20051C00109EC3A0C6A740F2934118E0B5F8050050B1401E04D0401E08BFCDF844C004E08C
:20053C00119202E0DDFE001011912F79B7B17F1E40F01681B4A740F23541AFA0119E009088
:20055C00019702964D4603954B460493B6A3012295480AF019F903E1D9F30000A4A740F26A
:20057C002A41EAE75265747279696E67206D6573736167652077697468206F70636F646554
:20059C00203078253032782E20417474656D707420256400446973706C6179696E6700C0CE
:2005BC0053656E64696E6700426F6E644D6772205265717565737465642070617373636F33
:2005DC0064652E205765206172652025732070617373636F646520253036640042757474FC
:2005FC006F6E203100C046C0427574746F6E203000C046C01B5B33336D72656C656173652F
:20061C00641B5B306D00C0461B5B33326D707265737365641B5B306D00C046C0257320254D
:20063C0073002F8841F210103F1A37D0203F40F097802F7997B17F1E40F0928068790090DB
:20065C00A8790190E8794F464E4602907DA3039740F2654104967AE7EC0700200D9E4946D6
:20067C00282230460BF0AEFD6D1D2722294630460AF052FC8F4D5CA765A000904E46019758
:20069C004A46029540F25E4103967DA304925EE7D41E002041DB0000E01E0020A9780E9A9D
:2006BC00681D0CF01FFC2F796E1D0FF2F01B0FF2F01A37B37F1E53D146A0009048A7019790
:2006DC007D4F40F2F53101226DA302974F460397354804970AF058F8A0696A7907210EF06B
:2006FC002BFB377807B1D34636A000904E46CDF804B04F4602974D46039640F2FD31049572
:20071C0024E06D4D33A000902CA7019740F2E63101225BA302954F4603972348CDF8108041
:20073C000AF032F8A069327806210EF005FB377807B1D3461DA00090CDF804B04F46CDF801
:20075C0008804E46039740F2EE31049655A3FEE60820494603F01EFF02E0407A00F06CFB46
:20077C000F980EF08BFC1CE5496E6469636174696F6E7320656E61626C6564004E6F746936
:20079C006669636174696F6E7320656E61626C656400C0464E6F74692F496E642064697348
:2007BC0061626C656400C046D80300001B5B33316D4C4544301B5B306D00C0464C454430DA
:2007DC0000C046C01B5B33326D4C4544311B5B306D00C0464C45442053657276696365000A
:2007FC004C45443100C046C0537472696E6700C0425554544F4E3000427574746F6E2053DF
:20081C0065727669636500C0425554544F4E310044617461205365727669636500C046C040
:20083C0053747265616D00C043434344204368616E6765206D73673A2025732025733A2092
:20085C00257300C056616C7565204368616E6765206D73673A20446174612053657276695D
:20087C0063652053747265616D3A20253032783A253032783A253032782E2E2E00C046C0ED
:20089C0056616C7565204368616E6765206D73673A2025732025733A202573006F6666009B
:2008BC006F6E00C05475726E696E6720257320257300C0460409002060080020DFF800F0A6
:2008DC00F99B0110DFF800F089840110DFF800F04FBF0110DFF800F0F1BF01102DE9F04FAF
:2008FC00D44C04F118012046ADF1340D0DF00CFA00264FF6FF7066700121208204F1A40059
:20091C000EF03EFC022104F1C8000EF039FC042104F1EC000EF034FC4FF0040A04F14408AE
:20093C0010224046314684F802A00BF04BFC04F154091022484631460BF044FC04F11C0730
:20095C003E6004F10A052E70E671267207206072CDF80080DFF8F882022210200346414699
:20097C0006F06AFA102003224146CDF80090034606F062FA1020524641460097134606F000
:20099C005BFA4FF0080B4FF0030905F12A00079005F17900089005F11E00099005F15A008E
:2009BC000A9024350B9517E06078A28FE18FB4F84050B4F8423006280ED1ADF80A20ADF83D
:2009DC000C10ADF80E50B948ADF8103010F0DBF9012002A90BF0B4F8A069B34A31464FF0F3
:2009FC00FF33FFF76BFF071CF6D0059606A80DF11A0105AA0EF0C8FC002840F0BD81BDF842
:200A1C0018102078102940F0B3819DF81A10884240F0AE81059D29884FF6FF728A4200F0B0
:200A3C009C812B78A23B00F07F812E3B40F0A081A978B046002900F03B81891E00F00A8145
:200A5C00491E012940F2D980891E00F09C80491E6FD0491E5CD0083900F05681891E40F093
:200A7C00598194F83A30A888052BADF8080047D001208DF812008D4810F085F994F83A0095
:200A9C0001281ED004281CD003280DD002280BD00598C188ADF80A100189ADF80C10418944
:200ABC00ADF80E10818927E0A08FE58FADF80A00B4F84030ADF80C50B4F84210ADF80E30F6
:200ADC001AE0A08FE9888842D8BF081CADF80A002989E08F8842D8BF081CADF80C006989E3
:200AFC00B4F840008842D8BF081CADF80E00A989B4F84200884200DC0846ADF8100001E00C
:200B1C008DF81260A849102002AA06F095F901E1A64810F038F96B78002B40F0FB80E88847
:200B3C0060822889A0826889E08260480FF046FFF0E0AA88B449102006F07EF907984146E3
:200B5C0006220BF03FFB6682A682E682A8792073564810F018F9954810F015F94FF001080E
:200B7C004FF6FF702379208253B9A879082812BF84F801A00520607040460FF04FFFC9E0AB
:200B9C0084F80190C6E06B787BBB291D07980A680260898881800623637068892082E889A2
:200BBC006082288AA082688AE082E878E07294F83A00012818BF02280BD1994910201F223E
:200BDC0006F03AF94FF47A7180B2414337480EF007F9688900909149CDF804A0EA78102019
:200BFC002D1D2B4606F028F997E06878312840F08880E67084F801A08FE06B78002B40F0FF
:200C1C008080A878E3896178032815D0E078257923B9012814BF2671E67006E0054304D086
:200C3C00804819460EF0DCF861780729E2D10620607072E0F0100020062907D0E578002DEB
:200C5C0008BF84F8019068D00220F1E70720EFE7590201006B78002B53D1EB78617893B95F
:200C7C0002291DD007291BD0062902D12079012816D1032914D06B480FF0A0FE80B90120C0
:200C9C000FF0CCFE0CE00EF0A3FD0246A07962490090089843460190102006F0CDF86870CC
:200CBC006D78002D2DD135E007000080B81100206B7833BB5C485749009002221020034641
:200CDC0006F0BAF859484A46524900901020034606F0B2F8ED1C099829680160A9880123EA
:200CFC008180207863700EF073FD024601230A9D6079494900901020019506F09DF8C0B22D
:200D1C0058B184F801B008E0AA8841491020052306F092F8B8F1010F2AD1256A45B32D6835
:200D3C0035B36078A84723E06879132820D12889012808D1607B022805D11C4810F023F8CB
:200D5C000EF054FB14E036491020052206F074F881B216480EF044F80AE06888C00B07D3B4
:200D7C00334852462B4900901346102006F064F8059808B10FF0B9FF2579E078790830D3DE
:200D9C0055EA00032DD0204600788DB9E179257A8DF808100B9A8DF8095013680DF10A0533
:200DBC002B609288AA8005E005160110DC1100208DF80890617A8DF81010A17A8DF81110CC
:200DDC000EF006FD1149024602AB102006F034F838B1256A84F801B01DB12D680DB15846F1
:200DFC00A847B80803D3134930460AF0A9FEF808FFF4F2AD607B401E3FF4D6AD401E7FF48D
:200E1C00EBAD0EF0F3FAE7E5D5DC000059440110C1170110158C0000094501100D9600007C
:200E3C00CD0501009411002034110020441100200C1100202A11002010B5401EADF1280D96
:200E5C0030D0401E28D0801E22D0401E1CD0401E0DD0401E07D0401E5BD1002040F2813148
:200E7C0031A304464CE040F2753131A317E040F2153006A907F07EFA06A80CF095FF002472
:200E9C004FF45C7131A33BE040F27D3139A306E040F279313DA302E040F2663140A3002427
:200EBC0020462DE04FF4417008A907F063FA9DF821308DF8193000248DF81C408DF81B4011
:200EDC009DF822208DF81A209DF825108DF81F109DF820008DF818009DF824309DF82320CF
:200EFC008DF81E303C498DF81D2006AB586848601A680A6008A80CF057FF40F261312BA323
:200F1C000090019402940122039403A0049409F03BFC0AB010BDC04670726F6A6563745FF2
:200F3C007A65726F2E6300C04572726F7200C046436F6E6E656374656420616E64206164A9
:200F5C00766572746973696E6700C046436F6E6E65637465642E205065657220616464726C
:200F7C006573733A201B5B33326D25731B5B306D00C046C0436F6E6E656374696F6E207453
:200F9C00696D6564206F757400C046C0446973636F6E6E6563746564202F2049646C650098
:200FBC004164766572746973696E670047415020697320737461727465642E204F75722006
:200FDC00616464726573733A201B5B33326D25731B5B306D00C046C03F1400204FF0FF311A
:040FFC0001607047D9
:20100000B41200001810000095D90000FDB301106DC00110FDAE011099B50110000000005A
:08102000000000002D0000009B
:20102800B01200003C100000B1C00110A9BF011067C0011069B80110000000000000000035
:041048003000000074
:20104C00B012000060100000BDC00110CDB30110D9BD01106DB3011000000000000000005B
:04106C00310000004F
:20107000000000004C22002004000000000000000000000020000000E8C9011030000000BC
:2010900028100000542200200400000000000000000000000C000000D8CA01101800000097
:2010B0004C1000005C22002004000000000000000000000024000000F0CA0110180000001B
:2010D00000000000642200200400000000000000000000001000000018CA01102C00000027
:2010F0000010000074220020040000000000000000000000200000006CCA0110240000008B
:20111000FFFFFFFF7C2200200400000000000000000000002800000090CA0110240000004A
:20113000FFFFFFFF842200200400000000000000000000001400000008CB011018000000C9
:20115000FFFFFFFF8C22002004000000000000000000000058000000B4C901103400000097
:20117000FFFFFFFF942200200400000000000000000000001000000020CB01101800000065
:20119000FFFFFFFF9C2200200400000000000000000000001C000000B4CA01102400000092
:2011B000FFFFFFFFA42200200400000000000000000000003800000044CA011028000000BA
:2011D000FFFFFFFFAC2200200400000000000000000000005400000078C901103C0000002F
:0811F00002000000442501008B
:0411F80001000000F2
:0411FC0000000E00E1
:0412000000000F00DB
:0412040032000000B4
:0412080001000000E1
:04120C00A0210020FD
:0412100000020000D8
:0412140000000000D6
:0412180001C90110F7
:04121C0000000000CE
:0412200000000000CA
:0412240008000000BE
:0412280000002200A0
:04122C00F01F00208F
:0412300000000000BA
:0412340000000000B6
:0412380008000000AA
:04123C00602100200D
:0412400000000000AA
:0412440000000000A6
:04124800080000009A
:04124C00000000009E
:04125000000000009A
:041254000000000096
:041258000000000092
:04125C00010000008D
:0412600088200020C2
:041264000600000080
:041268000100000081
:04126C00201F00201F
:04127000000000007A
:041274000000000076
:041278000002000070
:04127C00000000006E
:02128000290043
:02128200010069
:02128400250043
:02128600300036
:02128800310033
:02128A002D0035
:02128C0001005F
:01128E00015E
:0812900003000000E824010046
:0812980000000000000000004E
:0412A0000000010049
:0412A4000000030043
:0412A80013C401105A
:0412AC0083070100B3
:0412B000B812000070
:0412B400B81200006C
:0412B8000000000032
:0412BC0014220020D8
:0412C00027090100F9
:0412C4002000000006
:0412C80000240100FD
:0412CC00D02201002B
:0412D00029C101101F
:0412D4001BED00000E
:0412D80063F00000BF
:0412DC00A1C7011095
:0412E000A3C701108F
:0412E4000000000006
:0412E8001F230100BF
:0412EC00401F01009E
:0412F000581F010082
:0412F400281F0100AE
:0212F8000200F2
:0212FA000900E9
:0212FC000100EF
:0212FE000000EE
:0113000001EB
:04130400B508010027
:04130800F5EF0000FD
:04130C0099FE000046
:041310003DF30000A9
:041314002DF00000B8
:04131800E5E100000B
:04131C0099B800007C
:041320006D0B010050
:04132400C5D500002B
:0413280015C70110D4
:04132C0025C70110C0
:201330002DE9F04F914C04F108012046ADF1940D0CF0F0FC0FF2741A0020074600904FF411
:20135000F5710197012202975CA303975046049709F020FA04F1640528463946A76310F091
:2013700073F804F17C0004F18801E56009F0FEFBA06170B900973846019040F2FB1102902C
:20139000032203905DA30490504609F003FA10F057F804F1700004F1940109F0E7FB60618B
:2013B00078B900973846019040F201210290032203905BA30490504609F0ECF910F040F86A
:2013D00060696B490FF0E9FB70B100973846019040F2072102900322039059A3049050460C
:2013F00009F0D8F910F02CF805A839462422082310F022F8604E4FF47A7832250D20DFF8FA
:20141000749132680B9005AB04F1FC00B8FBF2F18AB26A43494610F00BF80E2031680B906E
:2014300005AB04F59070B8FBF1F189B24D432A4649460FF0FDFF0125ADF83C7040F20530BB
:201450000DF18E028DF88E50294602F08FFB40F2063002210FAA02F089FB621C4FF4427073
:20147000294602F083FB04F1B00240F20730142102F07CFB04F1D900394620220AF0A8FEA0
:2014900004F1B00604F1D9083846325C401CC0B231180B78092B18BF082B01D11F2A6DDB74
:2014B0008018C0B22028F0DB6DE0C04670726F6A6563745F7A65726F2E6300C0496E6974B1
:2014D00069616C697A696E67207468652075736572207461736B2C206861726477617265F8
:2014F0002C20424C4520737461636B20616E642073657276696365732E00C0464572726FE4
:201510007220696E697469616C697A696E6720626F617264204C45442070696E7300C04621
:201530004572726F7220696E697469616C697A696E6720627574746F6E2070696E7300C010
:201550004572726F72207265676973746572696E6720627574746F6E2063616C6C62616310
:201570006B2066756E6374696F6E00C0C007002001B100006DBF00007C250100491C521E6E
:20159000404609F0CFFCCDF800800197504640F2392102972A460397ABA3049709F0FAF87B
:2015B000B34E10200622A023314605F04BFC10200722A023314605F045FC10200822A02366
:2015D000314605F03FFC10200922A023314605F039FC10202A461E23314605F033FC8DF894
:2015F0008F508DF890500EAE0E9728468DF891704FF4816204238DF892009E4D009610202D
:20161000294605F01FFC0DF18F004FF48062012300902946102005F015FC24A840F20242EE
:20163000012300902946102005F00CFC0DF191000090294640F203420123102005F002FCFE
:201650000DF19200294640F2064201230090102005F0F8FB884910204FF0FF3205F0F2FBE2
:20167000864910204FF0FF3205F0ECFB1026DFF810928448844A0096132349460190304664
:2016900005F0E0FB04F1C4003A4615237F490090304605F0D7FBB046C548C44ECDF800800A
:2016B00005234946019006F10C02404605F0CAFB0FF2D42B3D463E4605200090D821019542
:2016D000012202955B460395ABA0049609F062F8B84D2778287880000FF047FB0146CD486E
:2016F0008246C16039B34FF6FF700DF0B3FC287880000FF03AFB0146CAF81010D9B14FF659
:20171000FF700DF0A7FCC44940460AF11402009007230191494605F095FB07200090FE21D0
:201730000196012202965B460396BCA0049609F031F88AF800702878267880000FF015FB36
:20175000CB4F0146F960D9B14FF6FF700DF082FCC849404607F14C0200900623019149464F
:2017700005F070FB0620009000200190EB210290012203905B460490ADA009F00BF83E7012
:20179000287880000FF0F1FABB4E0146F16019B34FF6FF700DF05EFC287880000FF0E5FAB9
:2017B00001463161C1B14FF6FF700DF053FC287880000FF0DAFA0146716169B14FF6FF70F4
:2017D0000DF048FCAD49183640460A23009032460191494605F036FB287880000FF0C5FA94
:2017F000A74E0146B16071B14FF6FF700DF032FC0C36A448CDF80080494604233246019059
:20181000404605F01FFB287880000FF0AEFA9E4E01460029F16049D04FF6FF700DF01AFCCF
:20183000287880000FF0A1FA0146316100293DD04FF6FF700DF00EFC287880000FF095FA66
:201850000146716191B323E04E616D6520696E206164766572744461746120617272617941
:201870003A201B5B33336D25731B5B306D00C0466DF200007D4C00009DFD0000250001001C
:2018900079F90000D0240100D4140020EDBC00004FF6FF700DF0DEFB7C49404606F118023A
:2018B00000900A230191494605F0CCFA3F4904F14C00002588600FF28819009001220195BE
:2018D0004B460295E72103952BA0049508F062FF04F15400CAF80800009040F20F110195E8
:2018F000012202954B4603954CA0049508F052FF04F15C00B8602E460090FC2101950122E4
:2019100002964B4603964AA0049608F043FF0DF13E00282229460AF05BFC5D490DF16600E7
:20193000282209F0FFFA01210DF13E02284606F02FFA01200DF13E02014606F029FA284641
:2019500001210DF13E0203F0E1FF01200DF13E02014603F0DBFF284628210DF1660203F0C1
:20197000C1FC012014210DF13E0203F0BBFC494D69782878A9BB1FE06C65645F736572768E
:201990006963652E6300C0465265676973746572656420736572766963652C2025642061FA
:2019B00074747269627574657300C046C81D0020B0210100694F002004F13C0129620DF0C2
:2019D0000DFF05F154070096024605F14400019005F11C03029730490393AB78404605F096
:2019F00031FA2E4904F14402404605F02BFA20780DF0F4FE2A490246404605F023FA2078E8
:201A10000DF0ECFE27490246404605F01BFA25B0BDE8F08F581C00202C21010062757474ED
:201A30006F6E5F736572766963652E6300C046C0646174615F736572766963652E6300C0D7
:201A5000526567697374657265642063616C6C6261636B7320746F206170706C6963617437
:201A7000696F6E2E2053747275637420257000C0101B002058210100A01900203C200100CD
:201A9000D41E002064230100581A0020B420010089200100F0100020A3E50000950201004B
:201AB00051880110318101102DE9F04F0F46CD4C0168E16241688068ADF11C0DE060C54855
:201AD000A1608047C448E16A0160A168DFF810A34160E168DFF804938160CE49002FA3467B
:201AF000C1606FD03D68E8788DF80C0028798DF80D0003A80FF098FCA86808B1C649016036
:201B1000E86808B1C5490160C54C287820706878BE686070A878B268A0703178A260736856
:201B3000E1702E696360EA6926627968E2620868E06068696062A8697B68A062286A9E6819
:201B5000206395F8240084F834001EB900200EF041FC00E066617868C06818B900200EF0C1
:201B700039FC00E0A0617868006918B900200EF031FC00E0E0617868406818B900200EF042
:201B900029FC00E0206128692062F86881680E6806B9D24ED0494FF001084E60C66881F848
:201BB000018036B900200EF015FC4D462E68F86801E04D462E6000685446FB68A0615868C5
:201BD000E06107E000200EF005FC4D462E684FF001085446361DC749366804F10803502032
:201BF0005246B04710B1286880688047DBF808008047C24E002781463B46BF487770694688
:201C100060610422337038460DF00EFC0098B0F5801F0CD020B90DF0FFFE06F0F3FE08E04B
:201C30000CF00EFC0EF02AFE0420708001E00DF0F3FE3846BA4EE0602B68B760986980474D
:201C50007060AF4880F800803946418014200EF0F3FEFF211422A0620FF0A3F8E01CFF2144
:201C700002220FF09EF814200EF0E6FEA54F38603868002114220FF094F8002000F052F91C
:201C900040460CF0F9FEA0480188FF2906D1022101807822001D00210FF083F803200FF033
:201CB000BFFB04200FF0B8FB05200FF0B1FB06200FF0AAFB07200BF04FFC944E08203070D3
:201CD00006F124000FF09CFB0BF004FE06F1360A05200A2152460EF0B7FA38B10020C0F1BE
:201CF0000901401C0AF8011B0A28F8DB3078102108F0D2F82B68864909200DF10E025E6851
:201D1000087001AB10200021B047A06AE1690A260A309DF80E20761E00F8012BF9D1891E9D
:201D3000E161DBF80C104846884704F120002B68626A059040461E69DFF8D88104F12003A7
:201D50004146B04710B1286880688047B8460DF085FF5FEA000903D008F0A8FF4FF0FF393B
:201D7000002643E00298616910F8062CA0F10C07032A03D1002939D0884737E0A16A9DF80F
:201D900010C00A223046491E11F8013F9C4506D0521E00F10100F7D14FF0FF0A01E05FFAAE
:201DB00080FA2868BAF1FF0F00F108001CD038790DF0C4F8B979012904D0022904BF029948
:201DD000887001E002990870029950460EF082F90CE0C04641490010F8440020C42200206F
:201DF000E8200020BC1B0020006880472868C36904A902AA0DF10F0098470028B2D0D8F80A
:201E100000007700C35B6BB9761CF6B20A2EF8DB2BE0C0466014010021F900009D05010071
:201E3000B81F00200A2E20DADBF808008047D8F80010002231F807A0CA53DBF80C1088471A
:201E5000354850F8262066705146304690470646FF206070DBF808008047D8F800107A5A1C
:201E700016437E52DBF80C1088470DF0F7FE0746B9451AD007B9294FE069B84238BF071CAF
:201E9000DBF80800804781462868016A206A8847626A28681F49059B521C6262C668384633
:201EB000B047DBF80C1048468847E7682968A0681431AFB9D8F800000A270026835B33B151
:201ED0000969A06888472968D8F8000014317F1E06F10206F2D107E02C2200206BCA00001A
:201EF000096988472968143109684FF0FF3088472DE7C0462DFE0000150601006C1F002001
:201F1000BC220020D42B0020DC1C002004160020E62B002085EF0000582201008EC2F528B5
:201F3000842B00202DE9F84FDFF8BC13DFF8BC23DFF8BC5308700821002010600D23DFF8EB
:201F5000B40340F23732017043808280DFF8A8030560AC7EDFF8A4030470FF2CE97E4170A3
:201F700008BFFF292A7F82706B7FC370AE7F0671ED7F457115D1FF2A08BFFF2B11D1FF2ED5
:201F900008BFFF2D0DD1DFF878130A7802704B7843708A788270CB78C3700A790271497972
:201FB0004171DFF860130278DFF85C83DFF85C93DFF85C730A70FF2543784B7082788A7071
:201FD000C378CB7002790A714079487188F8005088F8015088F8025088F8035088F80450F9
:201FF00088F805500020CB490880D9F83440CA49607808702278C9493A70A0780870A268A8
:202010001079C74A411E1170E078C649C64A0870E068106008B90EF0DDF92069C34E3060D0
:2020300008B90EF0D7F93068DFF804A301688847326852F8041F50468847BE48BE49CAF878
:202050002000CAF824106069BC49086008B90EF0C1F9A069BA49086008B90EF0BBF9E0697B
:20207000B849086008B90EF0B5F9DFF8DCB2B74C9BF804000EF0E0FC0028206075D09BF821
:202090000500B34E0EF0D8FC002830606DD09BF80600DFF8C0A20EF0CFFC0028CAF80000DE
:2020B00063D09BF807000EF0C7FCAB49002808605BD039789BF80000891C484380B20EF02F
:2020D000BBFCA649002888604FD03878002862D0BBF80210484380B20EF0AEFCA04A0028D5
:2020F000506042D038780EF0A7FC9E49002808603BD0387840000EF09FFC9B49002808603E
:2021100033D03878182148430EF096FC974A106058B3387840010EF08FFC9549086020B3B9
:20213000387800010EF088FC92490860E8B1387800010EF081FC90490860B0B138783021B1
:2021500048430EF079FC8D4A106070B18C483978007848430EF070FC8A4A106028B138784A
:202170000EF06AFC8849086018B9BDE8F14F06F03DBE4FF0000B09E00EF02EFC00214180CE
:2021900081600180022303710BF1010B39785FFA8BF08842F0D32268694F012010712168AD
:2021B0000D732068457321688D732068C57321680D7400212068457400202268D172A022EB
:2021D0002168487103212068C2800172072022685072002120688172282120680122418286
:2021F000C2760020216848770022206880F85E200121226811770120216881F85D000122B8
:202210003068027131680D733068457331688D733068C57331680D74002130684574002025
:202230003268D172002231684871306882724FF420703168C88008818A7401213368D9746C
:20225000DAF800201573DAF800104D73DAF800209573DAF80010CD73DAF800201574002299
:20227000DAF800104D740121DAF80030DA720023DAF800201171DAF800104B71DAF8001024
:20229000C88008818B720520DAF800209374DAF800103E4AC8741068804739680546086801
:2022B0008047396851F8042F00209047D9F80C101C4B0A881878364902430A802846354A82
:2022D000136898470C2134480FF096F840460FF08FF80FF089F8BDE8F44F034800784FF4E4
:2022F000005107F0D9BD00BF6E4F0020044F0020B63F0050604E0020084F00202C4E0020BD
:20231000E81200503C4E0020344E0020A42501007B4F00200C4F00206D4F00206B4F002032
:20233000724F00206C4F0020F04E0020F44E00207C4B0020490A0100690A0100F84E0020FC
:20235000FC4E0020842A002008220020104F0020144F0020184F00201C4F0020902B0020FC
:20237000684E0020004F0020BC2B0020804E0020844E0020884E00208C4E0020904E002033
:20239000E8220020C02B0020C42B0020C41B0020544F0020C81B0020F84D00202DE9F84F62
:2023B000C04CA178FF2904BF00200EF013F8A0780EF03CFA044604F1680504F190062968C0
:2023D000086810B10021E1830CE0A87B002804BFA97E002906D13078002801BF207F0128BE
:2023F000608CE0832189E08B4118491C618120460EF0F6FF01281EBFAB480178012904D1FF
:2024100021890020491CE08361814FF6FF77A87E01280DD1AA8B618920890EF0DDFF38B1C5
:20243000218960894A1C93B298421BD0A88B0FE03078012816D17288618920890EF0CCFF59
:2024500080B1218960894A1C93B298420AD0708892B2904206D03818608180B20EF0B8FF4D
:202470003F18E78304F5967999F8040020B120890021401CE183608104F12E07A87E012839
:2024900011D12189A88B4B1C9BB298420BD160810EF09EFF8046B988288C01FB080820465A
:2024B0000AF0C4F901E0B7F80480B4F81EC022687E4ED2F80CE00CF1010000FB08F340F681
:2024D000C41000FB03F18E44C2F80CE03668DFF8E0E13678BEF80080764AB609032E11D105
:2024F000D67BF60748BF4FF000080BD408F101081FFA88F6012E12BF668AB9F8066006F2B9
:20251000DC5600E0668A5E434FF4C87AB6FBFAF6761C6661AEF80080A3614FF0180894F874
:2025300006A084F820C008FB0AFADFF88CC1DCF800E023680EF1080656F80AB0C3F810B08F
:2025500094F806A008FB0AFACDF800A0D3F80CB0D4F814A0ABEB0A0ADDF800B046F80BA0AE
:2025700094F806A008FB0AFA56F80A609E600EF10C06A37908FB03F30EF10C0EF65C06F0D5
:20259000F00646F002060EF803604FF0000ADCF800E0A6790EF1020308FB06F623F806A0AE
:2025B000464BA6791B68760103F1140AD4F814B05AF806A00AEB4B0A03F1140B4BF806A081
:2025D000AD7E022D0BD1A5796D0103F1140697F800B056F805A000FB0BAA46F805A0BD8811
:2025F000D27BA779D60736D508FB07F70EF10802D659A6F5A86A0EF1080646F807A0A7797E
:2026100008FB07F7D2592768511A3961BA6003F11402A1794901575807F5F667575003F1BF
:202630001401A27952018958C9F800106843244AA179156B03EB41162968401AA0F5167057
:20265000F0612049A07903EB40100B78012B14D10121C17214E003F114027F01D1592A4658
:202670004243A1F5E661A2F516729142DED3082120460EF0A9FE012011E0916A4A78C2720E
:20269000A179DCF8000008FB01F281182268516007200D490870204609F010FE0020BDE84B
:2026B000F28F00BF684E0020784F0020084F0020DC2B00205C4D0020804E0020844E0020C6
:2026D000A4250100734F00206F4F00202DE9F84F0C46E00788B00BD50EF08EF928B1002133
:2026F0008160B348006800B1804784F001005CE1A0070FD500210023069105910491039335
:2027100002910191009101223C200EF059FE84F002004AE11D256007A64EA74F40F18A80B0
:20273000002107918B46A5488178FF2904BF00200DF050FE386890F8A0000EF077F88046C8
:202750003868C07A98F82691022818BF032808F5907A06D106F10D000EF02EFE08B906F158
:20277000070B514648460EF023FE88B33868807A002818BF012804D1314650460EF014FE04
:2027900004E05246494630460EF00AFEFF2834D005FB00F906EB090506225146E81D0DF0BE
:2027B00049FF16F80900396840F00209E81D07900622887E00F0010088F8260105F1010A6B
:2027D000386800F1140108F590700DF033FF14E0514648460EF0E0FD78B15246494630465D
:2027F0000EF0DEFDFF2808D006F10D01454348190EF0E2FD08B949F0020908F12C004B466B
:20281000017806914289120905920122B8F822100491C0880799029140080390CDF804B0B2
:20283000CDF800A0002098F806100EF0C9FD84F00400BAE020060FD500210023069105910C
:202850000491039302910191009101223B200EF0B7FD84F08000A8E0E0044BD5F11D06F1D2
:202870000D000EF095FD3868017A012918BF042931D1C17A02291EBF0329817E01292AD1CD
:20289000817E00F1140230460EF08AFDFF2811D04543354405F10D000EF08EFD50B9E91D83
:2028B00005F10D000EF074FD38680622E91D14300DF0C0FE3868C07A022818BF03280AD1E8
:2028D00006F10D000EF078FD28B938680622F11D0C300DF0AFFE3A4842683A4800784FF46B
:2028F00080510BF0CFFD10B18E2009F075FB84F480505AE0A00505D50EF03DF93249012087
:202910000860FEE7600504D506F09BFD84F480604BE0600405D5812009F05EFB84F48040A2
:2029300043E0A10440D5294D286810B100200DF051FD274E4FF0FF3028600EF025FD316854
:20295000244D51F8202F684690472349234B486A8A6A009001920293C86A0268086A0392FE
:20297000ADF810000A6B1178002904BF5068002805D19068002804BFD068002806D0297040
:20299000506868609168A960D068E86029463568134A2E6813486B46B0471349086004F06B
:2029B00019FB84F4005000E0002009B0BDE8F08F204F0020AC450020104F0020684E002059
:2029D000784E00206E4F0020FC002043044F0020F04E002068450020B81F0020F90901002D
:2029F0002C4D0020882A0020EC4E00202DE9F04F09AFADF13C0D08900A92388809911E461C
:202A1000ADF81800101C08BF002000F07581017800274FF0010B401C4FF0FF39B846DA4614
:202A30000A9061E1252940F056810178401C0A902D2918BFADF8068004D10178ADF806B0E5
:202A5000401C0A9030291CBF4246434604D10178401C5A465B460A902A29CDF800804D467B
:202A700017D1049330680A9BCDF80890C01C20F00300001D306050F8044C1978002C0094A8
:202A900003F101000A9018D5ADF806A06442009413E044460AE0600000EBC4004018A0F1C6
:202AB00030040A9801780094401C0A90302901DB3A29F0DBCDF8089004932E2929D101780C
:202AD000401C2A290A9011D13168CDF80880C91C21F00301091D316051F8045C002D48BF47
:202AF000454601782B46401C0A9011E0454643460AE0680000EBC5004018A0F130050A9894
:202B100001782B46401C0A90302901DB3A29F0DB02930AB1224604926C2904D04C2918BF5F
:202B3000ADF8048004D10178ADF804A0401C0A900BA8CDF80C800FAB07906429059300F065
:202B5000828069297FD0BDF818C075296DD0782969D06F2965D070294ED063293ED0732986
:202B700022D00A98401E0A90099801281AD966490C68B5F1FF3F03D0A84288BF6D1C05D88B
:202B90006FF00041814294BF0D1C099D029508A80AA932466B46A04709993F18091A0398DF
:202BB000099165E0454617E03068C01C20F00300001D306050F8040CBCF1010F014608B953
:202BD0004FA0014607910DF063FE0390B5F1FF3F4FD0A8424DD9039528464AE03068C01C6F
:202BF00020F00300001D306010F8040C8DF82C005D46039558463CE0082035680490E81CEA
:202C100020F00300001D306050F8041C082210230FA809F0EBFE401E079040210170079820
:202C300023E0082302E0102300E00A233068C01C20F00300001D306050F8041CAA42BCBF31
:202C50002A1C04920DE03068C01C20F00300001D306050F8041CAA42BCBF2A1C04926FF05D
:202C700009030FA809F0C2FE07900599081A0390009C241ABDF8065000945DB906E008A8B9
:202C9000202109AA0CF035FF7F1C009C641E0094F5D50398401EB0F1FF3F03900FD1BDF8E9
:202CB000060001281CD10098401E009018D408A8202109AA0CF01DFF00987F1CF4E707980D
:202CD000017809AA08A80CF014FF0798401C079003987F1CDEE708A809AA0CF00AFF7F1C69
:202CF0000A980178401C0A9000297FF49BAE089808B14146017038460FB0BDE8F08FC04616
:202D1000286E756C6C2900C088250100BB482DE9F84F0025BA4CB849056094F8E2000028A2
:202D300000F06581012800F02F81B64E02283CD0032840F05C8151F8250CD4F8B81000293B
:202D5000A0F5C060C4F8D400B8BF49420028B8BF4042814226DA4FF08057D7F8A401456801
:202D7000B4F8BC0030214FF47F42082300903046A847D7F8A4014568B4F8C00004214FF471
:202D9000F802122300903046A847D7F8A401B4F8D070456820214FF440620A233046009792
:202DB000A847012584F8D8501CE151F8258C0DF0E2FE2F4600B901273946934F38680028F7
:202DD000FCD0B146012609F10409D9F82CA03E6009B10DF0D6FECAF30720C4F8BC000DF0D3
:202DF000CAFEAA4600B9B2463B68002BFCD0D9F800B0BAF1000F3E6001D00DF0C2FECBF39B
:202E10008440C4F8C0000DF0B6FEAA4600B9B2463B68002BFCD0D9F81C90BAF1000F3E60A1
:202E300001D00DF0AEFEC9F38120C4F8D000B8F5C061C4F8B81000F09C8094F8D80068B93C
:202E5000C4F8D410D4F8C000C4F8C800D4F8BC70C4F8C470D4F8D030C4F8CC30D4F8D400A6
:202E7000D4F8BC30002854BF02226FF0010204F1C8010F6800EB40008018421000EB927290
:202E900007EBA2000860D4F8C810C4F8C43000291CDD1E293CDDD4F8CC0030B93429B4BFFF
:202EB00015391E21C4F8C81025E02A29BABFD4F8C8000B381E20C4F8C800D4F8C4003F2880
:202ED000B4BF401C3F20C4F8C4001FE0D4F8CC00032812D011F10B0FC6BFD4F8C8000B3020
:202EF000301CC4F8C800D4F8C4000028C4BF401E051CC4F8C450032508E011F1150FC6BFAD
:202F1000D4F8C8001530301CC4F8C800C4F8CC504FF08057D7F8A401B4F8C43030214FF462
:202F30007F424568374800930823A847D7F8A40104214FF400321123456832480096A847F9
:202F5000B4F8C860D7F8A40104214FF4F802122345682C480096A847D7F8A40120214FF4E4
:202F700040620A23B4F8CC60456826480096A84701E084F8D85040F2FF50404502D8801CF9
:202F900040452FD2082030E051F8251C1F4F4BF2F5204843060A3868C0F3814001280CD164
:202FB0001B480068006880470BF0B2FC0DF0EFFD3111C010484306EBE03694F8E50030B977
:202FD0001448006820F07F403618760801E084F8E5501148310C0660012741600F4D8760E8
:202FF000287808B90B2000E0052084F8E40003F099FDBDE8F88FC0462D400C402C500C4094
:203010008C18002000A00C4000800C40B43F0050EC010010102009403C600C40E52301007A
:203030002DE9F84FB34D696884B0019121B905B0BDE8F04F0EF0A4B90978DFF8BC82AF4E2B
:20305000DFF8BC92DFF8BCA201291CBF0229042946F2A81741F64C5B05D0402918BF802916
:2030700000F096803CE10DF0C3FD0028FAD00198007805F0F1F80090446814B900200DF059
:20309000A9F99AF8010000285CD000F043F90DF0CDFB02900168009801914F6809F0ECFDE8
:2030B000022825D000990A78012ADBD196490A68137A19F80310317018B90EF05DF958448B
:2030D000A0602069C17E01F0EF01C1762069C17E41F08001C1762069C17E01F0F00141F074
:2030F0000201C1762269B96888484118D1614BE001980178802911D10820854930700A789F
:20311000012A03D09AF80100022801DB38690CE0D8F828003A690178D1720DE07C4907204B
:2031300030700A783869012A02D10121C17203E0D8F828104A78C2720298817901988AF8D9
:203150000210C8E0009800288CD00199009A0078914205D101281CBF00200DF03BF915E0EA
:20317000012840F0BD80684801680A7A19F8020030700EF001F93918A0680EF0F9F818B948
:203190000EF0FAF85844A0600120A8700098A2E09AF8010000287AD000F0BCF80DF046FB59
:2031B00004462068029047689AF802000DF03EFB03900DF023FD10F0070F3DD0A87805F03A
:2031D0004BF80190416801980091029909F054FD022831D001990A78012A2AD14A490A68E1
:2031F000137A19F80310317028B90EF0C5F883440098C0F808B000980069C17E01F0EF01E1
:20321000C17600980069C17E41F08001C17600980069C17E01F0F00141F00201C176009A17
:20323000B9683A4841181069C16101210198A97051E000200DF0CEF80398A04225D00298F3
:2032500033490278802A12D1082030700978012903D09AF80100022803DB38690121C17204
:2032700010E0D8F828003A690178D1720AE0072030700978386901290EBF0122D8F8281002
:203290004A78C272A0798AF80200029823E00DF0B5FC10F0070F29D0A87804F0DDFF0446F7
:2032B0002078D4F80480012820D117490868027A19F8021031700EF05FF83918D8F808006E
:2032D0000EF056F820B90EF057F85844C8F808000120A870204605B0BDE8F04F06F09ABE82
:2032F00005B0BDE8F04F00200DF074B805B0BDE8F08F00BF902B0020A42501006F4F0020C1
:20331000289A0110684E0020104F0020F0D8FFFF734F00202DE9FE4FB24C617811B90020A9
:203330000DF058F80EF028F84FF00008074607F6C417C246AC4DDFF8B49228E050460DF0ED
:2033500075FA06467079F0B12968B07901F80800394608F101005FFA80F830460EF004F8A3
:2033700030680178402902BF06F182000178012902BF41887289914205D1B169C0884118FD
:2033900030460BF0A5FC0AF101005FFA80FA99F800008245D2DB6178884505D000200DF09F
:2033B00019F882200DF0DCFF6078012840F0F180002701E07F1CFFB299F80000874280F2B0
:2033D000E28038460DF032FA064670790028F1D02968B0790A7890421CBF00200CF0FAFFB8
:2033F000B079FDE0286810F809000DF01FFA00684268DAF808109068814204BF3E4609F108
:20341000010900F0D480D6E0286890F800B001224FF4C0710FE0636803F5AD76835C01FB89
:2034300003F901FB0BFE36F809C036F80E60B44538BF9B46521CFBB29A42ECDB4FF6FF70A5
:203450000DF08AFF064658460DF0F0F968490068D0F804A00868D94630F8192060684FF486
:20347000C07300F10E0103FB09F3C85AB2EBD00F52D2720840F6C4104243009200275D4AE4
:203490000190029217E058460DF0D0F901680A78802A03D1DAF81030009A5A6109784029E2
:2034B00008D1029980790A6802EB4011009800F5A060C8617F1C47452EDA2868C05D834585
:2034D000F8D001464FF4C073594363685A1803F5AD73D289595A53088B4202D2521A90451B
:2034F000E8DA0DF0A3F901684A68019B9168DAF808207008A1F6C41103FB00200DF038FF81
:203510000028C0D03A48006830F81910491C20F81910286810F807B0296808780DF086F926
:203530000026006847684FF4C079464551DA2868805D0DF07BF90068296842688B5D6068DB
:2035500009FB03F3034403F18201087830B15889B1F802C0401C80B2604508DA887B0128B5
:203570000ED15889098A401C80B2884208DB6EB3B968906801F5C241A8310DF0F9FE28B3D2
:20359000761CF6B2D1E700200CF024FF82200DF0E7FE617828680DF0DBFE286800780DF022
:2035B00045F900260068D0F804A04FF00109771CC145FFF617AFF6B2002E1CBFF8B20028A3
:2035D0007FF422AF286890F800B037E7296811F806B007490A6800205B4622F81300584613
:2035F000BDE8FE8F684E0020004F00207B4F0020BC2B0020844E00202DE9F84FDFF8B8A2D3
:203610000F460446F80B80F00B81A64EDFF88882B80F80F0BC80B80880F0B0803809C0F063
:20363000318108200DF0CCFA002840F0A28080200DF0C6FA002840F09C80684607F0D6FB1C
:20365000012803D10098002800F0938091480078002840F08E8000250124E8B20DF0DCF82E
:2036700048B1837A3BB1847290F9090004FA00F0C0B20BF09FFB6D1C032DEED345464FF097
:20369000030905F1AC0085F810900DF05EFB8348002301680360824950F8082C98461A46BA
:2036B00040F8088C05F134000DF05BFB3068006B8047A968401A010BA869C1F1FF328242B8
:2036D0002CBF08444FF0FF30A861287F20B1E868A969B1EBC02F1ED90CF05CFC414600B144
:2036F0002146081C14D0704840F60901018041464180427B64F303024273027B61F30302E6
:20371000027341600DF050F9418811F4406FFBD02C774146A9616548016821F0020141F462
:2037300000710160624941F8049C41F230028A600C6050268E600C604FF4CA628A600C60D3
:2037500041F80C4C4446046002200BF0EBFC112006F002FC287818B9686838300DF00DFB03
:20377000687F18B16C7705200BF0DCFC514868612C7409F04DFD27F0080783E005F0BEFA33
:2037900045467435286808B927F002077AE00DF0E2FAB3468146DBF85400016804208847FE
:2037B000D8B1207CC8B1454608352868A8B10646DBF80000E568006B8047801BE060000B26
:2037D000E060A84202D240194008E06040F6C41181422CBFB0F5FA7FE16048460DF0B4FDA6
:2037F0000BF0CCFA90B1A56920466FF4807100224FF00073A847464606F16C052868002880
:2038100008BF47F0020701D009F002FD2046646900214FF080630A46A04727F0005731E09C
:203830000DF099FA51460E6846B306F1280106C90A234FF0E0450B40154008BF002B1DD1E2
:2038500006F1280191E8300006F1280393E8060006F12803AA43A14383E806000DF074FD1A
:20387000B16869B1002D08BF002C09D030692246B6F93C10B4682B46A04701E00DF064FD5D
:2038900027F4804727B15046394650300DF07DFABDE8F88F89240020F022002014100440C2
:2038B0000DD500008C0100104C2B0020000004600C410440299D0000702300202DE9F04F1F
:2038D000DFF8A4B2804609AFFF200E461C460025ADF1240D97F8049007903F8830780592A4
:2038F000022805D17068008842F60211814273D030460AF097F95FA3069018B3401E0ED068
:2039100028460090019040F2262102900322039051A304904CA006F03DFF0A2091E066A0FE
:203930000090CDF8048040F2212102940122039745A0CDF8109006F02DFF5946142001F1A6
:20395000040911E05EA00090CDF8048040F213210294012203973CA0CDF8109006F01AFF79
:203970005946282001F10209B84214DD07EB040A50450ADBF06805992246C01907F0D2FAF4
:20399000A9F800A00698079013E0284640F231214DA30D2504E028464FF40B7153A3072567
:2039B00000900190029003900322049026A006F0F1FE0798FF280DD0DBF8080050B1066860
:2039D00046B1E419A0B20090069A059B41F230114046B047284634E0B9F1FE0F0CBF0FF2CB
:2039F00030190FF2481930460AF01CF900904FF4FC71CDF804800122CDF808904EA30395F5
:203A100011A0049506F0C6FE009703200190059A23463146404609F039FB594608310F68C6
:203A3000051C0DD167B1786850B130460AF0FAF800947C68059B024641F230114046A047DB
:203A5000E8B209B0BDE8F08F646174615F736572766963652E6300C0417474726962757455
:203A70006520776173206E6F7420666F756E642E00C046C05772697465417474724342207A
:203A90003A20257320636F6E6E48616E646C6528256429206C656E28256429206F66667329
:203AB000657428256429206D6574686F64283078253032782900C04653747265616D00C078
:203AD000537472696E6700C0496E76616C69642076616C7565206C656E677468207761738E
:203AF0002072656365697665642E00C0416E20696E76616C6964206F66667365742077610C
:203B100073207265717565737465642E00C046C02D20726573746F72696E6720626F6E644F
:203B3000656420737461746500C046C02D204F5441207772697465005772697465417474F5
:203B5000724342202843434344293A20706172616D3A20256420636F6E6E48616E646C6578
:203B70003A20256420257300101B00202DE9FC41A0F2013714468846022F40F232819B4E0B
:203B90009C493F1F0F2F04D9143F4CD0BF1E1CD011E0DFE817F0CF00C9000D01FA00C1005F
:203BB000B9002601AF00A700100010009D008F007F00740066002D2880F21381B8F1020F05
:203BD00040F00F818849238807E1B8F1010F40F00881F078012800F004813246207811799F
:203BF000107189B9002800F0FC805078012800F0B580042800F0B280062800F0AF80052880
:203C100000F0AC80BDE8FC812078002840F0E9805078032800F0AF80072800F0AC80052873
:203C300040F0DF80A7E0B8F1010F40F0DA802078012840F0D68006F1EC000CF0C5FE00280A
:203C500040F0CF803446002004F13A0107F07EFF002840F0C68004F1C8000DF09AF8BDE808
:203C7000FC81B8F1020F40F0BC8020880A28C0F2B880B0F5486F00F3B4808E1C17E0B8F100
:203C9000020F40F0AE802088B0F5FA7F80F2A9800E460CE0B8F1020F40F0A3802088062821
:203CB000C0F29F80B0F5486F00F39B803E363080BDE8FC81B8F1020F40F0938020880628A0
:203CD000C0F28F80B0F5486F00F38B803C36EEE7B8F1010F40F085802078062880F281804B
:203CF000454E0EE0B8F1010F7BD12078042878DA0A3606E0B8F1010F73D12078082870DAE3
:203D100009363070BDE8FC81B8F1010F69D12078042866DA0836F4E7B8F1010F61D12078FF
:203D300004285EDCF61DECE7B8F1020F59D120880E36BCE7B8F1010F53D13079012850D0E5
:203D500032462078D178D07069B9002849D05078012803D0042818BF052842D101200CF033
:203D700063FEBDE8FC81207800283AD15078022818BF052835D110780BF030FD1C4902468C
:203D9000102003F05FF8BDE8FC8106F1830500211F22284608F01CFA21464246284607F0C6
:203DB000C1F844463078B4710BF018FD002311E006F1640500211F22284608F009FA21462D
:203DD0004246284607F0AEF84446307874710BF005FD01230094094901950246102003F021
:203DF00031F8BDE8FC81C0466DF20000F010002099450110301100202A11002009450110D9
:203E10002DE9FC418E488F4A04788F488F4B90490D2C6FD8DFE814F012010E000E000E0002
:203E30000E000A010A018E000A01C900C900E700E700EE00106041F204478648864DB0F830
:203E500002C08649BC451FBFB0F81AE0BE45B0F83280B8454FF4A0561ED181480068D0F8C5
:203E700000C09CF8040003280CF1080E0BD1DEF80E0000281CBFBEF81800002803D01F8071
:203E9000784911608AE0022C1CBF1E800D46156000208CF8040081E0BCF1000FA3F800C0E7
:203EB00041D0BCF1010743D0B7F1010C3BD040F2FE37BCEB07071ED0A7F1040CBCF1010FEA
:203ED00020D94FF47F77BCEB070C1DD04FF44067BCEB07070FD0BF1E012F0CD93F1F0AD051
:203EF0007B1E012B0ED940F2F937DB1B012B1AD91B1F09D09AE0022C01D115604EE01E80C1
:203F10000D46FAE7584DF8E7584B1C68257A012D05D141F20243438043834386F0E74680A8
:203F300046834686ECE700200CF054FA832081E08F207FE04E498978FF290CD01060182049
:203F50004C4C41432068851C40F204466C5A1C80A41B012C484B71D94FF47F76A41B0FD08F
:203F70004FF44066A41B032C84BF641F012C0BD9A41E012C62D940F2FD36A41B08D103E079
:203F9000801C41F201444452136005F005F905E000200CF01FFA85200DF0E2F9BDE8FC4188
:203FB00036480078012105F077BF40F204424888188090421CBF41F2084290423ED041F68D
:203FD0000402904211D12E4C2E482F4B00680025CDE9004502222D4C256855F8086FB04740
:203FF0002B4908802AE04888188000200CF0F2F985201FE04888188002280DD940F20442A8
:20401000801A1BD040F6FC72801A05D0083815D04FF47F72801AE8D1887B801CC2B2B52A5A
:20403000A8BF662088730020488007E000200CF0D1F98420BDE8F6410DF092B9BDE8F381F2
:204050006F4F0020204F00202B0D0100504F0020CC4C0020204A0020B1540110615A011047
:20407000F44B002059550110755B0110104F0020684E0020804E0020313901106E4F002096
:2040900002000080EC4E002005F20000F04E0020424F00202DE9F04F894609AFDFF884B245
:2040B000D9F80400BC8899F800801E46ADF11C0D0BF10C0106923F88059042460BF078FEA5
:2040D00000250FF25C1A002836D1A846CDF80080CDF8048050464FF4CD71CDF80880012202
:2040F000CDF80C8050A3CDF8108006F053FB022F12DC2846009001904FF4D17102900122EB
:2041100003904FA30490504606F044FBC7F10200A042D8BF84B270E040F29D1151A3CDF859
:204130000080284601900290039001220490504606F030FB07256EE005980BF11C014246A5
:204150000BF036FE48BBA846CDF80080CDF80480504640F2A911CDF808800122CDF80C805E
:2041700049A3CDF8108006F015FB022F11DC28460090019040F2B11102900122039048A314
:204190000490504606F006FBC7F10200A04232DD33E04FF4D6714BA3C1E705980BF12C014A
:2041B00042460BF005FE002833D1A846CDF80080CDF8048050464FF4DC71CDF8088001222B
:2041D000CDF80C8048A3CDF8108006F0E3FA022F4BA31BDCCDF800802846019002904FF43C
:2041F000E071039001220490504606F0D3FAC7F10200A04201DC82B200E022463280D9F843
:204210000C100698C91906F08DFE04E040F2BB1185E735800A25284607B0BDE8F08FC046F0
:204230006D794163632E6300536574506172616D6574657220696E206D796163637800C0C7
:20425000536574506172616D657465727820696E206F6666736574206973206C6F77657226
:2042700000C046C0536574506172616D657465727820696E206F6666736574206973206207
:20429000696767657200C046536574506172616D6574657220696E206D796163637900C0D0
:2042B000536574506172616D657465727920696E206F6666736574206973206C6F776572C5
:2042D00000C046C0536574506172616D657465727920696E206F66667365742069732062A6
:2042F000696767657200C046536574506172616D6574657220696E206D796163637A00C06F
:20431000536574506172616D657465727A20696E206F6666736574206973206C6F77657263
:2043300000C046C03C2001002DE9F04F8246DAF80070DAF804600C465FEA0208ADF11C0D49
:2043500014BF00214FF0FF31DFF8409248460CF0D0FA002818BF0B2040F0158100258F4801
:204370008C4905708A48FC6052460CF0FAFC317B27200CF0F8FCB8F1010F07D065700220C1
:204390000BF0B2F806200BF0AFF801E0012060702078012840F2AA80801E012868D9801E0B
:2043B000012833D9801E012800F2DE800CF0D3FC83464FF0805000F5EE77D0F8DC01A378E4
:2043D000466A009321782846062908BF0120019001200290A068228AE1686368B0478146A2
:2043F00058460CF0B1FFB9F1000F40F0BF80B8F1000F02D00CF0EEF802E050460AF048FF16
:20441000002800F0A3803868806A2AE00CF0A3FC83464FF0805000F5EE77D0F8DC01012327
:2044300006680093A168A27860682478AC46042C08BF9C466346B047814658460CF084FF95
:20445000B9F1000F40F09280B8F1000F02D00CF0C1F802E050460AF01BFF002876D0386878
:20447000406880474C49C1F8B0510D6081467DE00CF071FC83464FF0805000F5EE77D0F87A
:20449000DC01E38A86690093E0680190208B0290A0780390207D049001210591227828468E
:2044B000022A08BF081CE1786268A368B047814658460CF049FFB9F1000F57D1B8F1000F6E
:2044D00002D00CF087F802E050460AF0E1FE00283CD03868006A80475FEA000946D1E07868
:2044F000A168E28A236907F075FBBFE70CF033FC83464FF0805000F5EE76D0F8DC01E38A30
:20451000C7680093E0680190208B0290A0780390207D2946049001200590257805B9014610
:2045300008466268A368E178B847814658460CF00BFFB9F1000F19D1B8F1000F02D00CF05C
:2045500049F802E050460AF0A3FE08B914201AE03068406980475FEA000907D130680269D3
:204570002169E078904781E74FF0FF39B8F1010F05D002200AF0D6FD06200AF0D3FD0348DB
:204590000CF0FBFB484607B0BDE8F08F281E0020601E00202DFB000050450240E42B00207E
:2045B000F0B507460020ADF11C0D0E46044664A500900322019464A30294DD210394284681
:2045D000049406F0E7F864A3B81E09D0801E00F09F80401E7ED0401E5ED0401E3CD01BE05E
:2045F000012E0CD00094019428460294F02103940322049406F0CEF8F1215AA394E000943B
:20461000019428460294EB2103940322049406F0C1F8EC2158A387E0009401942846029446
:204630004FF4847103940322049406F0B3F800942046019040F2091102900322039054A325
:204650000490284606F0A6F801208DF817009DF817000028FBD171E00094019428460294D9
:204670004FF4817103940322049406F093F800942046019040F203110290032203904AA318
:204690000490284606F086F801208DF816009DF816000028FBD151E00094019428460294DB
:2046B000FC2103940322049406F074F8009420460190FD2102900322039040A3049028463F
:2046D00006F068F801208DF815009DF815000028FBD133E00094019428460294F62103942D
:2046F0000322049406F056F8009420460190F72102900322039036A30490284606F04AF8A9
:2047100001208DF814009DF814000028FBD115E00094019428460294E321039403220494B8
:2047300006F038F8E4212EA30094204601900290039003220490284606F02CF807B0F0BD18
:204750006D61696E2E6300C03E3E3E535441434B20415353455254002A2A2A4552524F5229
:204770002A2A2A003E3E20494E5445524E414C204552524F522100C03E3E20494E54455209
:204790004E414C204657204552524F522100C0463E3E2044454641554C54205350494E4C59
:2047B0004F434B2100C046C03E3E2057524F4E47204150492043414C4C2100C03E3E204900
:2047D00043414C4C2054494D454F55542100C0463E3E204943414C4C2041424F5254210085
:2047F0003E3E204F5554204F46204D454D4F5259210070472DE9F04385B011F8017B044642
:20481000082F04F1FD0004F1FC0804F1760504F5A076844A844BDFF8149213D0092F21D0C1
:204830000F2F2FD0112F01BF287801286878102840F0D5800A78327648787076012184F857
:204850003D11EBE00025521C4E5D5F5D3E434E55575D3E4046556D1C082DF5DB204608F058
:20487000D5F974E00024571C0D5D1E5D35430D553A5D15400555641C082CF5DB022088F844
:204890000000CBE098F80100820704D410F0110F57D01A2266E008784A7800EB02203080A3
:2048B000CA78887800EB022070804A79087900EB0220B080CA79887900EB0220F080087AE5
:2048D00030724A7A887A02EB00227281C87A0A7B00EB0220B0818A7B487B00EB0220F08113
:2048F0000A7CC87B00EB022030828A7C487C00EB022070820A7DC87C00EB0220B082487D88
:20491000897D00EB0120F082494801788A0658BF1A2212D504F5A670049071890391307A54
:20493000029021890191F0880090B38872883188204607F061FEE0B11E2298F8010041073D
:2049500010D40F2088F8150020460CF0F9FC002864D199F8000005B0BDE8F0434FF48041C9
:2049700005F09ABA204605B0BDE8F0430F210CF0E3BC7088A882B188E9820221F088288314
:20499000297400206882A18EA88AC91DE981618EB0EB510F02BFE88AA18E884202BF288B25
:2049B000E18EB0EB111F18D02878012804BF68780F2805D0687918B10F21A972FE2127E032
:2049D000FC2120460CF0B4FCF0880090B38872883188A0790CF0A8FC20E0102118E0491E59
:2049F00020460CF09DFC032F18D1A878042818BF0D2813D16E78142E18BF0E2E0ED12F7894
:204A100020460CF089FC012F06BFAE72FD213146204605B0BDE8F0430CF08ABC05B0BDE866
:204A3000F08300BFEC4D0020AC2B00206E4F0020144E002010B50B7884074CBF43F002036F
:204A500003F0FD0304064CBF43F0800303F07F0304074CBF43F0080303F0F70384064CBF3D
:204A700043F0200303F0DF0310F0AA0F0B7003D0107840F00C0003E018B9107800F0F30011
:204A9000107010BD2DE9F8430D4600272878022814461E4667D1696808784978DDF82080A7
:204AB00000EB012080B25FEA08021CBFB0F5285F0B205BD14FF42851401A08D0401E21D0BA
:204AD000401E2FD0401E25D0401E31D04BE0DDF82490E8680CF067F980B2A0EB08024A4501
:204AF000BCBFA0EB08001FFA80F909EB0800162806DAA6F800904A46E86800EB08010DE0FD
:204B10000D2732E0E8680088022131802070000A60702AE0062030800622E96820460BF06F
:204B300089FD22E001203080E9680A7822701CE0E868B0B1082131800288227003881B0A54
:204B500063704188A1704288120AE270818821718288120A6271C188A171C088000AE071CE
:204B700003E0308001E0378001273846BDE8F2832DE9F0470F4681463878002402289046FD
:204B90001D466DD17868089E01784078DFF8D8A001EB002189B24FF42852891A06D0491E79
:204BB00029D0491E4ED0491E39D059E0F8680CF0FAF880B2B04204D3A919162903DB0D2465
:204BD0004FE007244DE0FB682A46414698190BF031FDAD19F868ADB2C5F11602002140193D
:204BF0000CF0DFF8DAF8000000281CBF0268002A37D0002123E08EBB022DE0D198F8000085
:204C100098F80110FA6800EB01201080DAF8000000281CBF0268002A23D001210FE0EEB9D1
:204C3000062DCCD1F868062241460BF003FDDAF8000000281CBF0268002A12D0032148468D
:204C500090470EE056B9012DB9D198F80000002813BF0128F9680870802402E00B2400E097
:204C700001242046BDE8F087CC2B00207CB5894D144602460026A2F58062182A1AD8DFE823
:204C900012F0FE00F800F100E900E200DC00D500D0001900C500BE00B700AE00A300190012
:204CB000190080006F00680054004C00420039002C0024002D2880F28580022940F08280E0
:204CD00021880AF0CBFA0646E1E0012940F0DE80002C00F0DB801135A6E0102940F0D68095
:204CF000002C00F0D38028465030102221460BF0A1FCCCE0012940F0C980002C00F0C68065
:204D100029468D1D90E0262940F0C080002C00F0BD8005F160002622E8E7012940F0B680E5
:204D3000002C00F0B3806D1D7EE0602900D13CB9012940F0AB80002C00F0A8800D3573E07F
:204D500005F18600214660220BF074FC012068739DE0012940F09A8020780CF0D9FA96E0A9
:204D7000012940F093802078022800F38F800C3528702078022814BF301C01200CF0C4FA5D
:204D900085E0072940F08280611C684606220BF04BFB20786946324605F058FC04460A2C20
:204DB00010DA0CF0ADFA38B9204603F07BFB0AF069FF08F08FFD6AE02A46012002F12C05B1
:204DD000285564E0022662E001295FD1A87B21780028A9735BD12078012858D1E9E701292E
:204DF00054D12478072C51DB102C4FDC0B3537E001294BD124780A2C48DA093530E0012913
:204E100044D12478022C41DA083529E000293DD10CF076FA10B90BF0A1FCC8E701240F3526
:204E30001EE0012932D10A35247819E001292DD12478022C2ADAED1D12E0102926D12B46D0
:204E500003F1400051E7012920D12478022C1DDA2D1D05E0012919D12478042C16DCED1CF0
:204E70002C7014E0012911D12478022C0EDAAD1CF6E702290AD120881435288007E001297E
:204E900004D12478022CD8BF6D1CE9DD182630467CBDC046041600202DE9FE4F05467B48DF
:204EB000002400680094C00905D37948007810B920200AF007FA012D40F0E280DFF80092BB
:204ED000D9F8DC00012840F0D8800220C9F8DC000BF020FB01200AF0F5F95FEA000805D060
:204EF0000120C9F8DC000BF021FBCBE00BF049FFA34602906748684DC0F800B0A86A01681D
:204F100001208847012804D1584607F0EBFE012000906248624FC0F800B0386811200BF0D5
:204F300049FE00B1012410200BF044FE08B144F002040F200BF03EFE08B144F004040B205E
:204F50000BF038FE20B12868564E016B308888470A200BF02FFE20B12868534E016B3088A0
:204F700088475248012606602868816944F0200088474F4806600BF017FE00F001010191FD
:204F9000400814D2286A81684A4888478246BAF1040FF7D0BAF1010F04D1286A4268454851
:204FB000032190474449086820F003000860584600F088F82B683868986B804701980128A1
:204FD0000CD0BAF1010F04D1286A42683948314690473949086840F0030008602F480660E0
:204FF00028684169204688470B200BF0E3FD20B128682C4BC16A188888470A200BF0DAFDBE
:2050100020B12868284BC16A18888847274806600322C9F8DC20264BC3F800B02868416B43
:20503000204688470128F9D1386804200AF04AF90446184806603868144800688009FBD36C
:205050000098012802D1304607F04CFE0BF099FD08200AF037F907460298C9F8DC600CF032
:205070004BF91648008807F071FB0BF05FFA57EA040018BF4FF0FF3804E06FF0040801E07D
:205090006FF001084046BDE8FE8FC04614100940741900200C400940B801001000022243FB
:2050B0002C2009400A1F0100061F010028200860800104430040034024220840E02301006E
:2050D0008C1800202DE9F84FDFF804B20746ABF13500DFF8F0810068800880F0E28075482D
:2050F0000068006880477E490831D1F8009000254FEA29715FEA995201F101010AD2C0F103
:205110003E0210F10A0F4FEAE202D8BF08229142B8BF111C684BD3F87C21C2F30462162A5A
:20513000A8BF203A1B68C3F30443162BA8BF203B9A465218162A05DA12F10A0FB8BF6FF0C0
:20515000090200E015225D4B5D4E02F01F0141F4F8511980316811F0030F18BF0125C90827
:2051700028BF45F002050FB145F00405434693F90710411A052904DA9979A94208BF998886
:205190006FD0DFF844E10F28A0F10F0829DB08EB0011A1F1F0084FEA28210091072984BFCD
:2051B00007210091062988BF06215EF821600424774604EB81043C594FEA950CA41BEE0835
:2051D00004F0FF0124BFC4F3072631446F08AE0824BFC4F3074631446E0828BF01EB146148
:2051F00004E000214FEA950C6F080091009C5EF824E05FEA5C060EF0FF0424BFCEF3072645
:2052100034447E0824BFCEF3074634446E0828BF04EB1E64009E89B2A8EB0626714380314C
:2052300004EB1124AAEB02010029D8BF0121342209F0FF074A4391B24FF6FF727943B1FB7D
:20525000F4F18A4238BF111C802889B2998005DA10F1800FB8BF6FF07F0000E07F20D871E1
:205270009D711A4800681F2918604FF0000008D340F2FF128A4206D24908401C8A42FBD33E
:2052900001E01F219980134F0F39090940EAC10047EA0001CBF8FB1F0026CBF8FF6FBDE812
:2052B000F88F0D490D4F434608200F609B1D1870BDE8F88FEC0100103C1100506E62084067
:2052D00024220840B42B00209C130050082009403500094000E7A48030100940FDFDA40011
:2052F000AC3F00502DE9F04F804C0546E06893460F462E1CADF1140D16D0761E06D0009593
:20531000002040F2311139A305465BE00646002047A240F22D1104F1040804F1100914257A
:205330004FF0010A84460AE0002043A24FF4917104F1020804F1240928258446E246009223
:205350000197034602900122CDF80CC023A0049330A305F01FFABD422FDB484659463A4625
:2053700005F0E0FDBAF1000FA8F8007032D0B078002808BF32A103D001280CBF37A13DA118
:205390003088002700903D46012201913EA3029740F24111039511A0049505F0FBF9062067
:2053B0000090534F207804F14C0349462A4601903046029705F04AF80CE0009700204FF413
:2053D000A5713CA30190029503900322049003A005F0E0F905B0BDE8F08FC046646174616A
:2053F0005F736572766963652E6300C0536574506172616D657465723A20506172616D657F
:2054100074657220232564206E6F742076616C69642E00C0536574506172616D6574657209
:20543000203A202573206C656E3A20256400C04653747265616D00C0537472696E6700C09F
:205450001B5B33336D4E6F74692F696E642064697361626C65641B5B306D00C04E6F74692A
:205470006669636174696F6E20656E61626C656400C046C0496E6469636174696F6E206597
:205490006E61626C656400C0547279696E6720746F2073656E64206E6F74692F696E643A0E
:2054B00020636F6E6E48616E646C652025782C20257300C04C656E677468206F75747369AB
:2054D000646520626F756E64733A204C656E3A202564204D696E4C656E3A202564204D61D8
:2054F000784C656E3A2025642E00C046101B00205D7400002DE9F0410446804DA178A8694A
:20551000ADF1180D891F00F0F280C91E00F0DD80491E5FD0491E48D0C91E3CD0481E40F0DC
:20553000E980287A697AB8B96878002831D0A0880BF0DEFE071C00F0DD80A07A40080FD340
:20555000787968B1E168890A0AD2B91D01AA05F07DF80A2804D10321A0880BF0C5FEC9E0D4
:20557000287B022802D1A07A0009F4D3A088797904F1080201F09EFBA869002800F0BA808B
:205590004368002B00F0B68000210A46A0889847B0E00521E0E7002800F0AC804368002BF0
:2055B00000F0A88062780221F0E70BF02DFA002800F0A080A86950B1076847B12069009003
:2055D0006189227B637BE01C3C46A04792E060890121C2E767784FF00008002F66D1A17925
:2055F000490863D3EF69002F60D101A841460E220BF0D7FBA0880BF07BFE071C7AD060695D
:2056100040B97879B91D06228DF80A0001A80BF011F819E06669307C062206F111018DF82C
:205630000A0001A80BF006F807F10C00B91D06220BF000F8B81D062206F111010AF0FAFFC0
:20565000307C40F002007871A079C00839BF387900F0FD00387940F002003871A07900094E
:2056700039BF387900F0DF00387940F020003871A1799DF81120C1F3800010438DF81100FB
:20569000080905D39DF8110040F008008DF8110001A8214600F022FD28B92878022104F0E6
:2056B000FBFB404627E0A8694FF0150810B3436803B3A088627801219847B8F1000F19D022
:2056D000A86943680321424660E7E078211D002204F0BCFF0A280DDA410001EB800004F1E9
:2056F0000C0225300421C0B203F08CFA02E0A08808F0E8FA012006B0BDE8F081041600201C
:205710002DE9F04F044672488E46016894461F46BEF1000FADF13C0D4DD0BCF1000F4AD00C
:205730009EF8002001209040014244D0BCF80000B0F5C15F32D1DCF81400DCF81860654BFB
:20575000DCF81C50DFF890A10B904FF003080DF128090C9618680D95C0F3036B59F8046F34
:20577000CEB10021351F05200B4655F8042FB2F1FF3F10D0924506D0401E01F1040103F178
:205790000103F2D107E0052B05DA705820F4702040EA0B407050B8F10108DFD1C4F804E099
:2057B000C4F808C00BF0D7FA4C4D8046287820B140460BF0C9FD002087E002F023FC484949
:2057D000086840F00200086007A80BF0F5F8002605F1D00007AA4349099609F0F3F84249E1
:2057F00005F5827007AA09F0EDF807A80BF0B4F8FF20192107AB3D4A089005F1340009F07B
:2058100049F83B4A05F150001A2107AB09F042F83849324605F18800134608F0DBF9364931
:20583000324605F1AC00134608F0D4F9334A05F12000042133460AF099F90E2004F0A2FCA3
:2058500005F174000AF0B6FF05F16C000AF0B2FF2E740523EB60072085F898012E77AE610C
:205870006E772849AE60264A69612B781670581C287040460BF068FDB1461FB968460AF0E8
:20589000ADFF6F4638682060388A6082012060747B6813B940F6C4130646E3601A48A06130
:2058B00026746061F86800B1A061B86800B160614946582204F1200006F08AFC04F1380012
:2058D00049460AF00FF86C6020460FB0BDE8F08FD4210840541300500200F844F0220020AF
:2058F000002009406D050100819800000DD5000099CE000085FF00003D03010001DF0000B5
:20591000DE2B0020299D00005BA600002DE9F0477C4C2369E5680F4691460FF2D40A011C71
:20593000ADF1180D11D0491E07D000220746154640F2471133A328464DE043A040F2431147
:20595000A61D04F102081D4605E041A04FF49C71261D04F1010800900197002002900122BE
:20597000039032A30490504604F014FF022F2CDA5FB3404649463A4605F0D4FA3780A87806
:20599000002808BF34A103D001280CBF39A13FA12888002700903E460122019140A3029796
:2059B00040F2571103965046049604F0F3FE07200090554F207804F1140341463246019000
:2059D0002846029704F042FD0FE0012200204FF4B0713EA31546009701920446029503227B
:2059F00003905046049404F0D5FE06B0BDE8F087627574746F6E5F736572766963652E63C0
:205A100000C046C0536574506172616D657465723A20506172616D657465722023256420FC
:205A30006E6F742076616C69642E00C0536574506172616D65746572203A202573206C6517
:205A50006E3A20256400C046425554544F4E3100425554544F4E30001B5B33336D4E6F744C
:205A7000692F696E642064697361626C65641B5B306D00C04E6F74696669636174696F6E31
:205A900020656E61626C656400C046C0496E6469636174696F6E20656E61626C656400C098
:205AB000547279696E6720746F2073656E64206E6F74692F696E643A20636F6E6E48616E29
:205AD000646C652025782C20257300C04C656E677468206F75747369646520626F756E6469
:205AF000733A204C656E3A202564204D696E4C656E3A202564204D61784C656E3A20256439
:205B10002E00C046581C0020FD7200002DE9FE4F0E468246307AC10693461F464FF00009C8
:205B30000CD558460BF0DCFB030000F0E8800A223146504698475FEA00094DD130780C9DD0
:205B50000D9CDDF8388002281AD170680178407801EB002189B24FF42052891A012910D92E
:205B7000891E3AD0491E14D0FD397AD0491E00F08180491E6DD0491E73D0491E00F0958087
:205B9000ABE0002C2AD1F068017829800278416887E0002C22D101202880F1680A783A70D2
:205BB00000217089401C80B20BF096FB298860B10278921C51182980418979704289120A0B
:205BD000BA7041680278F81C6CE0091D298004220021781C0BF0E5F893E0002C66D1F06858
:205BF0000688042129803E70320A7A700DF1020130460BF071FB040021D0D4F80C80BDF885
:205C100002204FF6FF766B4631460BF061FB40B9237862683C4802210BF056FB08B9ADF862
:205C3000006098F8000002280BD1D8F804100222381D0AF0FFFC2888801C288001E0ADF892
:205C50000060BDF80000B870BDF80010090AF97057E0002C2AD1F068016850460AF06CFE9D
:205C700002E01CBBF0680088022129803870000A787046E0F0680BF096F880B2A042B8BF83
:205C90004FF007093DDB844208BF002205D008EB04028242B4BF4246021B2A8092B2F068EE
:205CB000011938460AF0C6FC2BE014B14FF00B0927E0F0680721298002783A7043787B7063
:205CD0004188B9704288120AFA7001793971C2887A71C088000AB87113E058460BF0F0FA28
:205CF0005FEA00090BD00F980290CDF8048000942B463A4631465046C847814601E04FF05D
:205D10000E094846BDE8FE8F8E2101002DE9F04F09AF3D7981461C468A460846ADF1240D13
:205D30003F88069208F01EF80026FF214BA3DFF8C8810790089108B3401E0ED03046009065
:205D5000019040F2EB110290032203903CA3049037A004F01FFD0A2066E051A00090CDF81A
:205D700004904FF4F37102940122039730A0049504F010FD404600F1040B0FE04AA000902C
:205D9000CDF804904FF4EC7102940122039728A0049504F0FFFC404600F1020B05901FBB64
:205DB00007EB0408B8F1020F18DAB8F1000F03D1182D10D0122D0ED0DAF80C000699224676
:205DD000C01905F0AFF8B8F1000F1BD0ABF800800798089016E040F2FF1101E04FF4FB7179
:205DF000304633A30D2604E0304640F2F11139A307260090019002900390032204900CA0D2
:205E100004F0C8FC0898FF280DD00598806850B1056845B1E419A0B20090079A069B41F2D9
:205E300010114846A847304609B0BDE8F08FC0466C65645F736572766963652E6300C0463F
:205E500041747472696275746520776173206E6F7420666F756E642E00C046C057726974CC
:205E700065417474724342203A20257320636F6E6E48616E646C6528256429206C656E2800
:205E9000256429206F666673657428256429206D6574686F64283078253032782900C04620
:205EB0004C45443100C046C04C45443000C046C0496E76616C69642076616C7565206C6546
:205ED0006E677468207761732072656365697665642E00C0416E20696E76616C6964206FFC
:205EF000666673657420776173207265717565737465642E00C046C0C81D00202DE9F04FCF
:205F1000754F1E46ADF1340D01914FEA960902923D680090710809F1020221F0010105EBBD
:205F30008200091D0390901805EB80000490501805EB80038018059305EB8000079026F042
:205F5000030000F1080802EB080005EB800340180893801805EB80000990C6F39C0080005C
:205F7000083002EB4000411805EB800305EB810B0A938918831805EB8104404405EB83031C
:205F9000C6F3990105EB80008900069038680B930A010021803206F01BF94849DFF820A1C0
:205FB00009682846AAF1880290470746B94518BF6FF001007ED128465546394605F168023D
:205FD0009047019831460AF0E5F8002818BF012070D1029831460AF0DDF8002818BF022091
:205FF00068D103980199A84704980299A847009881680598A847334B0399059A2046994603
:20601000C847012802D1BD0066590EB1032051E020460021424606F0DBF80499059A20465C
:20603000C847012801D166590EB1042042E0274B254D079803991E462A46B047089804995B
:206050002A46B047079909980A46B0470A980999079AB0471E4D0B9807992A46B0472046EA
:206070000021282206F0B4F81A4B0A990B9A20469946C847203520462A460146C8470899E0
:2060900058460A46B04706980021424606F0A0F8FDB25846002D0CBF0122FAB20021635C42
:2060B000455CAB4218BF052004D1491C521EC9B2F5D100200DB0BDE8F08FC0468C4F002059
:2060D000B9DB0010C9DE00101C210020F9E00010FC1F0100C9E60010884F00202DE9FF47E1
:2060F0008146714CDFF8BCA1E069884600284CD1B9F1000F00F09480B8F1000F00F0908007
:20611000484609F09FFC05460A2D23DAD8F814702574002F37D0680010216A4600EB8500F2
:206130002330C0B20AF090F890B950460778FF21102268460AF0AFF950B93FB999F8060070
:20615000494600F001000BF0B7F801E00120A074E0691AE004F1E6070A2600253846FF21D7
:2061700006220AF098F968B9761E07F10E0705F10105F3D1607C002804BF0A2020744FD036
:2061900094F836502574E06900E0257C0A2D47DA002835D168000E214A4600EB850020300D
:2061B000C0B202F02FFD207C07F0EEFE6846FF2110220AF0F6FD207C10216A467030C0B244
:2061D00002F020FD217C0E220801A0EB410000194946E6300AF02EFAD8F814206AB1504669
:2061F000007840B9107C02F11101002300F001000BF05EF801E00120A074C4F81C804CE08E
:206210008268002A3ED10269002A2FD142690ABBC2683AB9A07B08B109F0DEF90AF005F88E
:2062300001203BE06800102100EB85002430C0B202F0E8FCE769217CFA68480000EB81006A
:20625000103225300421C0B202F0DCFCE1690020C86022E06800102100EB85002330C0B2D4
:2062700002F0D0FCE1690020486116E068001C2100EB85002230C0B202F0C4FCE169002052
:2062900008610AE068001C2100EB85002130C0B202F0B8FCE1690020886000200090BDE876
:2062B000FF87C0465A4F0020041600202DE9F04F6C4CA068ADF13C0D002800F0858004F131
:2062D000B80B4FF00D0A4FF00A094FF0010878E00AF0EAFF2178CA0002EB41125A44B2E8E5
:2062F000E01004ABA3E8E010E0CAE0C364CA4F1C07F01F0183E8640004F10C056278217037
:206310008A4208BF84F802800BF01EF8BDF83630A6212FA228460AF0CBF828460AF0B8FAD3
:20633000049F4619B8B209F0E5FE4AA20CCA02F0EBFB4AA20CCA02F0E7FB07F027FF009028
:2063500025A2A91B3B0C3046A6310AF0B1F828460AF09EFABDF834704019BF1E04D07F1E6B
:2063700014BF21A229A200E031A206990091059B2F1A07F1A6010AF09BF828460AF088FACA
:206390004219A0682946521B0AF09AFC099800900A9E01960B9F02970C9B0393089B079AEA
:2063B000A62128460AF084F828460AF071FA421902F801AB02F8019BA0682946521B0AF0DA
:2063D0007FFCA078002883D00FB0BDE8F08FC04623253036752000C05B2025642E253033F9
:2063F00075205D2000C046C01B5B33323B316D494E464F3A201B5B33303B316D2825733ACF
:20641000256429201B5B306D00C046C01B5B33313B316D4552524F523A201B5B33303B31E5
:206430006D2825733A256429201B5B306D00C0461B5B33333B316D5741524E494E473A20D5
:206450001B5B33303B316D2825733A256429201B5B306D00000000000000F03E000000006D
:2064700000408F40080200202DE9F0430546880FADF1140DC0F0BF80604C201D0068406801
:206490008768C668406800B18047002F08BF002E08D00AF0ADF907B1B84706B1B04758480E
:2064B00009F050FB57480AF07FFA574A40F60A0CA2F800C000205080117B60F303011173D8
:2064D0005060517B4FF0010969F303015173AB686E7C58801988A1F60201C9B141F21E07E1
:2064F000C91B15D041F6E677C91B012920D8597E012E60F38201597606D0198B21F47C7102
:2065100041F43471198313E0198B60F30911F9E7597C012E60F38201597405D0198A21F4DD
:206530007C7141F4347102E0198A60F309111982D5F8088068746146464600E03E46776850
:2065500017B13B889942F9D17260737B60F303037373E76E3FB1FB681B88CF1F9F421AD0F8
:20657000891F994217D02F8CB7B1686205F12001488095F82C3060F3030385F82C3095F82D
:206590002D3069F3030385F82D305160517B60F30301517300E0A0601C4801688768C568F1
:2065B000009110226946406B019720F0784040F0805003901648029504F0B4FC0AF018F917
:2065D00014486061607F68B91348006801684846884701280CD0707B69F3030070730F4F75
:2065F000676105E008F056F80028FBD00AF0C1FB40460AF0D9F905B0BDE8F083F02200209E
:206610000100070601010E044C2B00204C1300501800002109360000E00100102DD7000095
:206630002DE9F04FADF1240D079001F0EBFC5F48007809F075FB5E4D0024012806D90C3814
:2066500004D0401E0ED0401E09D006E009F04AFF022804BF01210C1C06D0696805E00521D2
:206670001F2401E0032107246960524A1068C0F38150012806D152F80C0C0127020E07FA9B
:2066900002F004430AF088F905F1440AFF2253464018401E471C28607F1E03F8012BFBD107
:2066B000079A1268002602F0FF03FE2B1DD0DDF81CC0964633460EF0FF07FF2F0ED0B8426F
:2066D00005D3B94203D80122BA40144201D0022069E016430EF0FF020AF802305CF804EF7A
:2066F0005B1C0EF0FF07FE2FE7D1092003F04AFD07980121A86005F1280009F0F3F80027D5
:206710004FF0010BB9462846804600F198050BFA07F0044216D1064204BF07F0FF0141F4FD
:20673000C04104D01AF80700079951F82010224801F0D4FFF8B24FF0FF3109F015FBC5F835
:20675000009001E004202860D8F800007F1C2D1D8742DCD904A80AF0FFF8184C184A2078DE
:20677000102104AB059008F10C0008F093F868460AF022F9CDF80C906A4660681149029084
:2067900008F1640008F01EF90F4951F80D0C20F4F85040F4005041F80D0C0C4FC1F8FFBFBF
