:20000000004000203DDE000001C9011001C9011001C9011001C9011001C9011001C9011043
:1C00200001C9011001C9011001C9011001C9011001C9011001C901103FC9011089
:20003C002DE9F04FADF1340D00F004FCB148B54D4FF00009C84600F59A70079005F5A87087
:20005C00C8380890A868B04A49464FF0FF3300F0E1FB0028F6D0484605900DF11A0105AA3D
:20007C0006A80EF0B5FE002840F08980BDF81800012710287ED128789DF81A10884279D1B5
:20009C00059C20884FF6FF71814273D02678913E5DD01F3E6ED1607816282CD020797E28B9
:2000BC001DD07F280FD0009048464E4601904A46029640F2FB410392B2A304963A46ADA087
:2000DC000AF08CF934E0208900904E4601964A46029240F2F6410396B4A30492EEE7207A8B
:2000FC0000904E46019640F2F141029603220396B5A30496E3E720794E46009040F2D941AA
:20011C00019602220296BFA303969AA0CDF810900AF064F9AE6A8EB94FF6FD709249934AB6
:20013C0000904B46102006F015FDAE6AC3B22BB1217904F1080000F071FB1BE046F00106B6
:20015C003846AE6209F076F84F462C6112E060780E280FD1CDF8009048464E464C460190F2
:20017C0040F2BC413A460296B9A3039481A004960AF034F9059810B10FB110F0E3FAE868FC
:20019C0000F050FB00287FF45DAFE86800F04EFB01460F7A099001F10904072F03D9103F0F
:2001BC0000F0A582B2E2DFE817F08101B1009800AE02650046000800A702A86A4008C0F0C9
:2001DC00A5822F69002F00F0A182A87807F10806401CA870C44900967A883B79102006F0E9
:2001FC00B9FC5FFA80FABAF1160F14D0AF6ABAF1040F10D037F00107AF6208D14FF6FD7025
:20021C0059495A4A00900123102006F0A3FC504609F010F87AE2286900790090A8784F46C1
:20023C004E464C46019002220297BDA3039640F24551049432E1C77A00F10904002F0CBF89
:20025C00C3A0C6A000904E464F464FF449714846019001220297C3A3039646A004970AF0AE
:20027C00BDF8484600909F4922884B46102006F071FC4BE200F10904407A0D2814BFC6A086
:20029C00C8A06778002F0CBFC9A1CEA14E460122D1A300904F4601914846029040F2B6310D
:2002BC00039734A004960AF099F827780D3F02D07F1E0FD02AE267782FB10E480BF06EF8D4
:2002DC00E869401CE86148460121641C224605F0B7F81BE201200146F7E7278841F210108B
:2002FC0022463F1A08D0103F40F0108220796188641DEBE7DC07002010795188521D07F098
:20031C00CFFB03E2C00700200F0000C027880FF2D02CB8A2BDA1B7F5895719D0103F40F004
:20033C00F581B4F8050040B1401E04D0401E08BFCDF828C002E00A9200E00A9120790128CA
:20035C0040F0E4810A9ED0A0D3A740F295419CE0B4F80500002800F08D80401E08D0401E6C
:20037C0008BFCDF82CC086E079D30000470101000B9280E070726F6A6563745F7A65726FDB
:20039C002E6300C052656365766965642047415454204D6573736167652E204F70636F6451
:2003BC00653A2030782530327800C0464D54552053697A65206368616E67653A202564207B
:2003DC00627974657300C046466C6F7720636F6E74726F6C2076696F6C617465642E204F06
:2003FC0070636F6465206F66206F6666656E64696E6720415454206D73673A20307825304A
:20041C00327800C04F7574676F696E67205246204649464F2066756C6C2E2052652D736333
:20043C00686564756C65207472616E736D697373696F6E206F66206D736720776974682087
:20045C006F70636F64652030782530327800C04648434920436F6D6D616E6420436F6D70D7
:20047C006C657465204576656E74207265636569766564000B912779A7B17F1E40F0468105
:20049C00BCA740F23741B7A00B9E0090019702964C4603944B460493B8A301229D4809F0C6
:2004BC009DFF33E1ADA740F22C41ECE7278841F210103F1A00F0B380203F40F02781277955
:2004DC00A7B17F1E40F0228160790090A0790190E0794F464E460290AFA3039740F267414B
:2004FC000496DAE721EE0000DDFE0010079E4946282230460BF042FC641D272221463046B7
:20051C000AF0E2FAC04C93A75FA000904E4601974A4602944FF48C610396AEA30492BCE76F
:20053C005265747279696E67206D6573736167652077697468206F70636F646520307825E3
:20055C003032782E20417474656D707420256400446973706C6179696E6700C053656E6471
:20057C00696E6700426F6E644D6772205265717565737465642070617373636F64652E20E6
:20059C005765206172652025732070617373636F6465202530366400427574746F6E203125
:2005BC0000C046C0427574746F6E203000C046C01B5B33336D72656C65617365641B5B3093
:2005DC006D00C0461B5B33326D707265737365641B5B306D00C046C0257320257300C0461F
:2005FC00496E6469636174696F6E7320656E61626C6564004E6F74696669636174696F6E98
:20061C007320656E61626C656400C0464E6F74692F496E642064697361626C656400A17805
:20063C00089A601D0CF000FA2779661D0FF2C01B0FF2C01A002F33D07F1E67D140A0009038
:20065C0042A70197714F40F2F731012261A302974F4603972F48049709F0C0FEA86962793F
:20067C0007210EF08DF8377807B1D34630A000904E46CDF804B04F4602974C46039640F23B
:20069C00FF31049431E0C04644617461205365727669636500C046C053747265616D00C002
:2006BC005A4C27A0009020A701974FF47A71012248A302944F4603971648CDF8108009F015
:2006DC008DFEA869327806210EF05AF8377807B1D34611A00090CDF804B04F46CDF8088025
:2006FC004E4603974FF47C71049643A3D5E60820494603F0EFFC09E045480AF04FFEE869A2
:20071C00401CE86102E0407A05F082FA09980EF0D9F934E5900300001B5B33316D4C4544D2
:20073C00301B5B306D00C0464C45443000C046C01B5B33326D4C4544311B5B306D00C04622
:20075C004C45442053657276696365004C45443100C046C0537472696E6700C04255545475
:20077C004F4E3000427574746F6E205365727669636500C0425554544F4E31004343434449
:20079C00204368616E6765206D73673A2025732025733A20257300C056616C75652043684C
:2007BC00616E6765206D73673A204461746120536572766963652053747265616D3A20254B
:2007DC003032783A253032783A253032782E2E2E00C046C056616C7565204368616E6765FE
:2007FC00206D73673A2025732025733A202573006F6666006F6E00C05475726E696E6720FB
:20081C00257320257300C0461009002048080020DC070020DFF800F0F99B0110DFF800F087
:20083C0089840110DFF800F04FBF0110DFF800F0F1BF01102DE9F04F9C4C04F1080120466F
:20085C00ADF1BC0D0DF002F80FF2A01A00200746009040F2E91101970122029767A3039742
:20087C005046049709F0BAFD04F14C0528463946276200F063FB04F1640004F17001E5606D
:20089C0009F046FFA06170B90097384601904FF4FD7102900322039068A30490504609F005
:2008BC009DFD00F04FFB04F1580004F17C0109F02FFF606178B90097384601904FF4007116
:2008DC0002900322039066A30490504609F086FD00F038FB606976490FF07DFE70B1009726
:2008FC003846019040F2062102900322039064A30490504609F072FD00F024FB05A8394656
:20091C002422082300F022FB6B4E4FF47A7832250D20DFF8A09132680B9005AB04F1E40005
:20093C00B8FBF2F18AB26A43494600F013FB0E2031680B9005AB04F58470B8FBF1F189B2C0
:20095C004D432A46494600F005FB0EA839462422082300F0FBFA306841F288353A460EABB0
:20097C00B8FBF0F081B205FB01F05449139004F5967000F0EFFA0125ADF8607040F205308A
:20099C000DF1B6028DF8B650294602F0D3FF40F20630022118AA02F0CDFF621C4FF4427049
:2009BC00294602F0C7FF04F1980240F20730142102F0C0FF04F1C100394620220BF0DEF9CD
:2009DC0004F1980604F1C1083846325C401CC0B231180B78092B18BF082B01D11F2A6FDB61
:2009FC008018C0B22028F0DB6FE0C04670726F6A6563745F7A65726F2E6300C0496E69746E
:200A1C0069616C697A696E67207468652075736572207461736B2C206861726477617265B6
:200A3C002C20424C4520737461636B20616E642073657276696365732E00C0464572726FA2
:200A5C007220696E697469616C697A696E6720626F617264204C45442070696E7300C046E0
:200A7C004572726F7220696E697469616C697A696E6720627574746F6E2070696E7300C0CF
:200A9C004572726F72207265676973746572696E6720627574746F6E2063616C6C626163CF
:200ABC006B2066756E6374696F6E00C0C0070020B1AC000025BB0000F41E01002307010007
:200ADC00491C521E404609F0FFFFCDF800800197504640F2432102972A460397BDA3049701
:200AFC0009F07CFCC54E10200622A023314606F031F810200722A023314606F02BF81020C9
:200B1C000822A023314606F025F810200922A023314606F01FF810202A461E23314606F052
:200B3C0019F88DF8B7508DF8B85017AE179728468DF8B9704FF4816204238DF8BA00C74D40
:200B5C0000961020294606F005F80DF1B7004FF48062012300902946102005F0FBFF2EA85F
:200B7C0040F20242012300902946102005F0F2FF0DF1B9000090294640F203420123102029
:200B9C0005F0E8FF0DF1BA00294640F2064201230090102005F0DEFFB14910204FF0FF326C
:200BBC0005F0D8FFAF4910204FF0FF3205F0D2FF1026DFF83C93CF48CF4A00961323494688
:200BDC000190304605F0C6FF04F1AC003A461523CA490090304605F0BDFFB046C948C84EF8
:200BFC00CDF8008005234946019006F10C02404605F0B0FFBB463D46052000909EA301950D
:200C1C00D82102950122039597A0CDF810B009F0E5FBBD4D2778287880000FF0CDFD0146FF
:200C3C00BA488246C16041B34FF6FF700DF030FF287880000FF0C0FD0146CAF81010E1B142
:200C5C004FF6FF700DF024FFB14940460AF11402009007230191494605F07CFF5E460720FD
:200C7C000090FE2101960122029683A303968BA0049609F0B3FB8AF800702878277880007B
:200C9C000FF09AFDA34E0FF228290146F160D9B14FF6FF700DF0FCFE404600909E49019103
:200CBC00934906F14C02062305F054FF0620009058460190EB210290012203906EA30490A8
:200CDC00484609F08BFB3770287880000FF074FD924D0146A96071B14FF6FF700DF0D8FEDC
:200CFC000C358F488249CDF8008004232A460190404605F02FFF824904F134005D46886060
:200D1C006FA70090012201953B460295E721039555A0049509F062FB04F13C00CAF80800C1
:200D3C00009040F20F110195012202953B4603955AA0049509F052FB04F14400B0605E4686
:200D5C000090FC210195012202963B4603964846049609F043FB0DF16200594628220BF0BC
:200D7C000DF870490DF18A00282209F0ADFE584601210DF1620206F093FE01200DF16202F7
:200D9C00014606F08DFE584601210DF1620204F057FB01200DF16202014604F051FB58465F
:200DBC0028210DF18A0204F037F8012014210DF1620204F031F80DF1B200594602220AF0DF
:200DDC00DDFF0DF1B2000AF0E9FA574D6978287859BB15E04E616D6520696E206164766528
:200DFC007274446174612061727261793A201B5B33336D25731B5B306D00C046B5EC000043
:200E1C0004F1240129620EF007FA05F154070096024605F14400019005F11C0302974349DE
:200E3C000393AB78404605F095FE414904F12C02404605F08FFE20780EF0EEF93D490246CF
:200E5C00404605F087FE20780EF0E6F93A490246404605F07FFE2FB0BDE8F08FBD47000037
:200E7C00E5F700006DFA00006C65645F736572766963652E6300C0465265676973746572B2
:200E9C00656420736572766963652C202564206174747269627574657300C046627574745B
:200EBC006F6E5F736572766963652E6300C046C0646174615F736572766963652E6300C057
:200EDC00526567697374657265642063616C6C6261636B7320746F206170706C69636174B7
:200EFC00696F6E2E2053747275637420257000C0C1F30000581E01008C100020A5B8000004
:200F1C0010180020681B0100694F0020A0160020E41A010058150020101B01001C1900202E
:200F3C001C1D01007D1A0100A80C00209FE00000DDFC00005188011031810110DFF800F023
:200F5C00A1B60110DFF800F019B10110DFF800F0C1BF0110DFF800F069B201102DE9FF41CA
:200F7C000E4605461C4C7188608A81420CDCB188814209DBF088A18A884205D13089E18A79
:200F9C00884208BF182722D014491020052205F0E1FD77881FFA80F8F288B388ADF8027090
:200FBC00208AADF806200E49ADF800003789ADF804306A461020ADF8087005F0CBFDC7B2D8
:200FDC002FB9657304F1EC0041460DF02DFC38460090BDE8FF81C046A80C00201500010084
:040FFC007D1501104E
:20100000B412000018100000D9D40000FDB301106DC00110FDAE011099B50110000000001B
:08102000000000002D0000009B
:20102800B01200003C100000B1C00110A9BF011067C0011069B80110000000000000000035
:041048003000000074
:20104C00B012000060100000BDC00110CDB30110D9BD01106DB3011000000000000000005B
:04106C00310000004F
:2010700000000000941C002004000000000000000000000020000000E8C90110300000007A
:20109000281000009C1C00200400000000000000000000000C000000D8CA01101800000055
:2010B0004C100000A41C002004000000000000000000000024000000F0CA011018000000D9
:2010D00000000000AC1C00200400000000000000000000001000000018CA01102C000000E5
:2010F00000100000BC1C0020040000000000000000000000200000006CCA01102400000049
:20111000FFFFFFFFC41C00200400000000000000000000002800000090CA01102400000008
:20113000FFFFFFFFCC1C00200400000000000000000000001400000008CB01101800000087
:20115000FFFFFFFFD41C002004000000000000000000000058000000B4C901103400000055
:20117000FFFFFFFFDC1C00200400000000000000000000001000000020CB01101800000023
:20119000FFFFFFFFE41C00200400000000000000000000001C000000B4CA01102400000050
:2011B000FFFFFFFFEC1C00200400000000000000000000003800000044CA01102800000078
:2011D000FFFFFFFFF41C00200400000000000000000000005400000078C901103C000000ED
:0811F00002000000BC1E01001A
:0411F80001000000F2
:0411FC0000000E00E1
:0412000000000F00DB
:0412040032000000B4
:0412080001000000E1
:04120C00E81B0020BB
:0412100000020000D8
:0412140000000000D6
:0412180001C90110F7
:04121C0000000000CE
:0412200000000000CA
:0412240008000000BE
:0412280000002200A0
:04122C00381A00204C
:0412300000000000BA
:0412340000000000B6
:0412380008000000AA
:04123C00A81B0020CB
:0412400000000000AA
:0412440000000000A6
:04124800080000009A
:04124C00000000009E
:04125000000000009A
:041254000000000096
:041258000000000092
:04125C00010000008D
:04126000D01A002080
:041264000600000080
:041268000100000081
:04126C0068190020DD
:04127000000000007A
:041274000000000076
:041278000002000070
:04127C00000000006E
:02128000290043
:02128200010069
:02128400250043
:02128600300036
:02128800310033
:02128A002D0035
:02128C0001005F
:01128E00015E
:0812900003000000701E0100C4
:0812980000000000000000004E
:0412A0000000010049
:0412A4000000030043
:0412A80013C401105A
:0412AC00CB01010071
:0412B000B812000070
:0412B400B81200006C
:0412B8000000000032
:0412BC005C1C002096
:0412C0006F030100B7
:0412C4002000000006
:0412C800B81D01004C
:0412CC00881C010079
:0412D00029C101101F
:0412D40063E70000CC
:0412D800ABEA00007D
:0412DC00A1C7011095
:0412E000A3C701108F
:0412E4000000000006
:0412E800D71C01000E
:0412EC007019010074
:0412F0008819010058
:0412F4005819010084
:0212F8000200F2
:0212FA000900E9
:0212FC000100EF
:0212FE000000EE
:0113000001EB
:04130400FD020100E5
:041308003DEA0000BA
:04130C00E1F8000004
:0413100085ED000067
:0413140075EA000076
:04131800E1DC000014
:04131C00D9B4000040
:04132000B50501000E
:0413240009D10000EB
:0413280015C70110D4
:04132C0025C70110C0
:201330002DE9F04FD44C04F118012046ADF1340D0CF092FA00264FF6FF70667001212082D9
:2013500004F1A4000DF046FC022104F1C8000DF041FC042104F1EC000DF03CFC4FF0040A03
:2013700004F1440810224046314684F802A00AF00BFD04F154091022484631460AF004FD49
:2013900004F11C073E6004F10A052E70E671267207206072CDF80080DFF8F8820222102013
:2013B0000346414605F0DCFB102003224146CDF80090034605F0D4FB10205246414600975D
:2013D000134605F0CDFB4FF0080B4FF0030905F12A00079005F17900089005F11E000990DF
:2013F00005F15A000A9024350B9517E06078A28FE18FB4F84050B4F8423006280ED1ADF87E
:201410000A20ADF80C10ADF80E50B948ADF810300FF0ECF9012002A9FFF7A6FDA069B34A99
:2014300031464FF0FF33FFF7FBF9071CF6D0059606A80DF11A0105AA0DF0D0FC002840F0AF
:20145000BD81BDF818102078102940F0B3819DF81A10884240F0AE81059D29884FF6FF723B
:201470008A4200F09C812B78A23B00F07F812E3B40F0A081A978B046002900F03B81891EC6
:2014900000F00A81491E012940F2D980891E00F09C80491E6FD0491E5CD0083900F05681B1
:2014B000891E40F0598194F83A30A888052BADF8080047D001208DF812008D480FF096F936
:2014D00094F83A0001281ED004281CD003280DD002280BD00598C188ADF80A100189ADF826
:2014F0000C104189ADF80E10818927E0A08FE58FADF80A00B4F84030ADF80C50B4F84210B5
:20151000ADF80E301AE0A08FE9888842D8BF081CADF80A002989E08F8842D8BF081CADF8BF
:201530000C006989B4F840008842D8BF081CADF80E00A989B4F84200884200DC0846ADF8C0
:20155000100001E08DF81260A849102002AA05F007FB01E1A6480FF049F96B78002B40F080
:20157000FB80E88860822889A0826889E08260480EF04EFFF0E0AA88B449102005F0F0FA67
:201590000798414606220AF0FFFB6682A682E682A879207356480FF029F995480FF026F913
:2015B0004FF001084FF6FF702379208253B9A879082812BF84F801A00520607040460EF01D
:2015D00057FFC9E084F80190C6E06B787BBB291D07980A6802608988818006236370688978
:2015F0002082E8896082288AA082688AE082E878E07294F83A00012818BF02280BD199495E
:2016100010201F2205F0ACFA4FF47A7180B2414337480DF00FF9688900909149CDF804A082
:20163000EA7810202D1D2B4605F09AFA97E06878312840F08880E67084F801A08FE06B7817
:20165000002B40F08080A878E3896178032815D0E078257923B9012814BF2671E67006E009
:20167000054304D0804819460DF0E4F861780729E2D10620607072E0A80C0020062907D060
:20169000E578002D08BF84F8019068D00220F1E70720EFE7A1FC00006B78002B53D1EB787B
:2016B000617893B902291DD007291BD0062902D12079012816D1032914D06B480EF0A8FEB0
:2016D00080B901200EF0D4FE0CE00DF0ABFD0246A07962490090089843460190102005F0C4
:2016F0003FFA68706D78002D2DD135E007000080700D00206B7833BB5C48574900900222B7
:201710001020034605F02CFA59484A46524900901020034605F024FAED1C099829680160A1
:20173000A98801238180207863700DF07BFD024601230A9D6079494900901020019505F09A
:201750000FFAC0B258B184F801B008E0AA8841491020052305F004FAB8F1010F2AD1256A96
:2017700045B32D6835B36078A84723E06879132820D12889012808D1607B022805D11C481B
:201790000FF034F80DF05CFB14E036491020052205F0E6F981B216480DF04CF80AE0688870
:2017B000C00B07D3334852462B4900901346102005F0D6F9059808B10EF0CAFF2579E078FD
:2017D000790830D355EA00032DD0204600788DB9E179257A8DF808100B9A8DF8095013687E
:2017F0000DF10A052B609288AA8005E005160110940D00208DF80890617A8DF81010A17A73
:201810008DF811100DF00EFD1149024602AB102005F0A6F938B1256A84F801B01DB12D68EF
:201830000DB15846A847B80803D313493046FFF79BFBF808FFF4F2AD607B401E3FF4D6ADD8
:20185000401E7FF4EBAD0DF0FBFAE7E519D8000059440110C11701103189000009450110B0
:2018700029930000150001004C0D0020EC0C0020FC0C0020C40C0020E20C00202DE9F04F7A
:201890000F46CD4C0168E16241688068ADF11C0DE060C548A1608047C448E16A0160A168F0
:2018B000DFF810A34160E168DFF804938160CE49002FA346C1606FD03D68E8788DF80C0030
:2018D00028798DF80D0003A80FF0D6FAA86808B1C6490160E86808B1C5490160C54C2878E9
:2018F00020706878BE686070A878B268A0703178A2607368E1702E696360EA69266279683B
:20191000E2620868E06068696062A8697B68A062286A9E68206395F8240084F834001EB9E7
:2019300000200EF07BFA00E066617868C06818B900200EF073FA00E0A0617868006918B9FE
:2019500000200EF06BFA00E0E0617868406818B900200EF063FA00E0206128692062F8682B
:2019700081680E6806B9D24ED0494FF001084E60C66881F8018036B900200EF04FFA4D46F9
:201990002E68F86801E04D462E6000685446FB68A0615868E06107E000200EF03FFA4D4607
:2019B0002E684FF001085446361DC749366804F1080350205246B04710B12868806880479F
:2019D000DBF808008047C24E002781463B46BF487770694660610422337038460DF048FAF2
:2019F0000098B0F5801F0CD020B90DF039FD06F097FE08E00CF0A2FA0EF064FC0420708096
:201A100001E00DF02DFD3846BA4EE0602B68B760986980477060AF4880F800803946418077
:201A300014200EF02DFDFF211422A0620EF0E6FEE01CFF2102220EF0E1FE14200EF020FD94
:201A5000A54F38603868002114220EF0D7FE002000F052F940460CF08DFDA0480188FF2920
:201A700006D1022101807822001D00210EF0C6FE03200FF0FDF904200FF0F6F905200FF0F3
:201A9000EFF906200FF0E8F907200BF007FB944E0820307006F124000FF0DAF90BF0BCFCDA
:201AB00006F1360A05200A2152460EF0F1F838B10020C0F10901401C0AF8011B0A28F8DBCD
:201AD0003078102108F012F82B68864909200DF10E025E68087001AB10200021B047A06A46
:201AF000E1690A260A309DF80E20761E00F8012BF9D1891EE161DBF80C104846884704F1B3
:201B100020002B68626A059040461E69DFF8D88104F120034146B04710B1286880688047CE
:201B3000B8460DF0BFFD5FEA000903D008F096FE4FF0FF39002643E00298616910F8062CCF
:201B5000A0F10C07032A03D1002939D0884737E0A16A9DF810C00A223046491E11F8013FF6
:201B70009C4506D0521E00F10100F7D14FF0FF0A01E05FFA80FA2868BAF1FF0F00F1080036
:201B90001CD038790CF0FEFEB979012904D0022904BF0299887001E00299087002995046CA
:201BB0000DF0BCFF0CE0C04641490010F84400200C1D0020301B0020041600200068804758
:201BD0002868C36904A902AA0DF10F0098470028B2D0D8F800007700C35B6BB9761CF6B287
:201BF0000A2EF8DB2BE0C046900E010069F30000E5FF0000001A00200A2E20DADBF8080093
:201C10008047D8F80010002231F807A0CA53DBF80C108847354850F8262066705146304652
:201C300090470646FF206070DBF808008047D8F800107A5A16437E52DBF80C1088470DF048
:201C500031FD0746B9451AD007B9294FE069B84238BF071CDBF80800804781462868016A18
:201C7000206A8847626A28681F49059B521C6262C6683846B047DBF80C1048468847E76827
:201C90002968A0681431AFB9D8F800000A270026835B33B10969A06888472968D8F800005B
:201CB00014317F1E06F10206F2D107E0741C0020AFC50000096988472968143109684FF09E
:201CD000FF3088472DE7C04675F800005D000100B4190020041D00201C2600202417002026
:201CF000BC1100202E260020CDE90000101C01008EC2F528CC2500202DE9F84FDFF8BC130F
:201D1000DFF8BC23DFF8BC5308700821002010600D23DFF8B40340F2373201704380828057
:201D3000DFF8A8030560AC7EDFF8A4030470FF2CE97E417008BFFF292A7F82706B7FC370A6
:201D5000AE7F0671ED7F457115D1FF2A08BFFF2B11D1FF2E08BFFF2D0DD1DFF878130A78E9
:201D700002704B7843708A788270CB78C3700A79027149794171DFF860130278DFF85C831D
:201D9000DFF85C93DFF85C730A70FF2543784B7082788A70C378CB7002790A7140794871E1
:201DB00088F8005088F8015088F8025088F8035088F8045088F805500020CB490880D9F897
:201DD0003440CA49607808702278C9493A70A0780870A2681079C74A411E1170E078C6494B
:201DF000C64A0870E068106008B90EF017F82069C34E306008B90EF011F83068DFF804A3BD
:201E100001688847326852F8041F50468847BE48BE49CAF82000CAF824106069BC490860F3
:201E300008B90DF0FBFFA069BA49086008B90DF0F5FFE069B849086008B90DF0EFFFDFF87F
:201E5000DCB2B74C9BF804000EF01AFB0028206075D09BF80500B34E0EF012FB00283060EE
:201E70006DD09BF80600DFF8C0A20EF009FB0028CAF8000063D09BF807000EF001FBAB499C
:201E9000002808605BD039789BF80000891C484380B20EF0F5FAA649002888604FD0387816
:201EB000002862D0BBF80210484380B20EF0E8FAA04A0028506042D038780EF0E1FA9E4912
:201ED000002808603BD0387840000EF0D9FA9B490028086033D03878182148430EF0D0FAE3
:201EF000974A106058B3387840010EF0C9FA9549086020B3387800010EF0C2FA92490860FD
:201F1000E8B1387800010EF0BBFA90490860B0B13878302148430EF0B3FA8D4A106070B173
:201F30008C483978007848430EF0AAFA8A4A106028B138780EF0A4FA8849086018B9BDE84F
:201F5000F14F06F0E1BD4FF0000B09E00EF068FA0021418081600180022303710BF1010B25
:201F700039785FFA8BF08842F0D32268694F0120107121680D732068457321688D73206801
:201F9000C57321680D7400212068457400202268D172A0222168487103212068C28001723B
:201FB0000720226850720021206881722821206801224182C2760020216848770022206801
:201FD00080F85E200121226811770120216881F85D0001223068027131680D7330684573B0
:201FF00031688D733068C57331680D7400213068457400203268D1720022316848713068D3
:2020100082724FF420703168C88008818A7401213368D974DAF800201573DAF800104D735B
:20203000DAF800209573DAF80010CD73DAF8002015740022DAF800104D740121DAF8003010
:20205000DA720023DAF800201171DAF800104B71DAF80010C88008818B720520DAF8002028
:202070009374DAF800103E4AC874106880473968054608688047396851F8042F002090472D
:20209000D9F80C101C4B0A881878364902430A802846354A136898470C2134480EF0D4FEAC
:2020B00040460EF0CDFE0EF0C7FEBDE8F44F034800784FF4005107F019BD00BF6E4F002056
:2020D000044F0020B63F0050604E0020084F00202C4E0020E81200503C4E0020344E0020C3
:2020F000201F01007B4F00200C4F00206D4F00206B4F0020724F00206C4F0020F04E00205B
:20211000F44E00207C4B002091040100B1040100F84E0020FC4E0020CC240020501C0020AE
:20213000104F0020144F0020184F00201C4F0020D8250020684E0020004F002004260020CF
:20215000804E0020844E0020884E00208C4E0020904E00202B1D0020082600200C26002099
:202170000C160020544F002010160020F84D00202DE9F84FC04CA178FF2904BF00200DF015
:202190004DFEA0780EF076F8044604F1680504F190062968086810B10021E1830CE0A87BD3
:2021B000002804BFA97E002906D13078002801BF207F0128608CE0832189E08B4118491C83
:2021D000618120460EF034FE01281EBFAB480178012904D121890020491CE08361814FF64D
:2021F000FF77A87E01280DD1AA8B618920890EF01BFE38B1218960894A1C93B298421BD061
:20221000A88B0FE03078012816D17288618920890EF00AFE80B1218960894A1C93B29842F8
:202230000AD0708892B2904206D03818608180B20EF0F6FD3F18E78304F5967999F804001E
:2022500020B120890021401CE183608104F12E07A87E012811D12189A88B4B1C9BB298426C
:202270000BD160810EF0DCFD8046B988288C01FB080820460AF07CF801E0B7F80480B4F85F
:202290001EC022687E4ED2F80CE00CF1010000FB08F340F6C41000FB03F18E44C2F80CE0DF
:2022B0003668DFF8E0E13678BEF80080764AB609032E11D1D67BF60748BF4FF000080BD4E7
:2022D00008F101081FFA88F6012E12BF668AB9F8066006F2DC5600E0668A5E434FF4C87A2E
:2022F000B6FBFAF6761C6661AEF80080A3614FF0180894F806A084F820C008FB0AFADFF8DF
:202310008CC1DCF800E023680EF1080656F80AB0C3F810B094F806A008FB0AFACDF800A0F3
:20233000D3F80CB0D4F814A0ABEB0A0ADDF800B046F80BA094F806A008FB0AFA56F80A607D
:202350009E600EF10C06A37908FB03F30EF10C0EF65C06F0F00646F002060EF803604FF00C
:20237000000ADCF800E0A6790EF1020308FB06F623F806A0464BA6791B68760103F1140AF0
:20239000D4F814B05AF806A00AEB4B0A03F1140B4BF806A0AD7E022D0BD1A5796D0103F1A9
:2023B000140697F800B056F805A000FB0BAA46F805A0BD88D27BA779D60736D508FB07F793
:2023D0000EF10802D659A6F5A86A0EF1080646F807A0A77908FB07F7D2592768511A396136
:2023F000BA6003F11402A1794901575807F5F667575003F11401A27952018958C9F800106D
:202410006843244AA179156B03EB41162968401AA0F51670F0612049A07903EB40100B781A
:20243000012B14D10121C17214E003F114027F01D1592A464243A1F5E661A2F516729142BA
:20245000DED3082120460EF0E7FC012011E0916A4A78C272A179DCF8000008FB01F28118CB
:202470002268516007200D490870204609F002FD0020BDE8F28F00BF684E0020784F0020FC
:20249000084F0020242600205C4D0020804E0020844E0020201F0100734F00206F4F0020A2
:2024B0002DE9F84F0C46E00788B00BD50DF0C8FF28B100218160B348006800B1804784F070
:2024D00001005CE1A0070FD500210023069105910491039302910191009101223C200EF054
:2024F00097FC84F002004AE11D256007A64EA74F40F18A80002107918B46A5488178FF2932
:2025100004BF00200DF08AFC386890F8A0000DF0B1FE80463868C07A98F82691022818BFE9
:20253000032808F5907A06D106F10D000EF06CFC08B906F1070B514648460EF061FC88B393
:202550003868807A002818BF012804D1314650460EF052FC04E05246494630460EF048FCB8
:20257000FF2834D005FB00F906EB090506225146E81D0DF083FD16F80900396840F00209F4
:20259000E81D07900622887E00F0010088F8260105F1010A386800F1140108F590700DF028
:2025B0006DFD14E0514648460EF01EFC78B15246494630460EF01CFCFF2808D006F10D0190
:2025D000454348190EF020FC08B949F0020908F12C004B460178069142891209059201227D
:2025F000B8F822100491C0880799029140080390CDF804B0CDF800A0002098F806100EF05C
:2026100007FC84F00400BAE020060FD5002100230691059104910393029101910091012216
:202630003B200EF0F5FB84F08000A8E0E0044BD5F11D06F10D000EF0D3FB3868017A01299E
:2026500018BF042931D1C17A02291EBF0329817E01292AD1817E00F1140230460EF0C8FB94
:20267000FF2811D04543354405F10D000EF0CCFB50B9E91D05F10D000EF0B2FB38680622F4
:20269000E91D14300DF0FAFC3868C07A022818BF03280AD106F10D000EF0B6FB28B93868D8
:2026B0000622F11D0C300DF0E9FC3A4842683A4800784FF480510BF063FC10B18E2009F0BA
:2026D00067FA84F480505AE0A00505D50DF077FF324901200860FEE7600504D506F03FFDBC
:2026F00084F480604BE0600405D5812009F050FA84F4804043E0A10440D5294D286810B149
:2027100000200DF08BFB274E4FF0FF3028600EF063FB3168244D51F8202F684690472349AC
:20273000234B486A8A6A009001920293C86A0268086A0392ADF810000A6B1178002904BF7B
:202750005068002805D19068002804BFD068002806D02970506868609168A960D068E860FF
:2027700029463568134A2E6813486B46B0471349086004F0BDFA84F4005000E0002009B057
:20279000BDE8F08F204F0020AC450020104F0020684E0020784E00206E4F0020FC002043EE
:2027B000044F0020F04E002068450020001A0020410401002C4D0020D0240020EC4E0020E4
:2027D0002DE9F04F09AFADF13C0D08900A92388809911E46ADF81800101C08BF002000F043
:2027F0007581017800274FF0010B401C4FF0FF39B846DA460A9061E1252940F0568101784D
:20281000401C0A902D2918BFADF8068004D10178ADF806B0401C0A9030291CBF4246434676
:2028300004D10178401C5A465B460A902A29CDF800804D4617D1049330680A9BCDF80890BF
:20285000C01C20F00300001D306050F8044C1978002C009403F101000A9018D5ADF806A01C
:202870006442009413E044460AE0600000EBC4004018A0F130040A9801780094401C0A90D6
:20289000302901DB3A29F0DBCDF8089004932E2929D10178401C2A290A9011D13168CDF87E
:2028B0000880C91C21F00301091D316051F8045C002D48BF454601782B46401C0A9011E096
:2028D000454643460AE0680000EBC5004018A0F130050A9801782B46401C0A90302901DBFD
:2028F0003A29F0DB02930AB1224604926C2904D04C2918BFADF8048004D10178ADF804A0D7
:20291000401C0A900BA8CDF80C800FAB07906429059300F0828069297FD0BDF818C0752939
:202930006DD0782969D06F2965D070294ED063293ED0732922D00A98401E0A900998012860
:202950001AD966490C68B5F1FF3F03D0A84288BF6D1C05D86FF00041814294BF0D1C099D7E
:20297000029508A80AA932466B46A04709993F18091A0398099165E0454617E03068C01CB1
:2029900020F00300001D306050F8040CBCF1010F014608B94FA0014607910DF09DFC039053
:2029B000B5F1FF3F4FD0A8424DD9039528464AE03068C01C20F00300001D306010F8040C78
:2029D0008DF82C005D46039558463CE0082035680490E81C20F00300001D306050F8041CBC
:2029F000082210230FA809F0A3FD401E079040210170079823E0082302E0102300E00A2364
:202A10003068C01C20F00300001D306050F8041CAA42BCBF2A1C04920DE03068C01C20F056
:202A30000300001D306050F8041CAA42BCBF2A1C04926FF009030FA809F07AFD0790059964
:202A5000081A0390009C241ABDF8065000945DB906E008A8202109AA0CF06FFD7F1C009CF9
:202A7000641E0094F5D50398401EB0F1FF3F03900FD1BDF8060001281CD10098401E0090C4
:202A900018D408A8202109AA0CF057FD00987F1CF4E70798017809AA08A80CF04EFD0798D7
:202AB000401C079003987F1CDEE708A809AA0CF044FD7F1C0A980178401C0A9000297FF430
:202AD0009BAE089808B14146017038460FB0BDE8F08FC046286E756C6C2900C0001F0100F9
:202AF000BB482DE9F84F0025BA4CB849056094F8E200002800F06581012800F02F81B64E9C
:202B100002283CD0032840F05C8151F8250CD4F8B8100029A0F5C060C4F8D400B8BF4942B9
:202B30000028B8BF4042814226DA4FF08057D7F8A4014568B4F8BC0030214FF47F42082382
:202B500000903046A847D7F8A4014568B4F8C00004214FF4F802122300903046A847D7F888
:202B7000A401B4F8D070456820214FF440620A2330460097A847012584F8D8501CE151F8A8
:202B9000258C0DF01CFD2F4600B901273946934F38680028FCD0B146012609F10409D9F81D
:202BB0002CA03E6009B10DF010FDCAF30720C4F8BC000DF004FDAA4600B9B2463B68002B0E
:202BD000FCD0D9F800B0BAF1000F3E6001D00DF0FCFCCBF38440C4F8C0000DF0F0FCAA46A3
:202BF00000B9B2463B68002BFCD0D9F81C90BAF1000F3E6001D00DF0E8FCC9F38120C4F8DA
:202C1000D000B8F5C061C4F8B81000F09C8094F8D80068B9C4F8D410D4F8C000C4F8C80041
:202C3000D4F8BC70C4F8C470D4F8D030C4F8CC30D4F8D400D4F8BC30002854BF02226FF002
:202C5000010204F1C8010F6800EB40008018421000EB927207EBA2000860D4F8C810C4F8CC
:202C7000C43000291CDD1E293CDDD4F8CC0030B93429B4BF15391E21C4F8C81025E02A2904
:202C9000BABFD4F8C8000B381E20C4F8C800D4F8C4003F28B4BF401C3F20C4F8C4001FE06E
:202CB000D4F8CC00032812D011F10B0FC6BFD4F8C8000B30301CC4F8C800D4F8C400002867
:202CD000C4BF401E051CC4F8C450032508E011F1150FC6BFD4F8C8001530301CC4F8C800AE
:202CF000C4F8CC504FF08057D7F8A401B4F8C43030214FF47F424568374800930823A84794
:202D1000D7F8A40104214FF400321123456832480096A847B4F8C860D7F8A40104214FF405
:202D3000F802122345682C480096A847D7F8A40120214FF440620A23B4F8CC6045682648F4
:202D50000096A84701E084F8D85040F2FF50404502D8801C40452FD2082030E051F8251C95
:202D70001F4F4BF2F5204843060A3868C0F3814001280CD11B480068006880470BF064FB7A
:202D90000DF029FC3111C010484306EBE03694F8E50030B91448006820F07F4036187608A4
:202DB00001E084F8E5501148310C0660012741600F4D8760287808B90B2000E0052084F85C
:202DD000E40003F03DFDBDE8F88FC0462D400C402C500C404414002000A00C4000800C40EF
:202DF000B43F0050EC010010102009403C600C409D1D01002DE9F84FB34D696884B0019173
:202E100021B905B0BDE8F04F0DF0E2BF0978DFF8BC82AF4EDFF8BC92DFF8BCA201291CBF9F
:202E30000229042946F2A81741F64C5B05D0402918BF802900F096803CE10DF0FDFB002857
:202E5000FAD00198007805F095F80090446814B900200CF0E3FF9AF8010000285CD000F027
:202E700043F90DF007FA02900168009801914F6809F0A4FC022825D000990A78012ADBD182
:202E900096490A68137A19F80310317018B90DF09BFF5844A0602069C17E01F0EF01C1769B
:202EB0002069C17E41F08001C1762069C17E01F0F00141F00201C1762269B9688848411867
:202ED000D1614BE001980178802911D10820854930700A78012A03D09AF80100022801DB39
:202EF00038690CE0D8F828003A690178D1720DE07C49072030700A783869012A02D1012122
:202F1000C17203E0D8F828104A78C2720298817901988AF80210C8E0009800288CD001996E
:202F3000009A0078914205D101281CBF00200CF075FF15E0012840F0BD80684801680A7A0A
:202F500019F8020030700DF03FFF3918A0680DF037FF18B90DF038FF5844A0600120A8700D
:202F70000098A2E09AF8010000287AD000F0BCF80DF080F904462068029047689AF8020061
:202F90000DF078F903900DF05DFB10F0070F3DD0A87804F0EFFF01904168019800910299A7
:202FB00009F00CFC022831D001990A78012A2AD14A490A68137A19F80310317028B90DF05E
:202FD00003FF83440098C0F808B000980069C17E01F0EF01C17600980069C17E41F08001C6
:202FF000C17600980069C17E01F0F00141F00201C176009AB9683A4841181069C1610121AA
:203010000198A97051E000200CF008FF0398A04225D0029833490278802A12D10820307043
:203030000978012903D09AF80100022803DB38690121C17210E0D8F828003A690178D1722A
:203050000AE0072030700978386901290EBF0122D8F828104A78C272A0798AF8020002983E
:2030700023E00DF0EFFA10F0070F29D0A87804F081FF04462078D4F80480012820D1174908
:203090000868027A19F8021031700DF09DFE3918D8F808000DF094FE20B90DF095FE58441B
:2030B000C8F808000120A870204605B0BDE8F04F06F0DABD05B0BDE8F04F00200CF0AEBE52
:2030D00005B0BDE8F08F00BFD8250020201F01006F4F0020289A0110684E0020104F0020E5
:2030F000F0D8FFFF734F00202DE9FE4FB24C617811B900200CF092FE0DF066FE4FF00008C0
:20311000074607F6C417C246AC4DDFF8B49228E050460DF0AFF806467079F0B12968B0798A
:2031300001F80800394608F101005FFA80F830460DF042FE30680178402902BF06F18200CD
:203150000178012902BF41887289914205D1B169C088411830460BF0DFFA0AF101005FFA34
:2031700080FA99F800008245D2DB6178884505D000200CF053FE82200DF01AFE6078012820
:2031900040F0F180002701E07F1CFFB299F80000874280F2E28038460DF06CF806467079E8
:2031B0000028F1D02968B0790A7890421CBF00200CF034FEB079FDE0286810F809000DF03B
:2031D00059F800684268DAF808109068814204BF3E4609F1010900F0D480D6E0286890F87A
:2031F00000B001224FF4C0710FE0636803F5AD76835C01FB03F901FB0BFE36F809C036F8A2
:203210000E60B44538BF9B46521CFBB29A42ECDB4FF6FF700DF0C8FD064658460DF02AF822
:2032300068490068D0F804A00868D94630F8192060684FF4C07300F10E0103FB09F3C85AAF
:20325000B2EBD00F52D2720840F6C4104243009200275D4A0190029217E058460DF00AF89C
:2032700001680A78802A03D1DAF81030009A5A610978402908D1029980790A6802EB401167
:20329000009800F5A060C8617F1C47452EDA2868C05D8345F8D001464FF4C07359436368D8
:2032B0005A1803F5AD73D289595A53088B4202D2521A9045E8DA0CF0DDFF01684A68019BD8
:2032D0009168DAF808207008A1F6C41103FB00200DF076FD0028C0D03A48006830F8191086
:2032F000491C20F81910286810F807B0296808780CF0C0FF0026006847684FF4C0794645B9
:2033100051DA2868805D0CF0B5FF0068296842688B5D606809FB03F3034403F182010878CA
:2033300030B15889B1F802C0401C80B2604508DA887B01280ED15889098A401C80B2884264
:2033500008DB6EB3B968906801F5C241A8310DF037FD28B3761CF6B2D1E700200CF05EFDF9
:2033700082200DF025FD617828680DF019FD286800780CF07FFF00260068D0F804A04FF045
:203390000109771CC145FFF617AFF6B2002E1CBFF8B200287FF422AF286890F800B037E712
:2033B000296811F806B007490A6800205B4622F813005846BDE8FE8F684E0020004F0020E8
:2033D0007B4F002004260020844E00202DE9F84FDFF8B8A20F460446F80B80F00B81A64E97
:2033F000DFF88882B80F80F0BC80B80880F0B0803809C0F0318108200DF006F9002840F0EA
:20341000A28080200DF000F9002840F09C80684607F0C4FA012803D10098002800F093804D
:2034300091480078002840F08E8000250124E8B20CF016FF48B1837A3BB1847290F9090066
:2034500004FA00F0C0B20BF0D9F96D1C032DEED345464FF0030905F1AC0085F810900DF023
:20347000A1F98348002301680360824950F8082C98461A4640F8088C05F134000DF09EF9D9
:203490003068006B8047A968401A010BA869C1F1FF3282422CBF08444FF0FF30A861287FCE
:2034B00020B1E868A969B1EBC02F1ED90CF096FA414600B12146081C14D0704840F609011C
:2034D000018041464180427B64F303024273027B61F30302027341600CF08AFF418811F406
:2034F000406FFBD02C774146A9616548016821F0020141F400710160624941F8049C41F226
:2035100030028A600C6050268E600C604FF4CA628A600C6041F80C4C4446046002200BF0E2
:2035300025FB112006F042FB287818B9686838300DF050F9687F18B16C7705200BF016FB44
:20355000514868612C7409F005FC27F0080783E005F062FA45467435286808B927F00207E0
:203570007AE00DF025F9B3468146DBF85400016804208847D8B1207CC8B14546083528688D
:20359000A8B10646DBF80000E568006B8047801BE060000BE060A84202D240194008E0605F
:2035B00040F6C41181422CBFB0F5FA7FE16048460DF0F2FB0BF006F990B1A56920466FF459
:2035D000807100224FF00073A847464606F16C052868002808BF47F0020701D009F0BAFBF5
:2035F0002046646900214FF080630A46A04727F0005731E00DF0DCF851460E6846B306F1C1
:20361000280106C90A234FF0E0450B40154008BF002B1DD106F1280191E8300006F12803A6
:2036300093E8060006F12803AA43A14383E806000DF0B2FBB16869B1002D08BF002C09D0BF
:2036500030692246B6F93C10B4682B46A04701E00DF0A2FB27F4804727B150463946503020
:203670000DF0C0F8BDE8F88FD11E0020381D00201410044051D000008C01001094250020D6
:20369000000004600C4104407D990000B81D00202DE9F04FDFF8A4B2804609AFFF200E46A7
:2036B0001C460025ADF1240D97F8049007903F8830780592022805D17068008842F6021139
:2036D000814273D030460AF04FF85FA3069018B3401E0ED028460090019040F226210290E4
:2036F0000322039051A304904CA006F07DFE0A2091E066A00090CDF8048040F22121029499
:203710000122039745A0CDF8109006F06DFE5946142001F1040911E05EA00090CDF8048097
:2037300040F213210294012203973CA0CDF8109006F05AFE5946282001F10209B84214DD62
:2037500007EB040A50450ADBF06805992246C01907F0C0F9A9F800A00698079013E0284621
:2037700040F231214DA30D2504E028464FF40B7153A3072500900190029003900322049061
:2037900026A006F031FE0798FF280DD0DBF8080050B1066846B1E419A0B20090069A059B2B
:2037B00041F230114046B047284634E0B9F1FE0F0CBF0FF230190FF24819304609F0D4FF16
:2037D00000904FF4FC71CDF804800122CDF808904EA3039511A0049506F006FE0097032049
:2037F0000190059A23463146404609F0F1F9594608310F68051C0DD167B1786850B1304683
:2038100009F0B2FF00947C68059B024641F230114046A047E8B209B0BDE8F08F646174619C
:203830005F736572766963652E6300C041747472696275746520776173206E6F7420666F52
:20385000756E642E00C046C05772697465417474724342203A20257320636F6E6E48616EFB
:20387000646C6528256429206C656E28256429206F666673657428256429206D6574686F32
:2038900064283078253032782900C04653747265616D00C0537472696E6700C0496E7661C5
:2038B0006C69642076616C7565206C656E677468207761732072656365697665642E00C020
:2038D000416E20696E76616C6964206F666673657420776173207265717565737465642EF0
:2038F00000C046C02D20726573746F72696E6720626F6E64656420737461746500C046C035
:203910002D204F5441207772697465005772697465417474724342202843434344293A2018
:20393000706172616D3A20256420636F6E6E48616E646C653A202564202573005815002041
:203950002DE9FC41A0F2013714468846022F40F232819B4E9C493F1F0F2F04D9143F4CD046
:20397000BF1E1CD011E0DFE817F0CF00C9000D01FA00C100B9002601AF00A70010001000F8
:203990009D008F007F00740066002D2880F21381B8F1020F40F00F818849238807E1B8F1B0
:2039B000010F40F00881F078012800F00481324620781179107189B9002800F0FC8050786F
:2039D000012800F0B580042800F0B280062800F0AF80052800F0AC80BDE8FC8120780028C3
:2039F00040F0E9805078032800F0AF80072800F0AC80052840F0DF80A7E0B8F1010F40F095
:203A1000DA802078012840F0D68006F1EC000CF0FFFC002840F0CF803446002004F13A01AA
:203A3000FDF7A2FA002840F0C68004F1C8000CF0DDFEBDE8FC81B8F1020F40F0BC802088C4
:203A50000A28C0F2B880B0F5486F00F3B4808E1C17E0B8F1020F40F0AE802088B0F5FA7F38
:203A700080F2A9800E460CE0B8F1020F40F0A38020880628C0F29F80B0F5486F00F39B803D
:203A90003E363080BDE8FC81B8F1020F40F0938020880628C0F28F80B0F5486F00F38B80E2
:203AB0003C36EEE7B8F1010F40F085802078062880F28180454E0EE0B8F1010F7BD120786A
:203AD000042878DA0A3606E0B8F1010F73D12078082870DA09363070BDE8FC81B8F1010F69
:203AF00069D12078042866DA0836F4E7B8F1010F61D1207804285EDCF61DECE7B8F1020FD6
:203B100059D120880E36BCE7B8F1010F53D13079012850D032462078D178D07069B900282A
:203B300049D05078012803D0042818BF052842D101200CF09DFCBDE8FC81207800283AD1B2
:203B50005078022818BF052835D110780BF06AFB1C490246102003F003F8BDE8FC8106F18D
:203B7000830500211F22284608F00EF921464246284606F0AFFF44463078B4710BF052FB3E
:203B9000002311E006F1640500211F22284608F0FBF821464246284606F09CFF44463078C6
:203BB00074710BF03FFB01230094094901950246102002F0D5FFBDE8FC81C046B5EC000034
:203BD000A80C002099450110E80C0020E20C0020094501102DE9FC418E488F4A04788F483C
:203BF0008F4B90490D2C6FD8DFE814F012010E000E000E000E000A010A018E000A01C900F4
:203C1000C900E700E700EE00106041F204478648864DB0F802C08649BC451FBFB0F81AE0C6
:203C3000BE45B0F83280B8454FF4A0561ED181480068D0F800C09CF8040003280CF1080E63
:203C50000BD1DEF80E0000281CBFBEF81800002803D01F80784911608AE0022C1CBF1E80E6
:203C70000D46156000208CF8040081E0BCF1000FA3F800C041D0BCF1010743D0B7F1010CBE
:203C90003BD040F2FE37BCEB07071ED0A7F1040CBCF1010F20D94FF47F77BCEB070C1DD0C1
:203CB0004FF44067BCEB07070FD0BF1E012F0CD93F1F0AD07B1E012B0ED940F2F937DB1B48
:203CD000012B1AD91B1F09D09AE0022C01D115604EE01E800D46FAE7584DF8E7584B1C6808
:203CF000257A012D05D141F20243438043834386F0E7468046834686ECE700200CF08EF8A0
:203D1000832081E08F207FE04E498978FF290CD0106018204C4C41432068851C40F204467C
:203D30006C5A1C80A41B012C484B71D94FF47F76A41B0FD04FF44066A41B032C84BF641FD5
:203D5000012C0BD9A41E012C62D940F2FD36A41B08D103E0801C41F201444452136005F026
:203D7000A9F805E000200CF059F885200DF020F8BDE8FC4136480078012105F0B7BE40F2F0
:203D900004424888188090421CBF41F2084290423ED041F60402904211D12E4C2E482F4B00
:203DB00000680025CDE9004502222D4C256855F8086FB0472B4908802AE0488818800020F8
:203DD0000CF02CF885201FE04888188002280DD940F20442801A1BD040F6FC72801A05D087
:203DF000083815D04FF47F72801AE8D1887B801CC2B2B52AA8BF662088730020488007E05E
:203E100000200CF00BF88420BDE8F6410CF0D0BFBDE8F3816F4F0020204F00208507010055
:203E3000504F0020CC4C0020204A0020B1540110615A0110F44B002059550110755B011010
:203E5000104F0020684E0020804E0020313901106E4F002002000080EC4E00204DEC0000A2
:203E7000F04E0020424F00202DE9F04F8246DAF80070DAF804600C465FEA0208ADF11C0D22
:203E900014BF00214FF0FF31DFF8409248460CF054FA002818BF0B2040F0158100258F4842
:203EB0008C4905708A48FC6052460CF087FC317B27200CF085FCB8F1010F07D0657002206C
:203ED0000BF036F806200BF033F801E0012060702078012840F2AA80801E012868D9801EC8
:203EF000012833D9801E012800F2DE800CF060FC83464FF0805000F5EE77D0F8DC01A3781C
:203F1000466A009321782846062908BF0120019001200290A068228AE1686368B047814666
:203F300058460CF039FFB9F1000F40F0BF80B8F1000F02D00CF072F802E050460AF0CCFE4B
:203F5000002800F0A3803868806A2AE00CF030FC83464FF0805000F5EE77D0F8DC0101235F
:203F700006680093A168A27860682478AC46042C08BF9C466346B047814658460CF00CFFD2
:203F9000B9F1000F40F09280B8F1000F02D00CF045F802E050460AF09FFE002876D0386836
:203FB000406880474C49C1F8B0510D6081467DE00CF0FEFB83464FF0805000F5EE77D0F8B3
:203FD000DC01E38A86690093E0680190208B0290A0780390207D0490012105912278284653
:203FF000022A08BF081CE1786268A368B047814658460CF0D1FEB9F1000F57D1B8F1000FAC
:2040100002D00CF00BF802E050460AF065FE00283CD03868006A80475FEA000946D1E07824
:20403000A168E28A236907F0B1FBBFE70CF0C0FB83464FF0805000F5EE76D0F8DC01E38A2C
:20405000C7680093E0680190208B0290A0780390207D2946049001200590257805B90146D5
:2040700008466268A368E178B847814658460CF093FEB9F1000F19D1B8F1000F02D00BF09B
:20409000CDFF02E050460AF027FE08B914201AE03068406980475FEA000907D13068026989
:2040B0002169E078904781E74FF0FF39B8F1010F05D002200AF05AFD06200AF057FD034898
:2040D0000CF088FB484607B0BDE8F08F70180020A818002075F50000504502402C260020AD
:2040F000F0B507460020ADF11C0D0E46044664A500900322019464A30294DA210394284649
:20411000049406F071F964A3B81E09D0801E00F09E80401E7DD0401E5DD0401E3CD01BE09A
:20413000012E0CD00094019428460294ED2103940322049406F058F9EE215AA393E000947B
:20415000019428460294E82103940322049406F04BF9E92158A386E0009401942846029487
:2041700040F2051103940322049406F03DF90094204601904FF4837102900322039054A364
:204190000490284606F030F901208DF817009DF817000028FBD170E0009401942846029414
:2041B000FF2103940322049406F01EF90094204601904FF480710290032203904AA30490E4
:2041D000284606F011F901208DF816009DF816000028FBD151E00094019428460294F9218E
:2041F00003940322049406F0FFF8009420460190FA2102900322039040A30490284606F0A3
:20421000F3F801208DF815009DF815000028FBD133E00094019428460294F321039403223A
:20423000049406F0E1F8009420460190F42102900322039036A30490284606F0D5F801205E
:204250008DF814009DF814000028FBD115E00094019428460294E02103940322049406F0AB
:20427000C3F8E1212EA30094204601900290039003220490284606F0B7F807B0F0BDC046BA
:204290006D61696E2E6300C03E3E3E535441434B20415353455254002A2A2A4552524F52EE
:2042B0002A2A2A003E3E20494E5445524E414C204552524F522100C03E3E20494E544552CE
:2042D0004E414C204657204552524F522100C0463E3E2044454641554C54205350494E4C1E
:2042F0004F434B2100C046C03E3E2057524F4E47204150492043414C4C2100C03E3E2049C5
:2043100043414C4C2054494D454F55542100C0463E3E204943414C4C2041424F5254210049
:204330003E3E204F5554204F46204D454D4F5259210070472DE9F04385B011F8017B044606
:20435000082F04F1FD0004F1FC0804F1760504F5A076844A844BDFF8149213D0092F21D086
:204370000F2F2FD0112F01BF287801286878102840F0D5800A78327648787076012184F81C
:204390003D11EBE00025521C4E5D5F5D3E434E55575D3E4046556D1C082DF5DB204608F01D
:2043B000D7F974E00024571C0D5D1E5D35430D553A5D15400555641C082CF5DB022088F807
:2043D0000000CBE098F80100820704D410F0110F57D01A2266E008784A7800EB0220308068
:2043F000CA78887800EB022070804A79087900EB0220B080CA79887900EB0220F080087AAA
:2044100030724A7A887A02EB00227281C87A0A7B00EB0220B0818A7B487B00EB0220F081D7
:204430000A7CC87B00EB022030828A7C487C00EB022070820A7DC87C00EB0220B082487D4C
:20445000897D00EB0120F082494801788A0658BF1A2212D504F5A670049071890391307A19
:20447000029021890191F0880090B38872883188204607F063FEE0B11E2298F80100410700
:2044900010D40F2088F8150020460CF081FC002864D199F8000005B0BDE8F0434FF4804106
:2044B00005F024BB204605B0BDE8F0430F210CF06BBC7088A882B188E9820221F0882883C6
:2044D000297400206882A18EA88AC91DE981618EB0EB510F02BFE88AA18E884202BF288BEA
:2044F000E18EB0EB111F18D02878012804BF68780F2805D0687918B10F21A972FE2127E0F7
:20451000FC2120460CF03CFCF0880090B38872883188A0790CF030FC20E0102118E0491E0D
:2045300020460CF025FC032F18D1A878042818BF0D2813D16E78142E18BF0E2E0ED12F78D0
:2045500020460CF011FC012F06BFAE72FD213146204605B0BDE8F0430CF012BC05B0BDE81B
:20457000F08300BFEC4D0020F42500206E4F0020144E002010B50B7884074CBF43F00203F2
:2045900003F0FD0304064CBF43F0800303F07F0304074CBF43F0080303F0F70384064CBF02
:2045B00043F0200303F0DF0310F0AA0F0B7003D0107840F00C0003E018B9107800F0F300D6
:2045D000107010BD2DE9F8430D4600272878022814461E4667D1696808784978DDF820806C
:2045F00000EB012080B25FEA08021CBFB0F5285F0B205BD14FF42851401A08D0401E21D07F
:20461000401E2FD0401E25D0401E31D04BE0DDF82490E8680CF0F4F880B2A0EB08024A4539
:20463000BCBFA0EB08001FFA80F909EB0800162806DAA6F800904A46E86800EB08010DE0C1
:204650000D2732E0E8680088022131802070000A60702AE0062030800622E96820460BF034
:204670000DFD22E001203080E9680A7822701CE0E868B0B1082131800288227003881B0A95
:2046900063704188A1704288120AE270818821718288120A6271C188A171C088000AE07193
:2046B00003E0308001E0378001273846BDE8F2832DE9F0470F4681463878002402289046C2
:2046D0001D466DD17868089E01784078DFF8D8A001EB002189B24FF42852891A06D0491E3E
:2046F00029D0491E4ED0491E39D059E0F8680CF087F880B2B04204D3A919162903DB0D249D
:204710004FE007244DE0FB682A46414698190BF0B5FCAD19F868ADB2C5F11602002140197E
:204730000CF06CF8DAF8000000281CBF0268002A37D0002123E08EBB022DE0D198F80000BC
:2047500098F80110FA6800EB01201080DAF8000000281CBF0268002A23D001210FE0EEB996
:20477000062DCCD1F868062241460BF087FCDAF8000000281CBF0268002A12D003214846CF
:2047900090470EE056B9012DB9D198F80000002813BF0128F9680870802402E00B2400E05C
:2047B00001242046BDE8F087142600207CB5894D144602460026A2F58062182A1AD8DFE8A5
:2047D00012F0FE00F800F100E900E200DC00D500D0001900C500BE00B700AE00A3001900D7
:2047F000190080006F00680054004C00420039002C0024002D2880F28580022940F08280A5
:2048100021880AF04FFA0646E1E0012940F0DE80002C00F0DB801135A6E0102940F0D680D5
:20483000002C00F0D38028465030102221460BF025FCCCE0012940F0C980002C00F0C680A5
:2048500029468D1D90E0262940F0C080002C00F0BD8005F160002622E8E7012940F0B680AA
:20487000002C00F0B3806D1D7EE0602900D13CB9012940F0AB80002C00F0A8800D3573E044
:2048900005F18600214660220BF0F8FB012068739DE0012940F09A8020780CF061FA96E063
:2048B000012940F093802078022800F38F800C3528702078022814BF301C01200CF04CFA9A
:2048D00085E0072940F08280611C684606220BF0CFFA20786946324605F0E2FC04460A2CD8
:2048F00010DA0CF035FA38B9204603F069FC0AF0EDFE08F091FD6AE02A46012002F12C057A
:20491000285564E0022662E001295FD1A87B21780028A9735BD12078012858D1E9E70129F2
:2049300054D12478072C51DB102C4FDC0B3537E001294BD124780A2C48DA093530E00129D7
:2049500044D12478022C41DA083529E000293DD10CF0FEF910B90BF025FCC8E701240F35E0
:204970001EE0012932D10A35247819E001292DD12478022C2ADAED1D12E0102926D12B4695
:2049900003F1400051E7012920D12478022C1DDA2D1D05E0012919D12478042C16DCED1CB5
:2049B0002C7014E0012911D12478022C0EDAAD1CF6E702290AD120881435288007E0012943
:2049D00004D12478022CD8BF6D1CE9DD182630467CBDC046BC1100202DE9FE4F05467B48F1
:2049F000002400680094C00905D37948007810B920200AF08BF9012D40F0E280DFF80092FD
:204A1000D9F8DC00012840F0D8800220C9F8DC000BF0A4FA01200AF079F95FEA000805D01D
:204A30000120C9F8DC000BF0A5FACBE00BF0D6FEA34602906748684DC0F800B0A86A0168D2
:204A500001208847012804D1584607F0EDFE012000906248624FC0F800B0386811200BF098
:204A7000CDFD00B1012410200BF0C8FD08B144F002040F200BF0C2FD08B144F004040B209A
:204A90000BF0BCFD20B12868564E016B308888470A200BF0B3FD20B12868534E016B30885F
:204AB00088475248012606602868816944F0200088474F4806600BF09BFD00F0010101913F
:204AD000400814D2286A81684A4888478246BAF1040FF7D0BAF1010F04D1286A4268454816
:204AF000032190474449086820F003000860584600F088F82B683868986B80470198012866
:204B10000CD0BAF1010F04D1286A42683948314690473949086840F0030008602F480660A4
:204B300028684169204688470B200BF067FD20B128682C4BC16A188888470A200BF05EFD7A
:204B500020B12868284BC16A18888847274806600322C9F8DC20264BC3F800B02868416B08
:204B7000204688470128F9D1386804200AF0CEF80446184806603868144800688009FBD3AE
:204B90000098012802D1304607F04EFE0BF01DFD08200AF0BBF807460298C9F8DC600CF0EE
:204BB000D3F81648008807F073FB0BF0E3F957EA040018BF4FF0FF3804E06FF0040801E036
:204BD0006FF001084046BDE8FE8FC046141009402C1500200C400940B8010010000222430C
:204BF0002C2009403A1901003619010028200860800104430040034024220840981D01002D
:204C1000441400202DE9F84FDFF804B20746ABF13500DFF8F0810068800880F0E28075483D
:204C30000068006880477E490831D1F8009000254FEA29715FEA995201F101010AD2C0F1C7
:204C50003E0210F10A0F4FEAE202D8BF08229142B8BF111C684BD3F87C21C2F30462162A1F
:204C7000A8BF203A1B68C3F30443162BA8BF203B9A465218162A05DA12F10A0FB8BF6FF085
:204C9000090200E015225D4B5D4E02F01F0141F4F8511980316811F0030F18BF0125C908EC
:204CB00028BF45F002050FB145F00405434693F90710411A052904DA9979A94208BF99884B
:204CD0006FD0DFF844E10F28A0F10F0829DB08EB0011A1F1F0084FEA28210091072984BF92
:204CF00007210091062988BF06215EF821600424774604EB81043C594FEA950CA41BEE08FA
:204D100004F0FF0124BFC4F3072631446F08AE0824BFC4F3074631446E0828BF01EB14610C
:204D300004E000214FEA950C6F080091009C5EF824E05FEA5C060EF0FF0424BFCEF3072609
:204D500034447E0824BFCEF3074634446E0828BF04EB1E64009E89B2A8EB06267143803111
:204D700004EB1124AAEB02010029D8BF0121342209F0FF074A4391B24FF6FF727943B1FB42
:204D9000F4F18A4238BF111C802889B2998005DA10F1800FB8BF6FF07F0000E07F20D871A6
:204DB0009D711A4800681F2918604FF0000008D340F2FF128A4206D24908401C8A42FBD303
:204DD00001E01F219980134F0F39090940EAC10047EA0001CBF8FB1F0026CBF8FF6FBDE8D7
:204DF000F88F0D490D4F434608200F609B1D1870BDE8F88FEC0100103C1100506E6208402C
:204E100024220840FC2500209C130050082009403500094000E7A48030100940FDFDA40093
:204E3000AC3F00502DE9F04F804C0546E06893460F462E1CADF1140D16D0761E06D0009557
:204E5000002040F2311139A305465BE00646002047A240F22D1104F1040804F1100914253F
:204E70004FF0010A84460AE0002043A24FF4917104F1020804F1240928258446E2460092E8
:204E90000197034602900122CDF80CC023A0049330A305F0A9FABD422FDB484659463A4660
:204EB00005F018FEBAF1000FA8F8007032D0B078002808BF32A103D001280CBF37A13DA1A4
:204ED0003088002700903D46012201913EA3029740F24111039511A0049505F085FA0620A1
:204EF0000090534F207804F14C0349462A4601903046029705F0D4F80CE0009700204FF44E
:204F1000A5713CA30190029503900322049003A005F06AFA05B0BDE8F08FC04664617461A3
:204F30005F736572766963652E6300C0536574506172616D657465723A20506172616D6543
:204F500074657220232564206E6F742076616C69642E00C0536574506172616D65746572CE
:204F7000203A202573206C656E3A20256400C04653747265616D00C0537472696E6700C064
:204F90001B5B33336D4E6F74692F696E642064697361626C65641B5B306D00C04E6F7469EF
:204FB0006669636174696F6E20656E61626C656400C046C0496E6469636174696F6E20655C
:204FD0006E61626C656400C0547279696E6720746F2073656E64206E6F74692F696E643AD3
:204FF00020636F6E6E48616E646C652025782C20257300C04C656E677468206F7574736970
:20501000646520626F756E64733A204C656E3A202564204D696E4C656E3A202564204D619C
:20503000784C656E3A2025642E00C04658150020797100002DE9F0410446804DA178A869B3
:20505000ADF1180D891F00F0F280C91E00F0DD80491E5FD0491E48D0C91E3CD0481E40F0A1
:20507000E980287A697AB8B96878002831D0A0880BF066FE071C00F0DD80A07A40080FD37D
:20509000787968B1E168890A0AD2B91D01AA05F007F90A2804D10321A0880BF04DFEC9E086
:2050B000287B022802D1A07A0009F4D3A088797904F1080201F08CFCA869002800F0BA8061
:2050D0004368002B00F0B68000210A46A0889847B0E00521E0E7002800F0AC804368002BB5
:2050F00000F0A88062780221F0E70BF0B1F9002800F0A080A86950B1076847B12069009045
:205110006189227B637BE01C3C46A04792E060890121C2E767784FF00008002F66D1A179E9
:20513000490863D3EF69002F60D101A841460E220BF064FBA0880BF003FE071C7AD060690C
:2051500040B97879B91D06228DF80A0001A80AF095FF19E06669307C062206F111018DF867
:205170000A0001A80AF08AFF07F10C00B91D06220AF084FFB81D062206F111010AF07EFFED
:20519000307C40F002007871A079C00839BF387900F0FD00387940F002003871A079000913
:2051B00039BF387900F0DF00387940F020003871A1799DF81120C1F3800010438DF81100C0
:2051D000080905D39DF8110040F008008DF8110001A8214600F010FE28B92878022104F0BC
:2051F00085FC404627E0A8694FF0150810B3436803B3A088627801219847B8F1000F19D05C
:20521000A86943680321424660E7E078211D002205F046F80A280DDA410001EB800004F129
:205230000C0225300421C0B203F07AFB02E0A08808F0EAFA012006B0BDE8F081BC1100203C
:205250002DE9F04F044672488E46016894461F46BEF1000FADF13C0D4DD0BCF1000F4AD0D1
:205270009EF8002001209040014244D0BCF80000B0F5C15F32D1DCF81400DCF81860654BC0
:20529000DCF81C50DFF890A10B904FF003080DF128090C9618680D95C0F3036B59F8046FF9
:2052B000CEB10021351F05200B4655F8042FB2F1FF3F10D0924506D0401E01F1040103F13D
:2052D0000103F2D107E0052B05DA705820F4702040EA0B407050B8F10108DFD1C4F804E05E
:2052F000C4F808C00BF064FA4C4D8046287820B140460BF051FD002087E002F011FD48490A
:20531000086840F00200086007A80BF079F8002605F1D00007AA4349099609F0D1F8424943
:2053300005F5827007AA09F0CBF807A80BF038F8FF20192107AB3D4A089005F1340009F0DD
:2053500027F83B4A05F150001A2107AB09F020F83849324605F18800134608F0DDF9364938
:20537000324605F1AC00134608F0D6F9334A05F12000042133460AF01DF90E2004F02CFD57
:2053900005F174000AF03AFF05F16C000AF036FF2E740523EB60072085F898012E77AE61C9
:2053B0006E772849AE60264A69612B781670581C287040460BF0F0FCB1461FB968460AF026
:2053D00031FF6F4638682060388A6082012060747B6813B940F6C4130646E3601A48A06171
:2053F00026746061F86800B1A061B86800B160614946582204F1200006F0C6FC04F138009B
:20541000494609F093FF6C6020460FB0BDE8F08FD4210840541300500200F844381D0020A6
:2054300000200940B5FF00009D95000051D00000DDC90000CDF9000085FD000045DA0000DF
:20545000262600207D990000AFA200002DE9F0477C4C2369E5680F4691460FF2D40A011C53
:20547000ADF1180D11D0491E07D000220746154640F2471133A328464DE043A040F243110C
:20549000A61D04F102081D4605E041A04FF49C71261D04F101080090019700200290012283
:2054B000039032A30490504604F09EFF022F2CDA5FB3404649463A4605F00CFB3780A87808
:2054D000002808BF34A103D001280CBF39A13FA12888002700903E460122019140A302975B
:2054F00040F2571103965046049604F07DFF07200090554F207804F114034146324601903A
:205510002846029704F0CCFD0FE0012200204FF4B0713EA3154600970192044602950322B5
:2055300003905046049404F05FFF06B0BDE8F087627574746F6E5F736572766963652E63F9
:2055500000C046C0536574506172616D657465723A20506172616D657465722023256420C1
:205570006E6F742076616C69642E00C0536574506172616D65746572203A202573206C65DC
:205590006E3A20256400C046425554544F4E3100425554544F4E30001B5B33336D4E6F7411
:2055B000692F696E642064697361626C65641B5B306D00C04E6F74696669636174696F6EF6
:2055D00020656E61626C656400C046C0496E6469636174696F6E20656E61626C656400C05D
:2055F000547279696E6720746F2073656E64206E6F74692F696E643A20636F6E6E48616EEE
:20561000646C652025782C20257300C04C656E677468206F75747369646520626F756E642D
:20563000733A204C656E3A202564204D696E4C656E3A202564204D61784C656E3A202564FD
:205650002E00C046A0160020197000002DE9FE4F0E468246307AC10693461F464FF0000931
:205670000CD558460BF064FB030000F0E8800A223146504698475FEA00094DD130780C9D0D
:205690000D9CDDF8388002281AD170680178407801EB002189B24FF42052891A012910D9F3
:2056B000891E3AD0491E14D0FD397AD0491E00F08180491E6DD0491E73D0491E00F095804C
:2056D000ABE0002C2AD1F068017829800278416887E0002C22D101202880F1680A783A7097
:2056F00000217089401C80B20BF01EFB298860B10278921C51182980418979704289120A48
:20571000BA7041680278F81C6CE0091D298004220021781C0BF072F893E0002C66D1F0688F
:205730000688042129803E70320A7A700DF1020130460BF0F9FA040021D0D4F80C80BDF8C2
:2057500002204FF6FF766B4631460BF0E9FA40B9237862683C4802210BF0DEFA08B9ADF819
:20577000006098F8000002280BD1D8F804100222381D0AF083FC2888801C288001E0ADF8D3
:205790000060BDF80000B870BDF80010090AF97057E0002C2AD1F068016850460AF0F0FDDF
:2057B00002E01CBBF0680088022129803870000A787046E0F0680BF023F880B2A042B8BFBB
:2057D0004FF007093DDB844208BF002205D008EB04028242B4BF4246021B2A8092B2F068B3
:2057F000011938460AF04AFC2BE014B14FF00B0927E0F0680721298002783A7043787B70A4
:205810004188B9704288120AFA7001793971C2887A71C088000AB87113E058460BF078FA64
:205830005FEA00090BD00F980290CDF8048000942B463A4631465046C847814601E04FF021
:205850000E094846BDE8FE8F461B01002DE9F04F09AF3D7981461C468A460846ADF1240D26
:205870003F88069208F020F80026FF214BA3DFF8C8810790089108B3401E0ED03046009028
:20589000019040F2EB110290032203903CA3049037A004F0A9FD0A2066E051A00090CDF855
:2058B00004904FF4F37102940122039730A0049504F09AFD404600F1040B0FE04AA0009067
:2058D000CDF804904FF4EC7102940122039728A0049504F089FD404600F1020B05901FBB9E
:2058F00007EB0408B8F1020F18DAB8F1000F03D1182D10D0122D0ED0DAF80C00069922463B
:20591000C01905F0E7F8B8F1000F1BD0ABF800800798089016E040F2FF1101E04FF4FB7105
:20593000304633A30D2604E0304640F2F11139A307260090019002900390032204900CA096
:2059500004F052FD0898FF280DD00598806850B1056845B1E419A0B20090079A069B41F213
:2059700010114846A847304609B0BDE8F08FC0466C65645F736572766963652E6300C04604
:2059900041747472696275746520776173206E6F7420666F756E642E00C046C05772697491
:2059B00065417474724342203A20257320636F6E6E48616E646C6528256429206C656E28C5
:2059D000256429206F666673657428256429206D6574686F64283078253032782900C046E5
:2059F0004C45443100C046C04C45443000C046C0496E76616C69642076616C7565206C650B
:205A10006E677468207761732072656365697665642E00C0416E20696E76616C6964206FC0
:205A3000666673657420776173207265717565737465642E00C046C0101800202DE9F04F50
:205A5000754F1E46ADF1340D01914FEA960902923D680090710809F1020221F0010105EB82
:205A70008200091D0390901805EB80000490501805EB80038018059305EB8000079026F007
:205A9000030000F1080802EB080005EB800340180893801805EB80000990C6F39C00800021
:205AB000083002EB4000411805EB800305EB810B0A938918831805EB8104404405EB8303E1
:205AD000C6F3990105EB80008900069038680B930A010021803206F057F94849DFF820A149
:205AF00009682846AAF1880290470746B94518BF6FF001007ED128465546394605F1680202
:205B10009047019831460AF069F8002818BF012070D1029831460AF061F8002818BF02204D
:205B300068D103980199A84704980299A847009881680598A847334B0399059A20469946C7
:205B5000C847012802D1BD0066590EB1032051E020460021424606F017F90499059A2046E4
:205B7000C847012801D166590EB1042042E0274B254D079803991E462A46B0470898049920
:205B90002A46B047079909980A46B0470A980999079AB0471E4D0B9807992A46B0472046AF
:205BB0000021282206F0F0F81A4B0A990B9A20469946C847203520462A460146C847089969
:205BD00058460A46B04706980021424606F0DCF8FDB25846002D0CBF0122FAB20021635CCB
:205BF000455CAB4218BF052004D1491C521EC9B2F5D100200DB0BDE8F08FC0468C4F00201E
:205C1000B9DB0010C9DE0010641B0020F9E000102C1A0100C9E60010884F002070B5744EAD
:205C3000401E43A5ADF1280D44D0401E3ED0801E2BD0401E25D0401E16D0401E05D0401EFA
:205C500074D140F296313EA302E04FF462713EA30020024600900192029203922846049284
:205C7000012204F0C1FB61E040F2153006A902F015FA06A807F040FE002240F2833139A312
:205C9000E8E740F2913141A302E04FF4637145A300200090019002900390012204902846E1
:205CB00004F0A2FB30460BF02FF83FE040F2793141A3CDE74FF4417008A902F0EFF99DF804
:205CD00021308DF819309DF822208DF81A2000248DF81C4021468DF81B109DF820008DF8A9
:205CF00018009DF825308DF81F309DF824208DF81E209DF823303F498DF81D3006AB58686F
:205D100048601A680A6008A807F0F6FD00902046019040F2733102900122039029A3049040
:205D3000284604F061FB30460AF0EAFF0AB070BD70726F6A6563745F7A65726F2E6300C0EE
:205D50004572726F7200C046436F6E6E656374656420616E64206164766572746973696EE4
:205D70006700C046436F6E6E65637465642E205065657220616464726573733A201B5B3330
:205D9000326D25731B5B306D00C046C0436F6E6E656374696F6E2074696D6564206F757428
:205DB00000C046C0446973636F6E6E6563746564202F2049646C650041647665727469730B
:205DD000696E670047415020697320737461727465642E204F757220616464726573733AC6
:205DF000201B5B33326D25731B5B306D00C046C0EC080020F70F00202DE9FF478146714CA0
:205E1000DFF8BCA1E069884600284CD1B9F1000F00F09480B8F1000F00F09080484609F0E6
:205E300035FB05460A2D23DAD8F814702574002F37D0680010216A4600EB85002330C0B202
:205E500009F026FF90B950460778FF21102268460AF045F850B93FB999F80600494600F068
:205E700001000AF049FF01E00120A074E0691AE004F1E6070A2600253846FF2106220AF07F
:205E90002EF868B9761E07F10E0705F10105F3D1607C002804BF0A2020744FD094F8365094
:205EB0002574E06900E0257C0A2D47DA002835D168000E214A4600EB85002030C0B202F09E
:205ED0002FFD207C07F002FE6846FF2110220AF095FC207C10216A467030C0B202F020FDCA
:205EF000217C0E220801A0EB410000194946E6300AF0C4F8D8F814206AB15046007840B956
:205F1000107C02F11101002300F001000AF0F0FE01E00120A074C4F81C804CE08268002A36
:205F30003ED10269002A2FD142690ABBC2683AB9A07B08B109F074F809F09BFE01203BE019
:205F50006800102100EB85002430C0B202F0E8FCE769217CFA68480000EB810010322530F2
:205F70000421C0B202F0DCFCE1690020C86022E06800102100EB85002330C0B202F0D0FC90
:205F9000E1690020486116E068001C2100EB85002230C0B202F0C4FCE169002008610AE0A0
:205FB00068001C2100EB85002130C0B202F0B8FCE1690020886000200090BDE8FF87C04620
:205FD0005A4F0020BC1100202DE9F04F6C4CA068ADF13C0D002800F0858004F1B80B4FF0EB
:205FF0000D0A4FF00A094FF0010878E00AF07CFE2178CA0002EB41125A44B2E8E01004AB9A
:20601000A3E8E010E0CAE0C364CA4F1C07F01F0183E8640004F10C05627821708A4208BF25
:2060300084F802800AF0B8FEBDF83630A6212FA2284609F061FF28460AF04EF9049F461977
:20605000B8B209F07BFD4AA20CCA02F0EBFB4AA20CCA02F0E7FB07F017FE009025A2A91BFE
:206070003B0C3046A63109F047FF28460AF034F9BDF834704019BF1E04D07F1E14BF21A212
:2060900029A200E031A206990091059B2F1A07F1A60109F031FF28460AF01EF94219A068AF
:2060B0002946521B0AF030FB099800900A9E01960B9F02970C9B0393089B079AA621284666
:2060D00009F01AFF28460AF007F9421902F801AB02F8019BA0682946521B0AF015FBA07899
:2060F000002883D00FB0BDE8F08FC04623253036752000C05B2025642E25303375205D205D
:2061100000C046C01B5B33323B316D494E464F3A201B5B33303B316D2825733A25642920F1
:206130001B5B306D00C046C01B5B33313B316D4552524F523A201B5B33303B316D2825736D
:206150003A256429201B5B306D00C0461B5B33333B316D5741524E494E473A201B5B33300C
:206170003B316D2825733A256429201B5B306D00000000000000F03E0000000000408F401A
:20619000080200202DE9F0430546880FADF1140DC0F0BF80604C201D006840688768C668D6
:2061B000406800B18047002F08BF002E08D00AF043F807B1B84706B1B047584809F0E6F9A1
:2061D00057480AF015F9574A40F60A0CA2F800C000205080117B60F3030111735060517BEE
:2061F0004FF0010969F303015173AB686E7C58801988A1F60201C9B141F21E07C91B15D077
:2062100041F6E677C91B012920D8597E012E60F38201597606D0198B21F47C7141F43471D3
:20623000198313E0198B60F30911F9E7597C012E60F38201597405D0198A21F47C7141F478
:20625000347102E0198A60F309111982D5F8088068746146464600E03E46776817B13B88CA
:206270009942F9D17260737B60F303037373E76E3FB1FB681B88CF1F9F421AD0891F9942E3
:2062900017D02F8CB7B1686205F12001488095F82C3060F3030385F82C3095F82D3069F3DA
:2062B000030385F82D305160517B60F30301517300E0A0601C4801688768C56800911022CA
:2062D0006946406B019720F0784040F0805003901648029504F0FEFB09F0AEFF14486061BC
:2062F000607F68B91348006801684846884701280CD0707B69F3030070730F4F676105E0C8
:2063100007F046FF0028FBD00AF060FA40460AF06FF805B0BDE8F083381D002001000706B3
:2063300001010E04942500204C13005018000021DD330000E001001071D200002DE9F04FDF
:20635000ADF1240D079001F0EBFC5F48007809F00BFA5E4D0024012806D90C3804D0401E85
:206370000ED0401E09D006E009F0E0FD022804BF01210C1C06D0696805E005211F2401E02F
:20639000032107246960524A1068C0F38150012806D152F80C0C0127020E07FA02F0044369
:2063B0000AF01EF805F1440AFF2253464018401E471C28607F1E03F8012BFBD1079A126873
:2063D000002602F0FF03FE2B1DD0DDF81CC0964633460EF0FF07FF2F0ED0B84205D3B9429A
:2063F00003D80122BA40144201D0022069E016430EF0FF020AF802305CF804EF5B1C0EF0BB
:20641000FF07FE2FE7D1092003F0E6FC07980121A86005F1280008F089FF00274FF0010BAA
:20643000B9462846804600F198050BFA07F0044216D1064204BF07F0FF0141F4C04104D056
:206450001AF80700079951F82010224801F0D4FFF8B24FF0FF3109F0ABF9C5F8009001E0E8
:2064700004202860D8F800007F1C2D1D8742DCD904A809F095FF184C184A2078102104ABB6
:20649000059008F10C0007F083FF684609F0B8FFCDF80C906A4660681149029008F1640059
:2064B00008F00EF80F4951F80D0C20F4F85040F4005041F80D0C0C4FC1F8FFBF4846C7F8C3
:2064D00000B009B0BDE8F08F2D26002030130020B43F0050007FC767A41E010069FD000030
:2064F00061E100000D3009400800094061480178002900D170472DE9F843491E032984B088
:2065100004D9891F012940F2B180A9E05A4CDFF86C912068DFF8688103685A4E03F10805FA
:20653000062205F1080102A809F0A8FD0622A91C684609F0A3FD2878C1091D2700F00F02F9
:20655000032AC0F3801537D16079C0F3800081421ED12169062202A809F0C0FA00287AD06F
:20657000694628460AF04CFC002874D0314668460AF042FCFF286ED04743D8F80000807A2A
:20659000F519002818BF02280AD0012818BF032861D1F25D691C48460AF0A2FB10285AD022
:2065B0006B46EA1D294648460AF096FB06226946E81D09F063FD4EE000F00F00052855D1D6
:2065D0006079C0F38000814245D12169062202A809F084FA00283ED0694628460AF010FC9A
:2065F000002838D0314668460AF006FCFF2832D04743D8F80000807AF519002818BF012887
:206610000AD0022818BF032825D1F25D691C48460AF066FB10281ED040F2024007F06EFFB3
:206630006B46EA1D294648460AF056FB06226946E81D09F023FD1448144A41F20441418062
:2066500041834186124801801249134811600121007803F04BFA21680A680020107105E04A
:20667000002009F0DBFB86200AF0A2FB05B0BDE8F08300BF6F4F0020F44B0020CC470020E2
:20669000104F0020AC450020204A0020204F0020504F0020595501106E4F00202DE9F04F91
:2066B0000746ADF1140D0393002F02920E9801910F9C049000F0B680081C00F0B380101C55
:2066D00000F0B080181C00F0AD800498002800F0A980002C00F0AB80206A002800F0A28051
:2066F000564D666A281D0068002E00F09B80A16A0AF0EEFA40B2002808BF6FF0020700F00B
:206710008D8084F82C002078618800EB80000918143188B2216A88474749086030B928467F
:2067300040680AF0D1FA4FF0FF3777E08B46628823786088DBF8001025789E1800EB010AA6
:20675000701800F1040805EB450002EB4306851876186D18C01805F10C098018401800F1C5
:206770001005204607F024FA2078C01C8010CAF800002078C01C8010C8F800002078083619
:20679000C01C801030602078C01C8010C9F800002078C01C80102860227839460AF1040084
