:200000000040002081EF000001C9011001C9011001C9011001C9011001C9011001C90110EE
:1C00200001C9011001C9011001C9011001C9011001C9011001C901103FC9011089
:20003C002DE9F04FADF1440D01F074F99D48001D07909C489A4C083008909A48103809900C
:20005C0098480C380A90974808380B9095484FF00009C84600F59E700C9004F5B470C8381D
:20007C000D90A068B04A49464FF0FF3300F010FC0028F6D0484605900DF11A0105AA06A842
:20009C0010F074F8002840F08980BDF81800012710287ED120789DF81A10884279D1059DEE
:2000BC0028884FF6FF71814273D02E78913E5DD01F3E6ED1687816282CD028797E281DD02D
:2000DC007F280FD0009048464E4601904A46029640F232510392B6A304963A46B0A00AF00C
:2000FC00E1FF34E0288900904E4601964A46029240F22D510396B8A30492EEE7287A00901F
:20011C004E4601964FF4A561029603220396B9A30496E3E728794E4600904FF4A261019697
:20013C0002220296C2A303969DA0CDF810900AF0B9FF266C8EB94FF6FD70D049D04A009047
:20015C004B46102007F0D2F8266CC3B22BB1297905F1080000F0A0FB1BE046F0010638463D
:20017C00266409F065FE4F46256112E068780E280FD1CDF8009048464E464D46019040F2AD
:20019C00F3413A460296D0A3039585A004960AF089FF059810B10FB111F000FDE06800F057
:2001BC007FFB00287FF45DAFE06800F07DFB014601F10905097A0E90002900F02282491EC6
:2001DC0000F06081491E00F0D580491E00F0CF82491E69D0491E43D0491E03D00A3900F057
:2001FC00C182C7E2206C4008C0F0C4822769002F00F0C082A07807F10806401CA070CE499B
:20021C0000967A883B79102007F070F85FFA80FABAF1160F14D0276CBAF1040F10D037F008
:20023C000107276408D14FF6FD709449944A00900123102007F05AF8504609F0F9FD99E29C
:20025C00206900790090A0784F464E464D46019002220297BBA3039640F27C51049565E1F9
:20027C00C77A00F10905002F0CBFC2A0C4A000904E464F4640F23931484601900122029732
:20029C00C1A3039646A004970AF00CFF48460090A8492A884B46102007F028F86AE2C046D4
:2002BC00200500204C05002000F10905407A0D2814BFC2A0C4A06F78002F0CBFC5A1CAA133
:2002DC004E460122CDA300904F4601914846029040F2D331039732A004960AF0E3FE2F7846
:2002FC000D3F23D07F1E40F0458201206A1C014605F060FD6F78002F00F03C82CE49484666
:20031C000CF032FE079904200CF02EFE089905200CF02AFEE06A401CE062206B801C20632D
:20033C00606BC01C606325E20F0000C06A1C4846012105F03FFD6F78002F00F01B820999B5
:20035C00484609F0E9FF0A99012009F0E5FF0B99022009F0E1FF0FF09BFFE069401CE06153
:20037C00206A801C2062606AC01C6062A06A001DA062FFE12F8841F210102A463F1A09D09C
:20039C00103F40F0F781287969886D1D2A4605F011FDEFE110795188521D07F0F9FFE9E161
:2003BC0070726F6A6563745F7A65726F2E6300C052656365766965642047415454204D6571
:2003DC0073736167652E204F70636F64653A2030782530327800C0464D54552053697A658E
:2003FC00206368616E67653A20256420627974657300C046466C6F7720636F6E74726F6C72
:20041C002076696F6C617465642E204F70636F6465206F66206F6666656E64696E6720417A
:20043C005454206D73673A2030782530327800C04F7574676F696E67205246204649464F88
:20045C002066756C6C2E2052652D7363686564756C65207472616E736D697373696F6E20C4
:20047C006F66206D73672077697468206F70636F64652030782530327800C046D1E300002D
:20049C00531501002F880FF2502C98A29DA1B7F589572BD0103F40F06D81B5F8050040B194
:2004BC00401E04D0401E08BFCDF83CC002E00F9200E00F912879012840F05C810F9EC8A019
:2004DC00CBA740F2CC4128E048434920436F6D6D616E6420436F6D706C65746520457665FB
:2004FC006E7420726563656976656400B5F8050040B1401E04D0401E08BFCDF840C002E0F6
:20051C00109200E010912F79C7B17F1E40F03281B1A740F26E41ACA0109E00900197029609
:20053C004D4603954B460493B3A30122D7480AF0B9FD1FE1BD010100DDFE0010A0A740F2E1
:20055C006341E8E75265747279696E67206D6573736167652077697468206F70636F64653D
:20057C00203078253032782E20417474656D707420256400446973706C6179696E6700C0EE
:20059C0053656E64696E6700426F6E644D6772205265717565737465642070617373636F53
:2005BC0064652E205765206172652025732070617373636F6465202530366400427574741C
:2005DC006F6E203100C046C0427574746F6E203000C046C01B5B33336D72656C656173654F
:2005FC00641B5B306D00C0461B5B33326D707265737365641B5B306D00C046C0257320256E
:20061C0073002F8841F210103F1A31D0203F40F0B1802F7997B17F1E40F0AC8068790090CD
:20063C00A8790190E8794F464E46029079A3039740F29E41049678E74C0500200C9E494666
:20065C00282230460CF02AFB6D1D2722294630460BF040F98B4D58A761A000904E4601971D
:20067C004A46029540F29741039679A304925CE7A9780D9A681D0DF0D5F92F796E1D0FF253
:20069C00EC1B0FF2EC1A002F45D07F1E72D145A0009047A701977C4F40F22E4101226CA373
:2006BC0002974F460397794804970AF0FBFCA0696A7907210FF0FEF9377807B1D34635A0AA
:2006DC0000904E46CDF804B04F4602974D46039640F23641049543E0496E6469636174697D
:2006FC006F6E7320656E61626C6564004E6F74696669636174696F6E7320656E61626C65C2
:20071C006400C0464E6F74692F496E642064697361626C6564005C4D22A000901BA70197C2
:20073C0040F21F4101224AA302954F4603975748CDF810800AF0B6FCA069327806210FF0BC
:20075C00B9F9377807B1D3460CA00090CDF804B04F46CDF808804E46039740F22741049652
:20077C0044A3E2E60820494604F060F802E0407A00F04CFB0E980FF059FB0FE51B5B333111
:20079C006D4C4544301B5B306D00C0464C45443000C046C01B5B33326D4C4544311B5B30F3
:2007BC006D00C0464C45442053657276696365004C45443100C046C0537472696E6700C0E1
:2007DC00425554544F4E3000427574746F6E205365727669636500C0425554544F4E3100B7
:2007FC0044617461205365727669636500C046C053747265616D00C0434343442043686147
:20081C006E6765206D73673A2025732025733A20257300C056616C7565204368616E67655C
:20083C00206D73673A204461746120536572766963652053747265616D3A20253032783A51
:20085C00253032783A253032782E2E2E00C046C056616C7565204368616E6765206D73672A
:20087C003A2025732025733A202573006F6666006F6E00C05475726E696E67202573202504
:20089C007300C04688060020C0050020BC030000DFF800F0F99B0110DFF800F08984011020
:2008BC00DFF800F04FBF0110DFF800F0F1BF01102DE9F04FD44C04F118012046ADF1340DE6
:2008DC000EF044F800264FF6FF7066700121208204F1A4000FF02CFB022104F1C8000FF0B0
:2008FC0027FB042104F1EC000FF022FB4FF0040A04F1440810224046314684F802A00CF0C1
:20091C00CDF904F154091022484631460CF0C6F904F11C073E6004F10A052E70E67126726A
:20093C0007206072CDF80080DFF8F882022210200346414606F0DAFC102003224146CDF87B
:20095C000090034606F0D2FC1020524641460097134606F0CBFC4FF0080B4FF0030905F14F
:20097C002A00079005F17900089005F11E00099005F15A000A9024350B9517E06078A28F03
:20099C00E18FB4F84050B4F8423006280ED1ADF80A20ADF80C10ADF80E50B948ADF81030EB
:2009BC0011F04CF9012002A90BF036FEA069B34A31464FF0FF33FFF76BFF071CF6D0059608
:2009DC0006A80DF11A0105AA0FF0D0FB002840F0BD81BDF818102078102940F0B3819DF87E
:2009FC001A10884240F0AE81059D29884FF6FF728A4200F09C812B78A23B00F07F812E3BCD
:200A1C0040F0A081A978B046002900F03B81891E00F00A81491E012940F2D980891E00F0A8
:200A3C009C80491E6FD0491E5CD0083900F05681891E40F0598194F83A30A888052BADF891
:200A5C00080047D001208DF812008D4811F0F6F894F83A0001281ED004281CD003280DD0E2
:200A7C0002280BD00598C188ADF80A100189ADF80C104189ADF80E10818927E0A08FE58F24
:200A9C00ADF80A00B4F84030ADF80C50B4F84210ADF80E301AE0A08FE9888842D8BF081C6E
:200ABC00ADF80A002989E08F8842D8BF081CADF80C006989B4F840008842D8BF081CADF80C
:200ADC000E00A989B4F84200884200DC0846ADF8100001E08DF81260A849102002AA06F088
:200AFC0005FC01E1A64811F0A9F86B78002B40F0FB80E88860822889A0826889E08260488E
:200B1C0010F088FEF0E0AA88B449102006F0EEFB0798414606220CF0C1F86682A682E682AA
:200B3C00A8792073564811F089F8954811F086F84FF001084FF6FF702379208253B9A87902
:200B5C00082812BF84F801A005206070404610F091FEC9E084F80190C6E06B787BBB291D96
:200B7C0007980A680260898881800623637068892082E8896082288AA082688AE082E8786A
:200B9C00E07294F83A00012818BF02280BD1994910201F2206F0AAFB4FF47A7180B2414349
:200BBC0037480EF0DBFF688900909149CDF804A0EA7810202D1D2B4606F098FB97E06878D1
:200BDC00312840F08880E67084F801A08FE06B78002B40F08080A878E3896178032815D0D3
:200BFC00E078257923B9012814BF2671E67006E0054304D0804819460EF0B0FF617807293F
:200C1C00E2D10620607072E0A0100020062907D0E578002D08BF84F8019068D00220F1E757
:200C3C000720EFE7951001006B78002B53D1EB78617893B902291DD007291BD0062902D106
:200C5C002079012816D1032914D06B4810F0E2FD80B9012010F00EFE0CE00FF0C3FC0246D5
:200C7C00A07962490090089843460190102006F03DFB68706D78002D2DD135E00700008068
:200C9C00681100206B7833BB5C485749009002221020034606F02AFB59484A4652490090E6
:200CBC001020034606F022FBED1C099829680160A98801238180207863700FF093FC024659
:200CDC0001230A9D6079494900901020019506F00DFBC0B258B184F801B008E0AA88414922
:200CFC001020052306F002FBB8F1010F2AD1256A45B32D6835B36078A84723E068791328EF
:200D1C0020D12889012808D1607B022805D11C4810F094FF0FF05CFA14E036491020052222
:200D3C0006F0E4FA81B216480EF018FF0AE06888C00B07D3334852462B49009013461020FE
:200D5C0006F0D4FA059808B110F028FF2579E078790830D355EA00032DD0204600788DB959
:200D7C00E179257A8DF808100B9A8DF8095013680DF10A052B609288AA8005E005160110D6
:200D9C008C1100208DF80890617A8DF81010A17A8DF811100FF026FC1149024602AB10207C
:200DBC0006F0A4FA38B1256A84F801B01DB12D680DB15846A847B80803D3134930460BF0CD
:200DDC002BFCF808FFF4F2AD607B401E3FF4D6AD401E7FF4EBAD0FF0FBF9E7E519E9000025
:200DFC0059440110C11701104994000009450110259F00002114010044110020E410002081
:200E1C00F4100020BC100020DA10002030B5401E3CA5ADF12C0D37D0401E31D0801E20D0AD
:200E3C00401E1AD0401E0BD0401E05D0401E67D140F2BA3137A317E040F2AE3137A313E080
:200E5C0040F2153006A907F09BFD06A80DF0CEFD002240F2A93138A308E040F2B63140A35E
:200E7C0002E040F2B23144A30020024600900192029203922846049201220AF013F93FE078
:200E9C0040F29F3141A3EFE74FF4417008A907F077FD9DF821308DF819309DF822208DF85A
:200EBC001A2000248DF81C4021468DF81B109DF820008DF818009DF825308DF81F309DF81B
:200EDC0024208DF81E209DF823303E498DF81D3006AB586848601A680A6008A80DF086FD79
:200EFC0000902046019040F2993102900122039029A3049028460AF0D5F8334800F066F8AD
:200F1C000BB030BD70726F6A6563745F7A65726F2E6300C04572726F7200C046436F6E6E08
:200F3C00656374656420616E64206164766572746973696E6700C046436F6E6E6563746548
:200F5C00642E205065657220616464726573733A201B5B33326D25731B5B306D00C046C01E
:200F7C00436F6E6E656374696F6E2074696D6564206F757400C046C0446973636F6E6E65A1
:200F9C0063746564202F2049646C65004164766572746973696E67004741502069732073C1
:200FBC007461727465642E204F757220616464726573733A201B5B33326D25731B5B306DBA
:200FDC0000C046C0EF1300201C060020DFF800F01FBE011010B510F03FFE002400B101241A
:040FFC00204610BDBE
:20100000B41200001810000031E50000FDB301106DC00110FDAE011099B5011000000000B2
:08102000000000002D0000009B
:20102800B01200003C100000B1C00110A9BF011067C0011069B80110000000000000000035
:041048003000000074
:20104C00B012000060100000BDC00110CDB30110D9BD01106DB3011000000000000000005B
:04106C00310000004F
:2010700000000000FC21002004000000000000000000000020000000E8C90110300000000D
:2010900028100000042200200400000000000000000000000C000000D8CA011018000000E7
:2010B0004C1000000C22002004000000000000000000000024000000F0CA0110180000006B
:2010D00000000000142200200400000000000000000000001000000018CA01102C00000077
:2010F0000010000024220020040000000000000000000000200000006CCA011024000000DB
:20111000FFFFFFFF2C2200200400000000000000000000002800000090CA0110240000009A
:20113000FFFFFFFF342200200400000000000000000000001400000008CB01101800000019
:20115000FFFFFFFF3C22002004000000000000000000000058000000B4C9011034000000E7
:20117000FFFFFFFF442200200400000000000000000000001000000020CB011018000000B5
:20119000FFFFFFFF4C2200200400000000000000000000001C000000B4CA011024000000E2
:2011B000FFFFFFFF542200200400000000000000000000003800000044CA0110280000000A
:2011D000FFFFFFFF5C2200200400000000000000000000005400000078C901103C0000007F
:0811F00002000000C034010000
:0411F80001000000F2
:0411FC0000000E00E1
:0412000000000F00DB
:0412040032000000B4
:0412080001000000E1
:04120C00502100204D
:0412100000020000D8
:0412140000000000D6
:0412180001C90110F7
:04121C0000000000CE
:0412200000000000CA
:0412240008000000BE
:0412280000002200A0
:04122C00A01F0020DF
:0412300000000000BA
:0412340000000000B6
:0412380008000000AA
:04123C00102100205D
:0412400000000000AA
:0412440000000000A6
:04124800080000009A
:04124C00000000009E
:04125000000000009A
:041254000000000096
:041258000000000092
:04125C00010000008D
:041260003820002012
:041264000600000080
:041268000100000081
:04126C00D01E002070
:04127000000000007A
:041274000000000076
:041278000002000070
:04127C00000000006E
:02128000290043
:02128200010069
:02128400250043
:02128600300036
:02128800310033
:02128A002D0035
:02128C0001005F
:01128E00015E
:08129000030000005C340100C2
:0812980000000000000000004E
:0412A0000000010049
:0412A4000000030043
:0412A80013C401105A
:0412AC00D715010051
:0412B000B812000070
:0412B400B81200006C
:0412B8000000000032
:0412BC00C421002029
:0412C0008F17010083
:0412C4002000000006
:0412C800743301007A
:0412CC00F4310100F8
:0412D00029C101101F
:0412D400BFEC00006B
:0412D80067F20000B9
:0412DC00A1C7011095
:0412E000A3C701108F
:0412E4000000000006
:0412E800433201008C
:0412EC00EC2D0100E4
:0412F000042E0100C7
:0412F400D42D0100F4
:0212F8000200F2
:0212FA000900E9
:0212FC000100EF
:0212FE000000EE
:0113000001EB
:041304001D170100B0
:0413080071FD000073
:04130C00D50C0100FB
:0413100021010100B6
:04131400DFFD0000F9
:04131800E1ED000003
:04131C00E5C2000026
:04132000D3190100DC
:0413240061E1000083
:0413280015C70110D4
:04132C0025C70110C0
:201330002DE9F04F914C04F108012046ADF1940D0DF012FB0FF274190020074600904FF4F0
:20135000FF710197012202975CA303974846049709F0AEFE04F1640528463946A76310F0FD
:20137000C9FF04F17C0004F18801E5600AF08CF8A06170B900973846019040F20F2102901F
:20139000032203905DA30490484609F091FE10F0ADFF04F1700004F194010AF075F8606118
:2013B00078B900973846019040F215210290032203905BA30490484609F07AFE10F096FF6E
:2013D00060696B4910F022FB70B100973846019040F21B2102900322039059A304904846C6
:2013F00009F066FE10F082FF05A839462422082310F078FF604E4FF47A7832250D20DFF8AD
:2014100074A132680B9005AB04F59070B8FBF2F18AB26A43514610F061FF0E2031680B90F1
:2014300005AB04F5A270B8FBF1F189B24D432A46514610F053FF0125ADF83C7040F205304A
:201450000DF18E028DF88E50294602F0DBFC40F2063002210FAA02F0D5FC621C4FF44270D9
:20147000294602F0CFFC04F1B00240F20730142102F0C8FC04F1D900394620220BF014FC9B
:2014900004F1B00604F1D9083846325C401CC0B231180B78092B18BF082B01D11F2A6DDB74
:2014B0008018C0B22028F0DB6DE0C04670726F6A6563745F7A65726F2E6300C0496E6974B1
:2014D00069616C697A696E67207468652075736572207461736B2C206861726477617265F8
:2014F0002C20424C4520737461636B20616E642073657276696365732E00C0464572726FE4
:201510007220696E697469616C697A696E6720626F617264204C45442070696E7300C04621
:201530004572726F7220696E697469616C697A696E6720627574746F6E2070696E7300C010
:201550004572726F72207265676973746572696E6720627574746F6E2063616C6C62616310
:201570006B2066756E6374696F6E00C020050020BDBA000045CA000000350100491C521ED4
:2015900040460AF0ADF9CDF80080019748464FF4167102972A460397ABA3049709F088FDD6
:2015B000B34E10200622A023314605F0A5FE10200722A023314605F09FFE10200822A023AE
:2015D000314605F099FE10200922A023314605F093FE10202A461E23314605F08DFE8DF880
:2015F0008F508DF890500EAE0E9728468DF891704FF4816204238DF892009E4D009610202D
:20161000294605F079FE0DF18F004FF48062012300902946102005F06FFE24A840F2024236
:20163000012300902946102005F066FE0DF191000090294640F203420123102005F05CFE46
:201650000DF19200294640F2064201230090102005F052FE884910204FF0FF3205F04CFE28
:20167000864910204FF0FF3205F046FE1026DFF810928448844A0096132349460190304607
:2016900005F03AFE04F1C4003A4615237F490090304605F031FEB046C548C44ECDF8008050
:2016B00005234946019006F10C02404605F024FE0FF2D42B3D463E4605200090D8210195E5
:2016D000012202955B460395ABA0049609F0F0FCB84D27782878800010F0A0FA0146CD4883
:2016F0008246C16039B34FF6FF700EF08BFB2878800010F093FA0146CAF81010D9B14FF628
:20171000FF700EF07FFBC44940460AF11402009007230191494605F0EFFD07200090FE219C
:201730000196012202965B460396BCA0049609F0BFFC8AF8007028782678800010F06EFA4B
:20175000CB4F0146F960D9B14FF6FF700EF05AFBC849404607F14C02009006230191494677
:2017700005F0CAFD0620009000200190EB210290012203905B460490ADA009F099FC3E7024
:201790002878800010F04AFABB4E0146F16019B34FF6FF700EF036FB2878800010F03EFA2D
:2017B00001463161C1B14FF6FF700EF02BFB2878800010F033FA0146716169B14FF6FF70C2
:2017D0000EF020FBAD49183640460A23009032460191494605F090FD2878800010F01EFA06
:2017F000A74E0146B16071B14FF6FF700EF00AFB0C36A448CDF80080494604233246019081
:20181000404605F079FD2878800010F007FA9E4E01460029F16049D04FF6FF700EF0F2FA42
:201830002878800010F0FAF90146316100293DD04FF6FF700EF0E6FA2878800010F0EEF9DD
:201850000146716191B323E04E616D6520696E206164766572744461746120617272617941
:201870003A201B5B33336D25731B5B306D00C0461D000100154F0000D90B0100610E01002D
:201890008D0701004434010084140020C5C700004FF6FF700EF0B6FA7C49404606F1180228
:2018B00000900A230191494605F026FD3F4904F14C00002588600FF2881900900122019561
:2018D0004B460295E72103952BA0049509F0F0FB04F15400CAF80800009040F20F1101955D
:2018F000012202954B4603954CA0049509F0E0FB04F15C00B8602E460090FC210195012259
:2019100002964B4603964AA0049609F0D1FB0DF13E00282229460BF0C7F95D490DF16600F2
:20193000282209F0DDFF01210DF13E02284606F035FD01200DF13E02014606F02FFD28464C
:2019500001210DF13E0204F03BFA01200DF13E02014604F035FA284628210DF1660203F015
:201970001BFF012014210DF13E0203F015FF494D69782878A9BB1FE06C65645F73657276D4
:201990006963652E6300C0465265676973746572656420736572766963652C2025642061FA
:2019B00074747269627574657300C046781D0020D4300100694F002004F13C0129620EF0DE
:2019D00017FE05F154070096024605F14400019005F11C03029730490393AB78404605F08D
:2019F0008BFC2E4904F14402404605F085FC20780EF0FEFD2A490246404605F07DFC2078CA
:201A10000EF0F6FD27490246404605F075FC25B0BDE8F08F081C00205030010062757474A4
:201A30006F6E5F736572766963652E6300C046C0646174615F736572766963652E6300C0D7
:201A5000526567697374657265642063616C6C6261636B7320746F206170706C6963617437
:201A7000696F6E2E2053747275637420257000C0C01A00207C30010050190020282F010040
:201A9000841E0020A8320100081A0020A02F0100752F0100A0100020E3F10000D11001005C
:201AB00051880110318101102DE9F04F0F46CD4C0168E16241688068ADF11C0DE060C54855
:201AD000A1608047C448E16A0160A168DFF810A34160E168DFF804938160CE49002FA3467B
:201AF000C1606FD03D68E8788DF80C0028798DF80D0003A810F0EEFBA86808B1C6490160E0
:201B1000E86808B1C5490160C54C287820706878BE686070A878B268A0703178A260736856
:201B3000E1702E696360EA6926627968E2620868E06068696062A8697B68A062286A9E6819
:201B5000206395F8240084F834001EB900200FF05FFB00E066617868C06818B900200FF0A2
:201B700057FB00E0A0617868006918B900200FF04FFB00E0E0617868406818B900200FF006
:201B900047FB00E0206128692062F86881680E6806B9D24ED0494FF001084E60C66881F82B
:201BB000018036B900200FF033FB4D462E68F86801E04D462E6000685446FB68A0615868A7
:201BD000E06107E000200FF023FB4D462E684FF001085446361DC749366804F10803502014
:201BF0005246B04710B1286880688047DBF808008047C24E002781463B46BF487770694688
:201C100060610422337038460EF000FB0098B0F5801F0CD020B90EF009FE07F00DFB08E036
:201C30000DF02EFA0FF05EFD0420708001E00EF0FDFD3846BA4EE0602B68B76098698047F0
:201C50007060AF4880F800803946418014200FF01FFEFF211422A0620FF0FEFFE01CFF21B5
:201C700002220FF0F9FF14200FF012FEA54F38603868002114220FF0EFFF002000F052F92B
:201C900040460DF09BFDA0480188FF2906D1022101807822001D00210FF0DEFF032010F02E
:201CB00015FB042010F00EFB052010F007FB062010F000FB07200CF01DFA944E08203070AB
:201CD00006F1240010F0F2FA0CF0D2FB06F1360A05200A2152460FF0D5F938B10020C0F17E
:201CF0000901401C0AF8011B0A28F8DB3078102108F060FD2B68864909200DF10E025E68BE
:201D1000087001AB10200021B047A06AE1690A260A309DF80E20761E00F8012BF9D1891E9D
:201D3000E161DBF80C104846884704F120002B68626A059040461E69DFF8D88104F12003A7
:201D50004146B04710B1286880688047B8460EF0A3FE5FEA000903D009F086FC4FF0FF3941
:201D7000002643E00298616910F8062CA0F10C07032A03D1002939D0884737E0A16A9DF80F
:201D900010C00A223046491E11F8013F9C4506D0521E00F10100F7D14FF0FF0A01E05FFAAE
:201DB00080FA2868BAF1FF0F00F108001CD038790DF082FFB979012904D0022904BF029983
:201DD000887001E002990870029950460FF0A0F80CE0C04641490010F844002074220020A1
:201DF000982000206C1B0020006880472868C36904A902AA0DF10F0098470028B2D0D8F8AA
:201E100000007700C35B6BB9761CF6B20A2EF8DB2BE0C0460C23010035070100F113010031
:201E3000681F00200A2E20DADBF808008047D8F80010002231F807A0CA53DBF80C1088476A
:201E5000354850F8262066705146304690470646FF206070DBF808008047D8F800107A5A1C
:201E700016437E52DBF80C1088470EF015FE0746B9451AD007B9294FE069B84238BF071C90
:201E9000DBF80800804781462868016A206A8847626A28681F49059B521C6262C668384633
:201EB000B047DBF80C1048468847E7682968A0681431AFB9D8F800000A270026835B33B151
:201ED0000969A06888472968D8F8000014317F1E06F10206F2D107E0DC21002043D5000088
:201EF000096988472968143109684FF0FF3088472DE7C046690C0100691401001C1F0020A4
:201F10006C220020A83100208C1C0020B4150020BA31002001FD00007C3101008EC2F52835
:201F30005C3100202DE9F84FDFF8BC13DFF8BC23DFF8BC5308700821002010600D23DFF80D
:201F5000B40340F23732017043808280DFF8A8030560AC7EDFF8A4030470FF2CE97E4170A3
:201F700008BFFF292A7F82706B7FC370AE7F0671ED7F457115D1FF2A08BFFF2B11D1FF2ED5
:201F900008BFFF2D0DD1DFF878130A7802704B7843708A788270CB78C3700A790271497972
:201FB0004171DFF860130278DFF85C83DFF85C93DFF85C730A70FF2543784B7082788A7071
:201FD000C378CB7002790A714079487188F8005088F8015088F8025088F8035088F80450F9
:201FF00088F805500020CB490880D9F83440CA49607808702278C9493A70A0780870A268A8
:202010001079C74A411E1170E078C649C64A0870E068106008B90FF0FBF82069C34E3060B2
:2020300008B90FF0F5F83068DFF804A301688847326852F8041F50468847BE48BE49CAF85A
:202050002000CAF824106069BC49086008B90FF0DFF8A069BA49086008B90FF0D9F8E0693F
:20207000B849086008B90FF0D3F8DFF8DCB2B74C9BF804000FF00CFC0028206075D09BF8D6
:202090000500B34E0FF004FC002830606DD09BF80600DFF8C0A20FF0FBFB0028CAF8000085
:2020B00063D09BF807000FF0F3FBAB49002808605BD039789BF80000891C484380B20FF002
:2020D000E7FBA649002888604FD03878002862D0BBF80210484380B20FF0DAFBA04A00287E
:2020F000506042D038780FF0D3FB9E49002808603BD0387840000FF0CBFB9B4900280860E6
:2021100033D03878182148430FF0C2FB974A106058B3387840010FF0BBFB9549086020B361
:20213000387800010FF0B4FB92490860E8B1387800010FF0ADFB90490860B0B13878302159
:2021500048430FF0A5FB8D4A106070B18C483978007848430FF09CFB8A4A106028B13878F2
:202170000FF096FB8849086018B9BDE8F14F07F057BA4FF0000B09E00FF05AFB002141805F
:2021900081600180022303710BF1010B39785FFA8BF08842F0D32268694F012010712168AD
:2021B0000D732068457321688D732068C57321680D7400212068457400202268D172A022EB
:2021D0002168487103212068C2800172072022685072002120688172282120680122418286
:2021F000C2760020216848770022206880F85E200121226811770120216881F85D000122B8
:202210003068027131680D733068457331688D733068C57331680D74002130684574002025
:202230003268D172002231684871306882724FF420703168C88008818A7401213368D9746C
:20225000DAF800201573DAF800104D73DAF800209573DAF80010CD73DAF800201574002299
:20227000DAF800104D740121DAF80030DA720023DAF800201171DAF800104B71DAF8001024
:20229000C88008818B720520DAF800209374DAF800103E4AC8741068804739680546086801
:2022B0008047396851F8042F00209047D9F80C101C4B0A881878364902430A802846354A82
:2022D000136898470C2134480FF0ECFF40460FF0E5FF0FF0DFFFBDE8F44F034800784FF4CD
:2022F000005108F067BA00BF6E4F0020044F0020B63F0050604E0020084F00202C4E002031
:20231000E81200503C4E0020344E0020283501007B4F00200C4F00206D4F00206B4F00209E
:20233000724F00206C4F0020F04E0020F44E00207C4B0020A1180100C1180100F84E002030
:20235000FC4E0020DC260020B8210020104F0020144F0020184F00201C4F0020683100201B
:20237000684E0020004F00203C300020804E0020844E0020884E00208C4E0020904E0020AE
:20239000982200209431002098310020741B0020544F0020781B0020F84D00202DE9F84F9E
:2023B000C04CA178FF2904BF00200EF031FFA0780FF070F9044604F1680504F19006296867
:2023D000086810B10021E1830CE0A87B002804BFA97E002906D13078002801BF207F0128BE
:2023F000608CE0832189E08B4118491C618120460FF04CFF01281EBFAB480178012904D1A8
:2024100021890020491CE08361814FF6FF77A87E01280DD1AA8B618920890FF033FF38B16E
:20243000218960894A1C93B298421BD0A88B0FE03078012816D17288618920890FF022FF02
:2024500080B1218960894A1C93B298420AD0708892B2904206D03818608180B20FF00EFFF6
:202470003F18E78304F5967999F8040020B120890021401CE183608104F12E07A87E012839
:2024900011D12189A88B4B1C9BB298420BD160810FF0F4FE8046B988288C01FB0808204604
:2024B0000AF030FF01E0B7F80480B4F81EC022687E4ED2F80CE00CF1010000FB08F340F60F
:2024D000C41000FB03F18E44C2F80CE03668DFF8E0E13678BEF80080764AB609032E11D105
:2024F000D67BF60748BF4FF000080BD408F101081FFA88F6012E12BF668AB9F8066006F2B9
:20251000DC5600E0668A5E434FF4C87AB6FBFAF6761C6661AEF80080A3614FF0180894F874
:2025300006A084F820C008FB0AFADFF88CC1DCF800E023680EF1080656F80AB0C3F810B08F
:2025500094F806A008FB0AFACDF800A0D3F80CB0D4F814A0ABEB0A0ADDF800B046F80BA0AE
:2025700094F806A008FB0AFA56F80A609E600EF10C06A37908FB03F30EF10C0EF65C06F0D5
:20259000F00646F002060EF803604FF0000ADCF800E0A6790EF1020308FB06F623F806A0AE
:2025B000464BA6791B68760103F1140AD4F814B05AF806A00AEB4B0A03F1140B4BF806A081
:2025D000AD7E022D0BD1A5796D0103F1140697F800B056F805A000FB0BAA46F805A0BD8811
:2025F000D27BA779D60736D508FB07F70EF10802D659A6F5A86A0EF1080646F807A0A7797E
:2026100008FB07F7D2592768511A3961BA6003F11402A1794901575807F5F667575003F1BF
:202630001401A27952018958C9F800106843244AA179156B03EB41162968401AA0F5167057
:20265000F0612049A07903EB40100B78012B14D10121C17214E003F114027F01D1592A4658
:202670004243A1F5E661A2F516729142DED3082120460FF0FFFD012011E0916A4A78C272B8
:20269000A179DCF8000008FB01F281182268516007200D49087020460AF07CFB0020BDE8E1
:2026B000F28F00BF684E0020784F0020084F0020B03100205C4D0020804E0020844E0020EC
:2026D00028350100734F00206F4F00202DE9F84F0C46E00788B00BD50FF0BAF828B1002173
:2026F0008160B348006800B1804784F001005CE1A0070FD500210023069105910491039335
:2027100002910191009101223C200FF0AFFD84F002004AE11D256007A64EA74F40F18A805A
:20273000002107918B46A5488178FF2904BF00200EF06EFD386890F8A0000EF0ABFF80466F
:202750003868C07A98F82691022818BF032808F5907A06D106F10D000FF084FD08B906F102
:20277000070B514648460FF079FD88B33868807A002818BF012804D1314650460FF06AFD58
:2027900004E05246494630460FF060FDFF2834D005FB00F906EB090506225146E81D0EF067
:2027B00073FE16F80900396840F00209E81D07900622887E00F0010088F8260105F1010A42
:2027D000386800F1140108F590700EF05DFE14E0514648460FF036FD78B1524649463046DC
:2027F0000FF034FDFF2808D006F10D01454348190FF038FD08B949F0020908F12C004B46BD
:20281000017806914289120905920122B8F822100491C0880799029140080390CDF804B0B2
:20283000CDF800A0002098F806100FF01FFD84F00400BAE020060FD50021002306910591B5
:202850000491039302910191009101223B200FF00DFD84F08000A8E0E0044BD5F11D06F17B
:202870000D000FF0EBFC3868017A012918BF042931D1C17A02291EBF0329817E01292AD177
:20289000817E00F1140230460FF0E0FCFF2811D04543354405F10D000FF0E4FC50B9E91DD7
:2028B00005F10D000FF0CAFC38680622E91D14300EF0EAFD3868C07A022818BF03280AD168
:2028D00006F10D000FF0CEFC28B938680622F11D0C300EF0D9FD3A4842683A4800784FF4EB
:2028F00080510CF0EFFB10B18E200AF0E1F884F480505AE0A00505D50FF070F832490120CB
:202910000860FEE7600504D507F027FA84F480604BE0600405D581200AF0CAF884F48040AE
:2029300043E0A10440D5294D286810B100200EF06FFC274E4FF0FF3028600FF07BFC3168E0
:20295000244D51F8202F684690472349234B486A8A6A009001920293C86A0268086A0392FE
:20297000ADF810000A6B1178002904BF5068002805D19068002804BFD068002806D0297040
:20299000506868609168A960D068E86029463568134A2E6813486B46B0471349086004F06B
:2029B00073FD84F4005000E0002009B0BDE8F08F204F0020AC450020104F0020684E0020FD
:2029D000784E00206E4F0020FC002043044F0020F04E002068450020681F00205118010016
:2029F0002C4D002040300020EC4E00202DE9F04F09AFADF13C0D08900A92388809911E465E
:202A1000ADF81800101C08BF002000F07581017800274FF0010B401C4FF0FF39B846DA4614
:202A30000A9061E1252940F056810178401C0A902D2918BFADF8068004D10178ADF806B0E5
:202A5000401C0A9030291CBF4246434604D10178401C5A465B460A902A29CDF800804D467B
:202A700017D1049330680A9BCDF80890C01C20F00300001D306050F8044C1978002C0094A8
:202A900003F101000A9018D5ADF806A06442009413E044460AE0600000EBC4004018A0F1C6
:202AB00030040A9801780094401C0A90302901DB3A29F0DBCDF8089004932E2929D101780C
:202AD000401C2A290A9011D13168CDF80880C91C21F00301091D316051F8045C002D48BF47
:202AF000454601782B46401C0A9011E0454643460AE0680000EBC5004018A0F130050A9894
:202B100001782B46401C0A90302901DB3A29F0DB02930AB1224604926C2904D04C2918BF5F
:202B3000ADF8048004D10178ADF804A0401C0A900BA8CDF80C800FAB07906429059300F065
:202B5000828069297FD0BDF818C075296DD0782969D06F2965D070294ED063293ED0732986
:202B700022D00A98401E0A90099801281AD966490C68B5F1FF3F03D0A84288BF6D1C05D88B
:202B90006FF00041814294BF0D1C099D029508A80AA932466B46A04709993F18091A0398DF
:202BB000099165E0454617E03068C01C20F00300001D306050F8040CBCF1010F014608B953
:202BD0004FA0014607910EF097FD0390B5F1FF3F4FD0A8424DD9039528464AE03068C01C3B
:202BF00020F00300001D306010F8040C8DF82C005D46039558463CE0082035680490E81CEA
:202C100020F00300001D306050F8041C082210230FA80AF057FC401E0790402101700798B5
:202C300023E0082302E0102300E00A233068C01C20F00300001D306050F8041CAA42BCBF31
:202C50002A1C04920DE03068C01C20F00300001D306050F8041CAA42BCBF2A1C04926FF05D
:202C700009030FA80AF02EFC07900599081A0390009C241ABDF8065000945DB906E008A84E
:202C9000202109AA0DF03FFE7F1C009C641E0094F5D50398401EB0F1FF3F03900FD1BDF8DF
:202CB000060001281CD10098401E009018D408A8202109AA0DF027FE00987F1CF4E7079803
:202CD000017809AA08A80DF01EFE0798401C079003987F1CDEE708A809AA0DF014FE7F1C55
:202CF0000A980178401C0A9000297FF49BAE089808B14146017038460FB0BDE8F08FC04616
:202D1000286E756C6C2900C00C350100BB482DE9F84F0025BA4CB849056094F8E20000280E
:202D300000F06581012800F02F81B64E02283CD0032840F05C8151F8250CD4F8B81000293B
:202D5000A0F5C060C4F8D400B8BF49420028B8BF4042814226DA4FF08057D7F8A401456801
:202D7000B4F8BC0030214FF47F42082300903046A847D7F8A4014568B4F8C00004214FF471
:202D9000F802122300903046A847D7F8A401B4F8D070456820214FF440620A233046009792
:202DB000A847012584F8D8501CE151F8258C0EF015FE2F4600B901273946934F38680028C3
:202DD000FCD0B146012609F10409D9F82CA03E6009B10EF009FECAF30720C4F8BC000EF09E
:202DF000FDFDAA4600B9B2463B68002BFCD0D9F800B0BAF1000F3E6001D00EF0F5FDCBF336
:202E10008440C4F8C0000EF0E9FDAA4600B9B2463B68002BFCD0D9F81C90BAF1000F3E606E
:202E300001D00EF0E1FDC9F38120C4F8D000B8F5C061C4F8B81000F09C8094F8D80068B909
:202E5000C4F8D410D4F8C000C4F8C800D4F8BC70C4F8C470D4F8D030C4F8CC30D4F8D400A6
:202E7000D4F8BC30002854BF02226FF0010204F1C8010F6800EB40008018421000EB927290
:202E900007EBA2000860D4F8C810C4F8C43000291CDD1E293CDDD4F8CC0030B93429B4BFFF
:202EB00015391E21C4F8C81025E02A29BABFD4F8C8000B381E20C4F8C800D4F8C4003F2880
:202ED000B4BF401C3F20C4F8C4001FE0D4F8CC00032812D011F10B0FC6BFD4F8C8000B3020
:202EF000301CC4F8C800D4F8C4000028C4BF401E051CC4F8C450032508E011F1150FC6BFAD
:202F1000D4F8C8001530301CC4F8C800C4F8CC504FF08057D7F8A401B4F8C43030214FF462
:202F30007F424568374800930823A847D7F8A40104214FF400321123456832480096A847F9
:202F5000B4F8C860D7F8A40104214FF4F802122345682C480096A847D7F8A40120214FF4E4
:202F700040620A23B4F8CC60456826480096A84701E084F8D85040F2FF50404502D8801CF9
:202F900040452FD2082030E051F8251C1F4F4BF2F5204843060A3868C0F3814001280CD164
:202FB0001B480068006880470CF054FB0EF022FD3111C010484306EBE03694F8E50030B9A1
:202FD0001448006820F07F403618760801E084F8E5501148310C0660012741600F4D8760E8
:202FF000287808B90B2000E0052084F8E40003F0F3FFBDE8F88FC0462D400C402C500C4038
:203010003C18002000A00C4000800C40B43F0050EC010010102009403C600C402933010076
:203030002DE9F84FB34D696884B0019121B905B0BDE8F04F0FF0FAB80978DFF8BC82AF4ED5
:20305000DFF8BC92DFF8BCA201291CBF0229042946F2A81741F64C5B05D0402918BF802916
:2030700000F096803CE10EF0FBFC0028FAD00198007805F0F7FB0090446814B900200EF017
:20309000C7F89AF8010000285CD000F043F90EF001FB02900168009801914F680AF058FB2B
:2030B000022825D000990A78012ADBD196490A68137A19F80310317018B90FF0B3F8584435
:2030D000A0602069C17E01F0EF01C1762069C17E41F08001C1762069C17E01F0F00141F074
:2030F0000201C1762269B96888484118D1614BE001980178802911D10820854930700A789F
:20311000012A03D09AF80100022801DB38690CE0D8F828003A690178D1720DE07C4907204B
:2031300030700A783869012A02D10121C17203E0D8F828104A78C2720298817901988AF8D9
:203150000210C8E0009800288CD00199009A0078914205D101281CBF00200EF059F815E0CC
:20317000012840F0BD80684801680A7A19F8020030700FF057F83918A0680FF04FF818B99B
:203190000FF050F85844A0600120A8700098A2E09AF8010000287AD000F0BCF80EF07AFACE
:2031B00004462068029047689AF802000EF072FA03900EF05BFC10F0070F3DD0A87805F0CE
:2031D00051FB019041680198009102990AF0C0FA022831D001990A78012A2AD14A490A686E
:2031F000137A19F80310317028B90FF01BF883440098C0F808B000980069C17E01F0EF018A
:20321000C17600980069C17E41F08001C17600980069C17E01F0F00141F00201C176009A17
:20323000B9683A4841181069C16101210198A97051E000200DF0ECFF0398A04225D00298CE
:2032500033490278802A12D1082030700978012903D09AF80100022803DB38690121C17204
:2032700010E0D8F828003A690178D1720AE0072030700978386901290EBF0122D8F8281002
:203290004A78C272A0798AF80200029823E00EF0EDFB10F0070F29D0A87805F0E3FA0446BD
:2032B0002078D4F80480012820D117490868027A19F8021031700EF0B5FF3918D8F8080011
:2032D0000EF0ACFF20B90EF0ADFF5844C8F808000120A870204605B0BDE8F04F07F028BB3C
:2032F00005B0BDE8F04F00200DF092BF05B0BDE8F08F00BF68310020283501006F4F00202A
:20331000289A0110684E0020104F0020F0D8FFFF734F00202DE9FE4FB24C617811B90020A9
:203330000DF076FF0EF07EFF4FF00008074607F6C417C246AC4DDFF8B49228E050460EF06A
:20335000A9F906467079F0B12968B07901F80800394608F101005FFA80F830460EF05AFF13
:2033700030680178402902BF06F182000178012902BF41887289914205D1B169C0884118FD
:2033900030460CF047FB0AF101005FFA80FA99F800008245D2DB6178884505D000200DF0FD
:2033B00037FF82200EF032FF6078012840F0F180002701E07F1CFFB299F80000874280F234
:2033D000E28038460EF066F9064670790028F1D02968B0790A7890421CBF00200DF018FF65
:2033F000B079FDE0286810F809000EF053F900684268DAF808109068814204BF3E4609F1D4
:20341000010900F0D480D6E0286890F800B001224FF4C0710FE0636803F5AD76835C01FB89
:2034300003F901FB0BFE36F809C036F80E60B44538BF9B46521CFBB29A42ECDB4FF6FF70A5
:203450000EF0E0FE064658460EF024F968490068D0F804A00868D94630F8192060684FF4FB
:20347000C07300F10E0103FB09F3C85AB2EBD00F52D2720840F6C4104243009200275D4AE4
:203490000190029217E058460EF004F901680A78802A03D1DAF81030009A5A6109784029AD
:2034B00008D1029980790A6802EB4011009800F5A060C8617F1C47452EDA2868C05D834585
:2034D000F8D001464FF4C073594363685A1803F5AD73D289595A53088B4202D2521A90451B
:2034F000E8DA0EF0D7F801684A68019B9168DAF808207008A1F6C41103FB00200EF08EFEF7
:203510000028C0D03A48006830F81910491C20F81910286810F807B0296808780EF0BAF8F2
:203530000026006847684FF4C079464551DA2868805D0EF0AFF80068296842688B5D6068A7
:2035500009FB03F3034403F18201087830B15889B1F802C0401C80B2604508DA887B0128B5
:203570000ED15889098A401C80B2884208DB6EB3B968906801F5C241A8310EF04FFE28B37B
:20359000761CF6B2D1E700200DF042FE82200EF03DFE617828680EF031FE286800780EF055
:2035B00079F800260068D0F804A04FF00109771CC145FFF617AFF6B2002E1CBFF8B2002870
:2035D0007FF422AF286890F800B037E7296811F806B007490A6800205B4622F81300584613
:2035F000BDE8FE8F684E0020004F00207B4F00203C300020844E00202DE9F84FDFF8B8A24E
:203610000F460446F80B80F00B81A64EDFF88882B80F80F0BC80B80880F0B0803809C0F063
:20363000318108200EF004FA002840F0A28080200EF0FEF9002840F09C80684608F0B4F8CF
:20365000012803D10098002800F0938091480078002840F08E8000250124E8B20EF006F803
:2036700048B1837A3BB1847290F9090004FA00F0C0B20CF05DFA6D1C032DEED345464FF0D9
:20369000030905F1AC0085F810900EF0B7FA8348002301680360824950F8082C98461A4661
:2036B00040F8088C05F134000EF0B4FA3068006B8047A968401A010BA869C1F1FF3282425F
:2036D0002CBF08444FF0FF30A861287F20B1E868A969B1EBC02F1ED90DF07AFB414600B126
:2036F0002146081C14D0704840F60901018041464180427B64F303024273027B61F30302E6
:20371000027341600EF07CF8418811F4406FFBD02C774146A9616548016821F0020141F436
:2037300000710160624941F8049C41F230028A600C6050268E600C604FF4CA628A600C60D3
:2037500041F80C4C4446046002200CF0C3FB112007F090F8287818B9686838300EF066FA47
:20377000687F18B16C7705200CF0B4FB514868612C740AF0EDFA27F0080783E005F0D8FE9F
:2037900045467435286808B927F002077AE00EF03BFAB3468146DBF85400016804208847A4
:2037B000D8B1207CC8B1454608352868A8B10646DBF80000E568006B8047801BE060000B26
:2037D000E060A84202D240194008E06040F6C41181422CBFB0F5FA7FE16048460EF00AFD4F
:2037F0000CF08AF990B1A56920466FF4807100224FF00073A847464606F16C0528680028C2
:2038100008BF47F0020701D00AF0A2FA2046646900214FF080630A46A04727F0005731E0FE
:203830000EF0F2F951460E6846B306F1280106C90A234FF0E0450B40154008BF002B1DD189
:2038500006F1280191E8300006F1280393E8060006F12803AA43A14383E806000EF0CAFCC4
:20387000B16869B1002D08BF002C09D030692246B6F93C10B4682B46A04701E00EF0BAFC07
:2038900027F4804727B15046394650300EF0D6F9BDE8F88F79280020E02600201410044081
:2038B0004DE000008C01001024310020000004600C41044045A60000602700202DE9F04FDD
:2038D000DFF8A4B2804609AFFF200E461C460025ADF1240D97F8049007903F8830780592A4
:2038F000022805D17068008842F60211814273D030460AF0B9FF5FA3069018B3401E0ED040
:2039100028460090019040F2262102900322039051A304904CA007F0CBFB0A2091E066A073
:203930000090CDF8048040F2212102940122039745A0CDF8109007F0BBFB5946142001F11B
:20395000040911E05EA00090CDF8048040F213210294012203973CA0CDF8109007F0A8FBEE
:203970005946282001F10209B84214DD07EB040A50450ADBF06805992246C01907F0B0FF11
:20399000A9F800A00698079013E0284640F231214DA30D2504E028464FF40B7153A3072567
:2039B00000900190029003900322049026A007F07FFB0798FF280DD0DBF8080050B10668D4
:2039D00046B1E419A0B20090069A059B41F230114046B047284634E0B9F1FE0F0CBF0FF2CB
:2039F00030190FF2481930460AF03EFF00904FF4FC71CDF804800122CDF808904EA30395CD
:203A100011A0049507F054FB009703200190059A2346314640460AF0D9F8594608310F689C
:203A3000051C0DD167B1786850B130460AF01CFF00947C68059B024641F230114046A047B2
:203A5000E8B209B0BDE8F08F646174615F736572766963652E6300C0417474726962757455
:203A70006520776173206E6F7420666F756E642E00C046C05772697465417474724342207A
:203A90003A20257320636F6E6E48616E646C6528256429206C656E28256429206F66667329
:203AB000657428256429206D6574686F64283078253032782900C04653747265616D00C078
:203AD000537472696E6700C0496E76616C69642076616C7565206C656E677468207761738E
:203AF0002072656365697665642E00C0416E20696E76616C6964206F66667365742077610C
:203B100073207265717565737465642E00C046C02D20726573746F72696E6720626F6E644F
:203B3000656420737461746500C046C02D204F5441207772697465005772697465417474F5
:203B5000724342202843434344293A20706172616D3A20256420636F6E6E48616E646C6578
:203B70003A20256420257300C01A00202DE9F04FADF18C0D05A80DF083FD03209D4C8DF859
:203B90002C0005A9099400200BF046FC219000B9FEE71AA80021022209F086F89748984AB3
:203BB0004FF0000B00F11C0A0AF110060AF104010AF108071D960AF114051B910AF11803F0
:203BD0001C978D4E1E9511681F93B71C07F10109B4FBF1F1209104465D46A5F145008DF805
:203BF00068001AA9022230460CF078FA38460222594609F059F87078009030780FF24C1872
:203C100062210190584602900122039053A30490404607F04DFA02200D900E9621980F978A
:203C30000DA90DF090FFB0B199F80000009038785B4668210190012202934046CDF80CB086
:203C50004BA3CDF810B007F033FA99F800000DEB4501A1F84C006D1C0E2DBED39DF84C00D3
:203C70009DF84E100DF086FFE0619DF852109DF850000DF07FFF20629DF856109DF85400C1
:203C90000DF078FF60629DF85A109DF858000DF071FFA0629DF85E109DF85C000DF06AFF29
:203CB000E0629DF862109DF860000DF063FF20639DF866109DF864000DF05CFF606351461E
:203CD000584606F02FFB1B99012006F02BFB1C99022006F027FB0CF0E1FA1D99584609F012
:203CF00049F91E99042009F045F91F99052009F041F9E0690090206A0190606A5D467B2153
:203D10000122029020A303954046049507F0D0F9E06A0090206B0190606B7D210122029090
:203D300024A303954046049507F0C2F9A06A00907E210195012202952AA303954046049536
:203D500007F0B6F920980EF051FA45E77370695F6D6561737572652E6300C0464D617374B7
:203D700065722073656E743A2025752C202575004D61737465722072656365697665643A9B
:203D90002025752C202575006D79416363782069732025642C206D7941636379206973209B
:203DB000256420616E64206D794163637A206973202564006D794779726F782069732025AB
:203DD000642C206D794779726F7920697320256420616E64206D794779726F7A20697320EE
:203DF000256400C06D7954656D7020697320256400C046C040420F00A022002020050020CB
:203E1000003501002DE9FC41A0F2013714468846022F40F232819B4E9C493F1F0F2F04D9BA
:203E3000143F4CD0BF1E1CD011E0DFE817F0CF00C9000D01FA00C100B9002601AF00A700E4
:203E5000100010009D008F007F00740066002D2880F21381B8F1020F40F00F81884923885C
:203E700007E1B8F1010F40F00881F078012800F00481324620781179107189B9002800F05D
:203E9000FC805078012800F0B580042800F0B280062800F0AF80052800F0AC80BDE8FC817A
:203EB0002078002840F0E9805078032800F0AF80072800F0AC80052840F0DF80A7E0B8F150
:203ED000010F40F0DA802078012840F0D68006F1EC000DF0A5FC002840F0CF80344600202F
:203EF00004F13A0108F09EFB002840F0C68004F1C8000DF0A9FEBDE8FC81B8F1020F40F0E6
:203F1000BC8020880A28C0F2B880B0F5486F00F3B4808E1C17E0B8F1020F40F0AE802088AD
:203F3000B0F5FA7F80F2A9800E460CE0B8F1020F40F0A38020880628C0F29F80B0F5486F68
:203F500000F39B803E363080BDE8FC81B8F1020F40F0938020880628C0F28F80B0F5486F0D
:203F700000F38B803C36EEE7B8F1010F40F085802078062880F28180454E0EE0B8F1010F8B
:203F90007BD12078042878DA0A3606E0B8F1010F73D12078082870DA09363070BDE8FC8179
:203FB000B8F1010F69D12078042866DA0836F4E7B8F1010F61D1207804285EDCF61DECE712
:203FD000B8F1020F59D120880E36BCE7B8F1010F53D13079012850D032462078D178D070F6
:203FF00069B9002849D05078012803D0042818BF052842D101200DF043FCBDE8FC81207830
:2040100000283AD15078022818BF052835D110780CF0EEFA1C490246102003F06DF9BDE81A
:20403000FC8106F1830500211F22284608F03CFE21464246284607F053FC44463078B47178
:204050000CF0D6FA002311E006F1640500211F22284608F029FE21464246284607F040FC91
:204070004446307874710CF0C3FA01230094094901950246102003F03FF9BDE8FC81C046F5
:204090001D000100A010002099450110E0100020DA100020094501102DE9FC418E488F4AB8
:2040B00004788F488F4B90490D2C6FD8DFE814F012010E000E000E000E000A010A018E00B0
:2040D0000A01C900C900E700E700EE00106041F204478648864DB0F802C08649BC451FBFD0
:2040F000B0F81AE0BE45B0F83280B8454FF4A0561ED181480068D0F800C09CF80400032810
:204110000CF1080E0BD1DEF80E0000281CBFBEF81800002803D01F80784911608AE0022C87
:204130001CBF1E800D46156000208CF8040081E0BCF1000FA3F800C041D0BCF1010743D035
:20415000B7F1010C3BD040F2FE37BCEB07071ED0A7F1040CBCF1010F20D94FF47F77BCEB47
:20417000070C1DD04FF44067BCEB07070FD0BF1E012F0CD93F1F0AD07B1E012B0ED940F2A9
:20419000F937DB1B012B1AD91B1F09D09AE0022C01D115604EE01E800D46FAE7584DF8E744
:2041B000584B1C68257A012D05D141F20243438043834386F0E7468046834686ECE7002036
:2041D0000DF026F8832081E08F207FE04E498978FF290CD0106018204C4C41432068851C19
:2041F00040F204466C5A1C80A41B012C484B71D94FF47F76A41B0FD04FF44066A41B032C5B
:2042100084BF641F012C0BD9A41E012C62D940F2FD36A41B08D103E0801C41F20144445203
:20423000136005F045FC05E000200CF0F1FF85200DF0ECFFBDE8FC4136480078012106F057
:20425000B9BA40F204424888188090421CBF41F2084290423ED041F60402904211D12E4C86
:204270002E482F4B00680025CDE9004502222D4C256855F8086FB0472B4908802AE04888FB
:20429000188000200CF0C4FF85201FE04888188002280DD940F20442801A1BD040F6FC72DA
:2042B000801A05D0083815D04FF47F72801AE8D1887B801CC2B2B52AA8BF662088730020D9
:2042D000488007E000200CF0A3FF8420BDE8F6410DF09CBFBDE8F3816F4F0020204F002003
:2042F000DD1B0100504F0020CC4C0020204A0020B1540110615A0110F44B00205955011034
:20431000755B0110104F0020684E0020804E0020313901106E4F002002000080EC4E002035
:20433000B5FF0000F04E0020424F00202DE9F04F894609AFDFF884B2D9F80400BC8899F817
:2043500000801E46ADF11C0D0BF10C0106923F88059042460CF04AFC00250FF25C1A002817
:2043700036D1A846CDF80080CDF8048050464FF4CD71CDF808800122CDF80C8050A3CDF81A
:20439000108006F095FE022F12DC2846009001904FF4D1710290012203904FA3049050465D
:2043B00006F086FEC7F10200A042D8BF84B270E040F29D1151A3CDF8008028460190029010
:2043D000039001220490504606F072FE07256EE005980BF11C0142460CF008FC48BBA846DE
:2043F000CDF80080CDF80480504640F2A911CDF808800122CDF80C8049A3CDF8108006F0A5
:2044100057FE022F11DC28460090019040F2B11102900122039048A30490504606F048FEFD
:20443000C7F10200A04232DD33E04FF4D6714BA3C1E705980BF12C0142460CF0D7FB00284A
:2044500033D1A846CDF80080CDF8048050464FF4DC71CDF808800122CDF80C8048A3CDF835
:20447000108006F025FE022F4BA31BDCCDF800802846019002904FF4E071039001220490B9
:20449000504606F015FEC7F10200A04201DC82B200E022463280D9F80C100698C91907F062
:2044B0001FFA04E040F2BB1185E735800A25284607B0BDE8F08FC0466D794163632E6300D4
:2044D000536574506172616D6574657220696E206D796163637800C0536574506172616D86
:2044F000657465727820696E206F6666736574206973206C6F77657200C046C0536574505F
:204510006172616D657465727820696E206F66667365742069732062696767657200C04692
:20453000536574506172616D6574657220696E206D796163637900C0536574506172616D24
:20455000657465727920696E206F6666736574206973206C6F77657200C046C053657450FD
:204570006172616D657465727920696E206F66667365742069732062696767657200C04631
:20459000536574506172616D6574657220696E206D796163637A00C0536574506172616DC3
:2045B000657465727A20696E206F6666736574206973206C6F77657200C046C0282F0100C0
:2045D0002DE9F04F8246DAF80070DAF804600C465FEA0208ADF11C0D14BF00214FF0FF3167
:2045F000DFF8409248460DF0B8F8002818BF0B2040F0158100258F488C4905708A48FC6063
:2046100052460DF007FB317B27200DF005FBB8F1010F07D0657002200BF070FE06200BF0F2
:204630006DFE01E0012060702078012840F2AA80801E012868D9801E012833D9801E01286E
:2046500000F2DE800DF0E0FA83464FF0805000F5EE77D0F8DC01A378466A009321782846E7
:20467000062908BF0120019001200290A068228AE1686368B047814658460DF0BBFDB9F14C
:20469000000F40F0BF80B8F1000F02D00CF0CCFE02E050460BF0D4FC002800F0A38038681E
:2046B000806A2AE00DF0B0FA83464FF0805000F5EE77D0F8DC01012306680093A168A27830
:2046D00060682478AC46042C08BF9C466346B047814658460DF08EFDB9F1000F40F0928013
:2046F000B8F1000F02D00CF09FFE02E050460BF0A7FC002876D03868406880474C49C1F8A6
:20471000B0510D6081467DE00DF07EFA83464FF0805000F5EE77D0F8DC01E38A86690093BC
:20473000E0680190208B0290A0780390207D04900121059122782846022A08BF081CE17847
:204750006268A368B047814658460DF053FDB9F1000F57D1B8F1000F02D00CF065FE02E01F
:2047700050460BF06DFC00283CD03868006A80475FEA000946D1E078A168E28A236907F071
:2047900095FFBFE70DF040FA83464FF0805000F5EE76D0F8DC01E38AC7680093E0680190BA
:2047B000208B0290A0780390207D2946049001200590257805B9014608466268A368E1788D
:2047D000B847814658460DF015FDB9F1000F19D1B8F1000F02D00CF027FE02E050460BF095
:2047F0002FFC08B914201AE03068406980475FEA000907D1306802692169E078904781E739
:204810004FF0FF39B8F1010F05D002200BF062FB06200BF05FFB03480DF008FA484607B0FF
:20483000BDE8F08FD81D0020101E00204109010050450240B8310020F0B507460020ADF106
:204850001C0D0E46044664A500900322019464A30294DE2103942846049406F029FC64A3D3
:20487000B81E09D0801E00F09F80401E7ED0401E5ED0401E3CD01BE0012E0CD000940194FB
:2048900028460294F12103940322049406F010FCF2215AA394E00094019428460294EC21DE
:2048B00003940322049406F003FCED2158A387E0009401942846029440F2091103940322FA
:2048D000049406F0F5FB0094204601904FF4857102900322039054A30490284606F0E8FB6A
:2048F00001208DF817009DF817000028FBD171E0009401942846029440F2031103940322CB
:20491000049406F0D5FB0094204601904FF482710290032203904AA30490284606F0C8FB76
:2049300001208DF816009DF816000028FBD151E00094019428460294FD210394032204943C
:2049500006F0B6FB009420460190FE2102900322039040A30490284606F0AAFB01208DF886
:2049700015009DF815000028FBD133E00094019428460294F72103940322049406F098FB3F
:20499000009420460190F82102900322039036A30490284606F08CFB01208DF814009DF872
:2049B00014000028FBD115E00094019428460294E42103940322049406F07AFBE5212EA322
:2049D0000094204601900290039003220490284606F06EFB07B0F0BD6D61696E2E6300C037
:2049F0003E3E3E535441434B20415353455254002A2A2A4552524F522A2A2A003E3E20491A
:204A10004E5445524E414C204552524F522100C03E3E20494E5445524E414C2046572045CC
:204A300052524F522100C0463E3E2044454641554C54205350494E4C4F434B2100C046C0EF
:204A50003E3E2057524F4E47204150492043414C4C2100C03E3E204943414C4C2054494DFB
:204A7000454F55542100C0463E3E204943414C4C2041424F525421003E3E204F5554204F05
:204A900046204D454D4F5259210070472DE9F04385B011F8017B0446082F04F1FD0004F184
:204AB000FC0804F1760504F5A076844A844BDFF8149213D0092F21D00F2F2FD0112F01BF00
:204AD000287801286878102840F0D5800A78327648787076012184F83D11EBE00025521C46
:204AF0004E5D5F5D3E434E55575D3E4046556D1C082DF5DB204608F0F5FD74E00024571C85
:204B10000D5D1E5D35430D553A5D15400555641C082CF5DB022088F80000CBE098F801001E
:204B3000820704D410F0110F57D01A2266E008784A7800EB02203080CA78887800EB0220ED
:204B500070804A79087900EB0220B080CA79887900EB0220F080087A30724A7A887A02EB3C
:204B700000227281C87A0A7B00EB0220B0818A7B487B00EB0220F0810A7CC87B00EB0220EF
:204B900030828A7C487C00EB022070820A7DC87C00EB0220B082487D897D00EB0120F08237
:204BB000494801788A0658BF1A2212D504F5A670049071890391307A029021890191F088F0
:204BD0000090B38872883188204608F081FAE0B11E2298F80100410710D40F2088F815001C
:204BF00020460DF0FFFA002864D199F8000005B0BDE8F0434FF4804105F0DCBD204605B021
:204C1000BDE8F0430F210DF0E9BA7088A882B188E9820221F0882883297400206882A18EFA
:204C3000A88AC91DE981618EB0EB510F02BFE88AA18E884202BF288BE18EB0EB111F18D036
:204C50002878012804BF68780F2805D0687918B10F21A972FE2127E0FC2120460DF0BAFA7D
:204C7000F0880090B38872883188A0790DF0AEFA20E0102118E0491E20460DF0A3FA032FAE
:204C900018D1A878042818BF0D2813D16E78142E18BF0E2E0ED12F7820460DF08FFA012F02
:204CB00006BFAE72FD213146204605B0BDE8F0430DF090BA05B0BDE8F08300BFEC4D00204B
:204CD000843100206E4F0020144E002010B50B7884074CBF43F0020303F0FD0304064CBF72
:204CF00043F0800303F07F0304074CBF43F0080303F0F70384064CBF43F0200303F0DF0378
:204D100010F0AA0F0B7003D0107840F00C0003E018B9107800F0F300107010BD2DE9F843FB
:204D30000D4600272878022814461E4667D1696808784978DDF8208000EB012080B25FEA1B
:204D500008021CBFB0F5285F0B205BD14FF42851401A08D0401E21D0401E2FD0401E25D0EE
:204D7000401E31D04BE0DDF82490E8680CF076FF80B2A0EB08024A45BCBFA0EB08001FFAD2
:204D900080F909EB0800162806DAA6F800904A46E86800EB08010DE00D2732E0E868008863
:204DB000022131802070000A60702AE0062030800622E96820460CF067FB22E001203080B5
:204DD000E9680A7822701CE0E868B0B1082131800288227003881B0A63704188A170428894
:204DF000120AE270818821718288120A6271C188A171C088000AE07103E0308001E0378078
:204E100001273846BDE8F2832DE9F0470F46814638780024022890461D466DD17868089E5E
:204E300001784078DFF8D8A001EB002189B24FF42852891A06D0491E29D0491E4ED0491E18
:204E500039D059E0F8680CF009FF80B2B04204D3A919162903DB0D244FE007244DE0FB68A7
:204E70002A46414698190CF00FFBAD19F868ADB2C5F11602002140190CF0EEFEDAF80000ED
:204E900000281CBF0268002A37D0002123E08EBB022DE0D198F8000098F80110FA6800EB99
:204EB00001201080DAF8000000281CBF0268002A23D001210FE0EEB9062DCCD1F8680622C5
:204ED00041460CF0E1FADAF8000000281CBF0268002A12D00321484690470EE056B9012D65
:204EF000B9D198F80000002813BF0128F9680870802402E00B2400E001242046BDE8F08750
:204F1000A03100207CB5894D144602460026A2F58062182A1AD8DFE812F0FE00F800F10064
:204F3000E900E200DC00D500D0001900C500BE00B700AE00A3001900190080006F006800E8
:204F500054004C00420039002C0024002D2880F28580022940F0828021880BF057F806466E
:204F7000E1E0012940F0DE80002C00F0DB801135A6E0102940F0D680002C00F0D3802846C9
:204F90005030102221460CF07FFACCE0012940F0C980002C00F0C68029468D1D90E02629EA
:204FB00040F0C080002C00F0BD8005F160002622E8E7012940F0B680002C00F0B3806D1D42
:204FD0007EE0602900D13CB9012940F0AB80002C00F0A8800D3573E005F186002146602251
:204FF0000CF052FA012068739DE0012940F09A8020780DF0DFF896E0012940F09380207885
:20501000022800F38F800C3528702078022814BF301C01200DF0CAF885E0072940F08280F3
:20503000611C684606220CF01DF920786946324605F09AFF04460A2C10DA0DF0B3F838B9AB
:20505000204603F035FD0BF03BFD09F011FA6AE02A46012002F12C05285564E0022662E054
:2050700001295FD1A87B21780028A9735BD12078012858D1E9E7012954D12478072C51DB96
:20509000102C4FDC0B3537E001294BD124780A2C48DA093530E0012944D12478022C41DA96
:2050B000083529E000293DD10DF07CF810B90CF07FFAC8E701240F351EE0012932D10A3532
:2050D000247819E001292DD12478022C2ADAED1D12E0102926D12B4603F1400051E7012902
:2050F00020D12478022C1DDA2D1D05E0012919D12478042C16DCED1C2C7014E0012911D148
:205110002478022C0EDAAD1CF6E702290AD120881435288007E0012904D12478022CD8BF41
:205130006D1CE9DD182630467CBDC046B41500202DE9FE4F05467B48002400680094C009DA
:2051500005D37948007810B920200AF093FF012D40F0E280DFF80092D9F8DC00012840F06A
:20517000D8800220C9F8DC000CF0FEF801200AF081FF5FEA000805D00120C9F8DC000CF09B
:20519000FFF8CBE00CF056FDA34602906748684DC0F800B0A86A016801208847012804D15E
:2051B000584608F00BFB012000906248624FC0F800B0386811200CF035FC00B101241020CB
:2051D0000CF030FC08B144F002040F200CF02AFC08B144F004040B200CF024FC20B12868B6
:2051F000564E016B308888470A200CF01BFC20B12868534E016B30888847524801260660AF
:205210002868816944F0200088474F4806600CF003FC00F001010191400814D2286A8168BC
:205230004A4888478246BAF1040FF7D0BAF1010F04D1286A4268454803219047444908685F
:2052500020F003000860584600F088F82B683868986B8047019801280CD0BAF1010F04D18A
:20527000286A42683948314690473949086840F0030008602F48066028684169204688473A
:205290000B200CF0CFFB20B128682C4BC16A188888470A200CF0C6FB20B12868284BC16AB5
:2052B00018888847274806600322C9F8DC20264BC3F800B02868416B204688470128F9D178
:2052D000386804200AF0D6FE0446184806603868144800688009FBD30098012802D1304657
:2052F00008F06CFA0CF080FB08200AF0C3FE07460298C9F8DC600CF051FF1648008807F0D9
:2053100091FF0CF03DF857EA040018BF4FF0FF3804E06FF0040801E06FF001084046BDE867
:20533000FE8FC04614100940241900200C400940B8010010000222432C200940B62D0100C2
:20535000B22D010028200860800104430040034024220840243301003C1800202DE9F84FAB
:20537000DFF804B20746ABF13500DFF8F0810068800880F0E28075480068006880477E494D
:205390000831D1F8009000254FEA29715FEA995201F101010AD2C0F13E0210F10A0F4FEA2B
:2053B000E202D8BF08229142B8BF111C684BD3F87C21C2F30462162AA8BF203A1B68C3F351
:2053D0000443162BA8BF203B9A465218162A05DA12F10A0FB8BF6FF0090200E015225D4B4E
:2053F0005D4E02F01F0141F4F8511980316811F0030F18BF0125C90828BF45F002050FB16C
:2054100045F00405434693F90710411A052904DA9979A94208BF99886FD0DFF844E10F2854
:20543000A0F10F0829DB08EB0011A1F1F0084FEA28210091072984BF07210091062988BF6D
:2054500006215EF821600424774604EB81043C594FEA950CA41BEE0804F0FF0124BFC4F333
:20547000072631446F08AE0824BFC4F3074631446E0828BF01EB146104E000214FEA950C54
:205490006F080091009C5EF824E05FEA5C060EF0FF0424BFCEF3072634447E0824BFCEF3DF
:2054B000074634446E0828BF04EB1E64009E89B2A8EB06267143803104EB1124AAEB020190
:2054D0000029D8BF0121342209F0FF074A4391B24FF6FF727943B1FBF4F18A4238BF111CC2
:2054F000802889B2998005DA10F1800FB8BF6FF07F0000E07F20D8719D711A4800681F29F4
:2055100018604FF0000008D340F2FF128A4206D24908401C8A42FBD301E01F219980134F1F
:205530000F39090940EAC10047EA0001CBF8FB1F0026CBF8FF6FBDE8F88F0D490D4F434649
:2055500008200F609B1D1870BDE8F88FEC0100103C1100506E620840242208408C3100201B
:205570009C130050082009403500094000E7A48030100940FDFDA400AC3F00502DE9FE4F5D
:205590000E46074630687C68D7F808B0F8B1B5680DB97368DBB194F894100020012908BF23
:2055B0000120284202D17168084205D0012080F00100C0B201280AD10CF026FB8146D4F8CD
:2055D000880038B148460CF015FE032030740020BDE8FE8F01253574C4F888600020019070
:2055F000C4F88C00C4F8900048460CF003FE94F8AC0038B194F895206649D4F8A4001143A7
:205610000AF042FAD6F804800CF0FEFA824694F8E00080B918F0704F08D1B8F1000F05D064
:2056300004200AF06BFE06200AF068FE02200AF065FE84F8E05050460CF0DCFDDBF80010D4
:20565000486840F002004860207800287BD1DBF81C003168884276D9207B18B16068B0F136
:20567000FF3F70D148460CF0C5FDB0685D4600280CBF04F1AE088046706828B9E88904F111
:20569000AE07A4F8AE0000E00746606909282CBF4FF0020A4FF0010AD6F80090B9F1000F3D
:2056B00024D0606909280CD3286839880CF041FA286869460CF0A4F9BDF80000A8F8000058
:2056D0000BE0286839780CF034FA286869460CF097F99DF8000088F80000B36803B1D044A1
:2056F000736803B15744B9F10109DAD12968C8684008FCD3DBF80010486820F002004860EC
:2057100077680CF081FA054694F8E00078B117F0704F06D12FB106200AF0DCFB04200AF0B1
:20573000D9FB02200AF0D6FB019884F8E00028460CF060FD0198D4F888100874C4F888001F
:205750000120019022E02046594603F06BFCDBF80010486940F00100486120780028EFD138
:20577000616804F16C0005460BF0F7FF0028E7D0D4F88800017C012904BF032101743846FF
:2057900004F024F9019928460BF0E7FF0198BDE8FE8FC046000006802DE9F04F804C05463C
:2057B000E06893460F462E1CADF1140D16D0761E06D00095002040F2311139A305465BE07F
:2057D0000646002047A240F22D1104F1040804F1100914254FF0010A84460AE0002043A2A9
:2057F0004FF4917104F1020804F1240928258446E24600920197034602900122CDF80CC03B
:2058100023A0049330A305F053FCBD422FDB484659463A4606F064F8BAF1000FA8F8007035
:2058300032D0B078002808BF32A103D001280CBF37A13DA13088002700903D460122019148
:205850003EA3029740F24111039511A0049505F02FFC06200090534F207804F14C03494675
:205870002A4601903046029705F07EFA0CE0009700204FF4A5713CA30190029503900322E0
:20589000049003A005F014FC05B0BDE8F08FC046646174615F736572766963652E6300C0A2
:2058B000536574506172616D657465723A20506172616D6574657220232564206E6F7420B3
:2058D00076616C69642E00C0536574506172616D65746572203A202573206C656E3A2025FD
:2058F0006400C04653747265616D00C0537472696E6700C01B5B33336D4E6F74692F696EE2
:20591000642064697361626C65641B5B306D00C04E6F74696669636174696F6E20656E61AD
:20593000626C656400C046C0496E6469636174696F6E20656E61626C656400C054727969A5
:205950006E6720746F2073656E64206E6F74692F696E643A20636F6E6E48616E646C6520DD
:2059700025782C20257300C04C656E677468206F75747369646520626F756E64733A204C06
:20599000656E3A202564204D696E4C656E3A202564204D61784C656E3A2025642E00C0467F
:2059B000C01A0020117900002DE9F0410446804DA178A869ADF1180D891F00F0F280C91E17
:2059D00000F0DD80491E5FD0491E48D0C91E3CD0481E40F0E980287A697AB8B96878002865
:2059F00031D0A0880CF0D6FB071C00F0DD80A07A40080FD3787968B1E168890A0AD2B91D55
:205A100001AA05F0B1FA0A2804D10321A0880CF0BDFBC9E0287B022802D1A07A0009F4D3F1
:205A3000A088797904F1080201F09EFBA869002800F0BA804368002B00F0B68000210A46E3
:205A5000A0889847B0E00521E0E7002800F0AC804368002B00F0A88062780221F0E70BF0B1
:205A7000FFFE002800F0A080A86950B1076847B1206900906189227B637BE01C3C46A04785
:205A900092E060890121C2E767784FF00008002F66D1A179490863D3EF69002F60D101A842
:205AB00041460E220CF0D8F8A0880CF073FB071C7AD0606940B97879B91D06228DF80A0014
:205AD00001A80BF0E1FC19E06669307C062206F111018DF80A0001A80BF0D6FC07F10C0087
:205AF000B91D06220BF0D0FCB81D062206F111010BF0CAFC307C40F002007871A079C00862
:205B100039BF387900F0FD00387940F002003871A079000939BF387900F0DF00387940F0D8
:205B300020003871A1799DF81120C1F3800010438DF81100080905D39DF8110040F00800C8
:205B50008DF8110001A8214600F022FD28B92878022104F02FFE404627E0A8694FF01508C1
:205B700010B3436803B3A088627801219847B8F1000F19D0A86943680321424660E7E07846
:205B9000211D002205F0F0F90A280DDA410001EB800004F10C0225300421C0B203F04CFCC7
:205BB00002E0A08808F0B0FE012006B0BDE8F081B41500202DE9F04F044672488E460168B9
:205BD00094461F46BEF1000FADF13C0D4DD0BCF1000F4AD09EF8002001209040014244D0E0
:205BF000BCF80000B0F5C15F32D1DCF81400DCF81860654BDCF81C50DFF890A10B904FF013
:205C100003080DF128090C9618680D95C0F3036B59F8046FCEB10021351F05200B4655F8DA
:205C3000042FB2F1FF3F10D0924506D0401E01F1040103F10103F2D107E0052B05DA7058E5
:205C500020F4702040EA0B407050B8F10108DFD1C4F804E0C4F808C00BF0D6FF4C4D8046A6
:205C7000287820B140460CF0C5FA002087E002F0CFFC4849086840F00200086007A80BF0D9
:205C9000C7FD002605F1D00007AA4349099609F03BFD424905F5827007AA09F035FD07A835
:205CB0000BF086FDFF20192107AB3D4A089005F1340009F091FC3B4A05F150001A2107ABC4
:205CD00009F08AFC3849324605F18800134608F0A3FD3649324605F1AC00134608F09CFD4A
:205CF000334A05F12000042133460AF049FE0E2004F0D6FE05F174000BF086FC05F16C00E3
:205D10000BF082FC2E740523EB60072085F898012E77AE616E772849AE60264A69612B78B3
:205D30001670581C287040460CF064FAB1461FB968460BF07DFC6F4638682060388A608277
:205D5000012060747B6813B940F6C4130646E3601A48A06126746061F86800B1A061B86803
:205D700000B160614946582204F1200006F09CFF04F1380049460AF0BFFC6C6020460FB090
:205D9000BDE8F08FD4210840541300500200F844E026002000200940C113010069A200002E
:205DB0004DE00000D9D90000C10D01007911010045EB0000B231002045A6000077AF000056
:205DD0002DE9F0477C4C2369E5680F4691460FF2D40A011CADF1180D11D0491E07D0002299
:205DF0000746154640F2471133A328464DE043A040F24311A61D04F102081D4605E041A09C
:205E10004FF49C71261D04F1010800900197002002900122039032A30490504605F048F91C
:205E3000022F2CDA5FB3404649463A4605F058FD3780A878002808BF34A103D001280CBFC8
:205E500039A13FA12888002700903E460122019140A3029740F2571103965046049605F004
:205E700027F907200090554F207804F114034146324601902846029704F076FF0FE00122E1
:205E900000204FF4B0713EA315460097019204460295032203905046049405F009F906B094
:205EB000BDE8F087627574746F6E5F736572766963652E6300C046C0536574506172616D56
:205ED000657465723A20506172616D6574657220232564206E6F742076616C69642E00C0AC
:205EF000536574506172616D65746572203A202573206C656E3A20256400C046425554542C
:205F10004F4E3100425554544F4E30001B5B33336D4E6F74692F696E642064697361626CBB
:205F300065641B5B306D00C04E6F74696669636174696F6E20656E61626C656400C046C01D
:205F5000496E6469636174696F6E20656E61626C656400C0547279696E6720746F2073650C
:205F70006E64206E6F74692F696E643A20636F6E6E48616E646C652025782C20257300C046
:205F90004C656E677468206F75747369646520626F756E64733A204C656E3A202564204DFE
:205FB000696E4C656E3A202564204D61784C656E3A2025642E00C046081C0020B177000010
:205FD0002DE9FE4F0E468246307AC10693461F464FF000090CD558460CF0D4F8030000F001
:205FF000E8800A223146504698475FEA00094DD130780C9D0D9CDDF8388002281AD170682D
:206010000178407801EB002189B24FF42052891A012910D9891E3AD0491E14D0FD397AD010
:20603000491E00F08180491E6DD0491E73D0491E00F09580ABE0002C2AD1F0680178298012
:206050000278416887E0002C22D101202880F1680A783A7000217089401C80B20CF08EF80F
:20607000298860B10278921C51182980418979704289120ABA7041680278F81C6CE0091DA7
:20609000298004220021781C0BF0E6FD93E0002C66D1F0680688042129803E70320A7A7030
:2060B0000DF1020130460CF069F8040021D0D4F80C80BDF802204FF6FF766B4631460CF0FA
:2060D00059F840B9237862683C4802210CF04EF808B9ADF8006098F8000002280BD1D8F8EC
:2060F00004100222381D0BF0CFF92888801C288001E0ADF80060BDF80000B870BDF80010C4
:20611000090AF97057E0002C2AD1F068016850460BF03EFB02E01CBBF068008802212980A5
:206130003870000A787046E0F0680BF097FD80B2A042B8BF4FF007093DDB844208BF002207
:2061500005D008EB04028242B4BF4246021B2A8092B2F068011938460BF096F92BE014B14D
:206170004FF00B0927E0F0680721298002783A7043787B704188B9704288120AFA70017906
:206190003971C2887A71C088000AB87113E058460BF0E8FF5FEA00090BD00F980290CDF8F7
:2061B000048000942B463A4631465046C847814601E04FF00E094846BDE8FE8FB230010009
:2061D0002DE9F04F09AF3D7981461C468A460846ADF1240D3F88069208F0E6FB0026FF2158
:2061F0004BA3DFF8C8810790089108B3401E0ED030460090019040F2EB110290032203904B
:206210003CA3049037A004F053FF0A2066E051A00090CDF804904FF4F3710294012203979A
:2062300030A0049504F044FF404600F1040B0FE04AA00090CDF804904FF4EC71029401220D
:20625000039728A0049504F033FF404600F1020B05901FBB07EB0408B8F1020F18DAB8F1C7
:20627000000F03D1182D10D0122D0ED0DAF80C0006992246C01905F033FBB8F1000F1BD065
:20629000ABF800800798089016E040F2FF1101E04FF4FB71304633A30D2604E0304640F2C1
:2062B000F11139A307260090019002900390032204900CA004F0FCFE0898FF280DD00598E9
:2062D000806850B1056845B1E419A0B20090079A069B41F210114846A847304609B0BDE89C
:2062F000F08FC0466C65645F736572766963652E6300C04641747472696275746520776141
:2063100073206E6F7420666F756E642E00C046C05772697465417474724342203A2025731C
:2063300020636F6E6E48616E646C6528256429206C656E28256429206F666673657428252C
:206350006429206D6574686F64283078253032782900C0464C45443100C046C04C45443030
:2063700000C046C0496E76616C69642076616C7565206C656E6774682077617320726563DC
:2063900065697665642E00C0416E20696E76616C6964206F66667365742077617320726533
:2063B000717565737465642E00C046C0781D00202DE9F04F754F1E46ADF1340D01914FEA02
:2063D000960902923D680090710809F1020221F0010105EB8200091D0390901805EB800078
:2063F0000490501805EB80038018059305EB8000079026F0030000F1080802EB080005EBE8
:20641000800340180893801805EB80000990C6F39C008000083002EB4000411805EB80034F
:2064300005EB810B0A938918831805EB8104404405EB8303C6F3990105EB800089000690A6
:2064500038680B930A010021803206F02DFC4849DFF820A109682846AAF1880290470746A0
:20647000B94518BF6FF001007ED128465546394605F168029047019831460AF0A9FD0028F1
:2064900018BF012070D1029831460AF0A1FD002818BF022068D103980199A8470498029955
:2064B000A847009881680598A847334B0399059A20469946C847012802D1BD0066590EB18C
:2064D000032051E020460021424606F0EDFB0499059A2046C847012801D166590EB104201D
:2064F00042E0274B254D079803991E462A46B047089804992A46B047079909980A46B04754
:206510000A980999079AB0471E4D0B9807992A46B04720460021282206F0C6FB1A4B0A99EA
:206530000B9A20469946C847203520462A460146C847089958460A46B04706980021424604
:2065500006F0B2FBFDB25846002D0CBF0122FAB20021635C455CAB4218BF052004D1491CD0
:20657000521EC9B2F5D100200DB0BDE8F08FC0468C4F0020B9DB0010C9DE0010CC200020F1
:20659000F9E00010A82E0100C9E60010884F00202DE9FF478146714CDFF8BCA1E06988464A
:2065B00000284CD1B9F1000F00F09480B8F1000F00F0908048460AF04FF905460A2D23DAC2
:2065D000D8F814702574002F37D0680010216A4600EB85002330C0B20AF054FD90B95046E0
:2065F0000778FF21102268460AF073FE50B93FB999F80600494600F001000BF0AFFD01E001
:206610000120A074E0691AE004F1E6070A2600253846FF2106220AF05CFE68B9761E07F1F4
:206630000E0705F10105F3D1607C002804BF0A2020744FD094F836502574E06900E0257C5C
:206650000A2D47DA002835D168000E214A4600EB85002030C0B202F0EFFE207C08F0B6FA28
:206670006846FF2110220BF0F7FA207C10216A467030C0B202F0E0FE217C0E220801A0EB5E
:20669000410000194946E6300AF0FEFED8F814206AB15046007840B9107C02F1110100231B
:2066B00000F001000BF056FD01E00120A074C4F81C804CE08268002A3ED10269002A2FD139
:2066D00042690ABBC2683AB9A07B08B109F08EFE0AF0C9FC01203BE06800102100EB8500C0
:2066F0002430C0B202F0A8FEE769217CFA68480000EB8100103225300421C0B202F09CFE6F
:20671000E1690020C86022E06800102100EB85002330C0B202F090FEE1690020486116E07E
:2067300068001C2100EB85002230C0B202F084FEE169002008610AE068001C2100EB85002A
:206750002130C0B202F078FEE1690020886000200090BDE8FF87C0465A4F0020B415002019
:206770002DE9F04F6C4CA068ADF13C0D002800F0858004F1B80B4FF00D0A4FF00A094FF051
:20679000010878E00BF0E2FC2178CA0002EB41125A44B2E8E01004ABA3E8E010E0CAE0C36D
